{
  "contractName": "Market",
  "abi": [
    {
      "constant": false,
      "inputs": [],
      "name": "renounceOwnership",
      "outputs": [],
      "payable": false,
      "stateMutability": "nonpayable",
      "type": "function"
    },
    {
      "constant": true,
      "inputs": [],
      "name": "owner",
      "outputs": [
        {
          "name": "",
          "type": "address"
        }
      ],
      "payable": false,
      "stateMutability": "view",
      "type": "function"
    },
    {
      "constant": true,
      "inputs": [],
      "name": "isOwner",
      "outputs": [
        {
          "name": "",
          "type": "bool"
        }
      ],
      "payable": false,
      "stateMutability": "view",
      "type": "function"
    },
    {
      "constant": false,
      "inputs": [
        {
          "name": "newOwner",
          "type": "address"
        }
      ],
      "name": "transferOwnership",
      "outputs": [],
      "payable": false,
      "stateMutability": "nonpayable",
      "type": "function"
    },
    {
      "anonymous": false,
      "inputs": [
        {
          "indexed": false,
          "name": "startPrice",
          "type": "uint256"
        }
      ],
      "name": "MarketStarted",
      "type": "event"
    },
    {
      "anonymous": false,
      "inputs": [
        {
          "indexed": false,
          "name": "totalUsers",
          "type": "uint256"
        },
        {
          "indexed": false,
          "name": "totalStaked",
          "type": "uint256"
        },
        {
          "indexed": false,
          "name": "optionStaked",
          "type": "uint256[]"
        }
      ],
      "name": "PredictionDataUpdated",
      "type": "event"
    },
    {
      "anonymous": false,
      "inputs": [
        {
          "indexed": false,
          "name": "endPrice",
          "type": "uint256"
        },
        {
          "indexed": false,
          "name": "winningOption",
          "type": "uint256"
        }
      ],
      "name": "MarketEnded",
      "type": "event"
    },
    {
      "anonymous": false,
      "inputs": [
        {
          "indexed": true,
          "name": "previousOwner",
          "type": "address"
        },
        {
          "indexed": true,
          "name": "newOwner",
          "type": "address"
        }
      ],
      "name": "OwnershipTransferred",
      "type": "event"
    },
    {
      "constant": false,
      "inputs": [
        {
          "name": "_startTime",
          "type": "uint256"
        },
        {
          "name": "_duration",
          "type": "uint256"
        },
        {
          "name": "_marketPair",
          "type": "uint256"
        },
        {
          "name": "registry",
          "type": "address"
        }
      ],
      "name": "initiate",
      "outputs": [],
      "payable": false,
      "stateMutability": "nonpayable",
      "type": "function"
    },
    {
      "constant": false,
      "inputs": [],
      "name": "startMarket",
      "outputs": [
        {
          "name": "_roundId",
          "type": "uint256"
        },
        {
          "name": "_startPrice",
          "type": "uint256"
        }
      ],
      "payable": false,
      "stateMutability": "nonpayable",
      "type": "function"
    },
    {
      "constant": false,
      "inputs": [
        {
          "name": "_stakeAmount",
          "type": "uint256"
        },
        {
          "name": "_option",
          "type": "uint256"
        }
      ],
      "name": "placePrediction",
      "outputs": [],
      "payable": true,
      "stateMutability": "payable",
      "type": "function"
    },
    {
      "constant": false,
      "inputs": [],
      "name": "endMarket",
      "outputs": [
        {
          "name": "_endPrice",
          "type": "uint256"
        }
      ],
      "payable": false,
      "stateMutability": "nonpayable",
      "type": "function"
    },
    {
      "constant": false,
      "inputs": [
        {
          "name": "_user",
          "type": "address"
        }
      ],
      "name": "claimReturn",
      "outputs": [
        {
          "name": "",
          "type": "uint256"
        }
      ],
      "payable": false,
      "stateMutability": "nonpayable",
      "type": "function"
    },
    {
      "constant": true,
      "inputs": [
        {
          "name": "_user",
          "type": "address"
        }
      ],
      "name": "getReturn",
      "outputs": [
        {
          "name": "",
          "type": "uint256"
        }
      ],
      "payable": false,
      "stateMutability": "view",
      "type": "function"
    },
    {
      "constant": true,
      "inputs": [],
      "name": "getMarketData",
      "outputs": [
        {
          "name": "_startTime",
          "type": "uint256"
        },
        {
          "name": "_midTime",
          "type": "uint256"
        },
        {
          "name": "_endTime",
          "type": "uint256"
        },
        {
          "name": "_marketPair",
          "type": "uint256"
        },
        {
          "name": "_startPrice",
          "type": "uint256"
        },
        {
          "name": "_endPrice",
          "type": "uint256"
        },
        {
          "name": "_totalUsers",
          "type": "uint256"
        },
        {
          "name": "_totalStaked",
          "type": "uint256"
        },
        {
          "name": "_totalReward",
          "type": "uint256"
        },
        {
          "name": "_winningOption",
          "type": "uint256"
        }
      ],
      "payable": false,
      "stateMutability": "view",
      "type": "function"
    },
    {
      "constant": true,
      "inputs": [],
      "name": "getPredictionData",
      "outputs": [
        {
          "name": "_totalUsers",
          "type": "uint256"
        },
        {
          "name": "_totalStaked",
          "type": "uint256[]"
        },
        {
          "name": "_userStaked",
          "type": "uint256[]"
        }
      ],
      "payable": false,
      "stateMutability": "view",
      "type": "function"
    }
  ],
  "bytecode": "0x6080604052734f96fe3b7a6cf9725f59d353f723c1bdb64ca6aa600e60006101000a81548173ffffffffffffffffffffffffffffffffffffffff021916908373ffffffffffffffffffffffffffffffffffffffff160217905550336000806101000a81548173ffffffffffffffffffffffffffffffffffffffff021916908373ffffffffffffffffffffffffffffffffffffffff1602179055506000809054906101000a900473ffffffffffffffffffffffffffffffffffffffff1673ffffffffffffffffffffffffffffffffffffffff16600073ffffffffffffffffffffffffffffffffffffffff167f8be0079c531659141344cd1fd0a4f28419497f9722a3daafe3b4186f6b6457e060405160405180910390a3611f41806101246000396000f3fe6080604052600436106100c4576000357c0100000000000000000000000000000000000000000000000000000000900480638da5cb5b116100815780638da5cb5b1461027e5780638f32d59b146102d5578063a4c4c0c114610304578063c70cdbd7146103bf578063c895b8eb1461042e578063f2fde38b14610459576100c4565b80630cc9a606146100c95780631ec0fd501461012e57806339dafecf146101935780634d96264c146101cb578063715018a6146102355780637b4afd651461024c575b600080fd5b3480156100d557600080fd5b50610118600480360360208110156100ec57600080fd5b81019080803573ffffffffffffffffffffffffffffffffffffffff1690602001909291905050506104aa565b6040518082815260200191505060405180910390f35b34801561013a57600080fd5b5061017d6004803603602081101561015157600080fd5b81019080803573ffffffffffffffffffffffffffffffffffffffff16906020019092919050505061056b565b6040518082815260200191505060405180910390f35b6101c9600480360360408110156101a957600080fd5b8101908080359060200190929190803590602001909291905050506106ae565b005b3480156101d757600080fd5b506101e0610b94565b604051808b81526020018a81526020018981526020018881526020018781526020018681526020018581526020018481526020018381526020018281526020019a505050505050505050505060405180910390f35b34801561024157600080fd5b5061024a610be1565b005b34801561025857600080fd5b50610261610d1a565b604051808381526020018281526020019250505060405180910390f35b34801561028a57600080fd5b50610293610fab565b604051808273ffffffffffffffffffffffffffffffffffffffff1673ffffffffffffffffffffffffffffffffffffffff16815260200191505060405180910390f35b3480156102e157600080fd5b506102ea610fd4565b604051808215151515815260200191505060405180910390f35b34801561031057600080fd5b5061031961102b565b604051808481526020018060200180602001838103835285818151815260200191508051906020019060200280838360005b8381101561036657808201518184015260208101905061034b565b50505050905001838103825284818151815260200191508051906020019060200280838360005b838110156103a857808201518184015260208101905061038d565b505050509050019550505050505060405180910390f35b3480156103cb57600080fd5b5061042c600480360360808110156103e257600080fd5b81019080803590602001909291908035906020019092919080359060200190929190803573ffffffffffffffffffffffffffffffffffffffff1690602001909291905050506111ab565b005b34801561043a57600080fd5b5061044361140e565b6040518082815260200191505060405180910390f35b34801561046557600080fd5b506104a86004803603602081101561047c57600080fd5b81019080803573ffffffffffffffffffffffffffffffffffffffff169060200190929190505050611630565b005b60008060116000600c5481526020019081526020016000205414156104d25760009050610566565b61056360116000600c54815260200190815260200160002054610555600b54600f60008773ffffffffffffffffffffffffffffffffffffffff1673ffffffffffffffffffffffffffffffffffffffff1681526020019081526020016000206000016000600c548152602001908152602001600020546116b690919063ffffffff16565b61173c90919063ffffffff16565b90505b919050565b6000600f60008373ffffffffffffffffffffffffffffffffffffffff1673ffffffffffffffffffffffffffffffffffffffff16815260200190815260200160002060010160019054906101000a900460ff16156105cb57600190506106a9565b6001600f60008473ffffffffffffffffffffffffffffffffffffffff1673ffffffffffffffffffffffffffffffffffffffff16815260200190815260200160002060010160016101000a81548160ff0219169083151502179055506000610631836104aa565b9050600081111561065c5761065b734f96fe3b7a6cf9725f59d353f723c1bdb64ca6aa84836117cb565b5b80600f60008573ffffffffffffffffffffffffffffffffffffffff1673ffffffffffffffffffffffffffffffffffffffff1681526020019081526020016000206002018190555060029150505b919050565b60028110610724576040517f08c379a00000000000000000000000000000000000000000000000000000000081526004018080602001828103825260118152602001807f4f7074696f6e20697320696e76616c696400000000000000000000000000000081525060200191505060405180910390fd5b60025442101561079c576040517f08c379a000000000000000000000000000000000000000000000000000000000815260040180806020018281038252601a8152602001807f4d61726b657420686173206e6f7420737461727465642079657400000000000081525060200191505060405180910390fd5b600354421115610814576040517f08c379a000000000000000000000000000000000000000000000000000000000815260040180806020018281038252601e8152602001807f4d61726b65742070726564696374696f6e2068617320657870726965642e000081525060200191505060405180910390fd5b6000341461088a576040517f08c379a000000000000000000000000000000000000000000000000000000000815260040180806020018281038252601e8152602001807f4e6f7420616c6c6f776564207472616e73616374696f6e2076616c75652e000081525060200191505060405180910390fd5b600e60009054906101000a900473ffffffffffffffffffffffffffffffffffffffff1673ffffffffffffffffffffffffffffffffffffffff166323b872dd3330856040518463ffffffff167c0100000000000000000000000000000000000000000000000000000000028152600401808473ffffffffffffffffffffffffffffffffffffffff1673ffffffffffffffffffffffffffffffffffffffff1681526020018373ffffffffffffffffffffffffffffffffffffffff1673ffffffffffffffffffffffffffffffffffffffff1681526020018281526020019350505050602060405180830381600087803b15801561098357600080fd5b505af1158015610997573d6000803e3d6000fd5b505050506040513d60208110156109ad57600080fd5b81019080805190602001909291905050505060006109cf600a84612710611956565b905060006109e6828561198690919063ffffffff16565b905060018111610a5e576040517f08c379a00000000000000000000000000000000000000000000000000000000081526004018080602001828103825260108152602001807f546f6f20736d616c6c20616d6f756e740000000000000000000000000000000081525060200191505060405180910390fd5b610a7382600954611a0f90919063ffffffff16565b600981905550610a838184611a97565b60606002604051908082528060200260200182016040528015610ab55781602001602082028038833980820191505090505b50905060008090505b6002811015610b00576011600082815260200190815260200160002054828281518110610ae757fe5b6020026020010181815250508080600101915050610abe565b507fb334273605c204cf6376016800f20571b4fc05126b62405f64c9170a874d746b600754600854836040518084815260200183815260200180602001828103825283818151815260200191508051906020019060200280838360005b83811015610b78578082015181840152602081019050610b5d565b5050505090500194505050505060405180910390a15050505050565b60008060008060008060008060008060025499506003549850600454975060055496506006549550600a54945060075493506008549250600b549150600c54905090919293949596979899565b610be9610fd4565b610c5b576040517f08c379a00000000000000000000000000000000000000000000000000000000081526004018080602001828103825260208152602001807f4f776e61626c653a2063616c6c6572206973206e6f7420746865206f776e657281525060200191505060405180910390fd5b600073ffffffffffffffffffffffffffffffffffffffff166000809054906101000a900473ffffffffffffffffffffffffffffffffffffffff1673ffffffffffffffffffffffffffffffffffffffff167f8be0079c531659141344cd1fd0a4f28419497f9722a3daafe3b4186f6b6457e060405160405180910390a360008060006101000a81548173ffffffffffffffffffffffffffffffffffffffff021916908373ffffffffffffffffffffffffffffffffffffffff160217905550565b600080610d25610fd4565b610d97576040517f08c379a00000000000000000000000000000000000000000000000000000000081526004018080602001828103825260208152602001807f4f776e61626c653a2063616c6c6572206973206e6f7420746865206f776e657281525060200191505060405180910390fd5b600060065414610e0f576040517f08c379a00000000000000000000000000000000000000000000000000000000081526004018080602001828103825260168152602001807f4d61726b657420616c726561647920737461727465640000000000000000000081525060200191505060405180910390fd5b426002541115610e87576040517f08c379a00000000000000000000000000000000000000000000000000000000081526004018080602001828103825260178152602001807f49742773206e6f74207965742073746172742074696d6500000000000000000081525060200191505060405180910390fd5b600d60009054906101000a900473ffffffffffffffffffffffffffffffffffffffff1673ffffffffffffffffffffffffffffffffffffffff16628332c96002546005546040518363ffffffff167c01000000000000000000000000000000000000000000000000000000000281526004018083815260200182815260200192505050602060405180830381600087803b158015610f2357600080fd5b505af1158015610f37573d6000803e3d6000fd5b505050506040513d6020811015610f4d57600080fd5b81019080805190602001909291905050506006819055507f1ece2930141f47e70caa2bb9a47bba6ec04db6cba706c9b5ce82a137ada0baf26006546040518082815260200191505060405180910390a1600154915060065490509091565b60008060009054906101000a900473ffffffffffffffffffffffffffffffffffffffff16905090565b60008060009054906101000a900473ffffffffffffffffffffffffffffffffffffffff1673ffffffffffffffffffffffffffffffffffffffff163373ffffffffffffffffffffffffffffffffffffffff1614905090565b600060608060026040519080825280602002602001820160405280156110605781602001602082028038833980820191505090505b50915060026040519080825280602002602001820160405280156110935781602001602082028038833980820191505090505b509050600754925060008090505b60028110156111a55760116000828152602001908152602001600020548382815181106110ca57fe5b602002602001018181525050600f60003373ffffffffffffffffffffffffffffffffffffffff1673ffffffffffffffffffffffffffffffffffffffff16815260200190815260200160002060010160009054906101000a900460ff161561119857600f60003373ffffffffffffffffffffffffffffffffffffffff1673ffffffffffffffffffffffffffffffffffffffff16815260200190815260200160002060000160008281526020019081526020016000205482828151811061118b57fe5b6020026020010181815250505b80806001019150506110a1565b50909192565b6111b3610fd4565b611225576040517f08c379a00000000000000000000000000000000000000000000000000000000081526004018080602001828103825260208152602001807f4f776e61626c653a2063616c6c6572206973206e6f7420746865206f776e657281525060200191505060405180910390fd5b60006002541461129d576040517f08c379a00000000000000000000000000000000000000000000000000000000081526004018080602001828103825260138152602001807f416c726561647920696e697469616c697a65640000000000000000000000000081525060200191505060405180910390fd5b426112b18486611a0f90919063ffffffff16565b116112bb57600080fd5b836002819055506112d58385611a0f90919063ffffffff16565b6003819055506112f083600354611a0f90919063ffffffff16565b6004819055508160058190555080600d60006101000a81548173ffffffffffffffffffffffffffffffffffffffff021916908373ffffffffffffffffffffffffffffffffffffffff1602179055506002600c81905550600d60009054906101000a900473ffffffffffffffffffffffffffffffffffffffff1673ffffffffffffffffffffffffffffffffffffffff1663012088376040518163ffffffff167c0100000000000000000000000000000000000000000000000000000000028152600401602060405180830381600087803b1580156113cc57600080fd5b505af11580156113e0573d6000803e3d6000fd5b505050506040513d60208110156113f657600080fd5b81019080805190602001909291905050505050505050565b6000611418610fd4565b61148a576040517f08c379a00000000000000000000000000000000000000000000000000000000081526004018080602001828103825260208152602001807f4f776e61626c653a2063616c6c6572206973206e6f7420746865206f776e657281525060200191505060405180910390fd5b4260045410611501576040517f08c379a00000000000000000000000000000000000000000000000000000000081526004018080602001828103825260198152602001807f4d61726b657420686173206e6f7420656e646564207965742e0000000000000081525060200191505060405180910390fd5b600d60009054906101000a900473ffffffffffffffffffffffffffffffffffffffff1673ffffffffffffffffffffffffffffffffffffffff16628332c96004546005546040518363ffffffff167c01000000000000000000000000000000000000000000000000000000000281526004018083815260200182815260200192505050602060405180830381600087803b15801561159d57600080fd5b505af11580156115b1573d6000803e3d6000fd5b505050506040513d60208110156115c757600080fd5b8101908080519060200190929190505050600a819055506115e6611cce565b7e0b6feae4bec70344a7d0e99f4c0237adaaeee2fbb258266be400bd8612a332600a54600c54604051808381526020018281526020019250505060405180910390a1600a54905090565b611638610fd4565b6116aa576040517f08c379a00000000000000000000000000000000000000000000000000000000081526004018080602001828103825260208152602001807f4f776e61626c653a2063616c6c6572206973206e6f7420746865206f776e657281525060200191505060405180910390fd5b6116b381611d8a565b50565b6000808314156116c95760009050611736565b60008284029050828482816116da57fe5b0414611731576040517f08c379a0000000000000000000000000000000000000000000000000000000008152600401808060200182810382526021815260200180611ef56021913960400191505060405180910390fd5b809150505b92915050565b60008082116117b3576040517f08c379a000000000000000000000000000000000000000000000000000000000815260040180806020018281038252601a8152602001807f536166654d6174683a206469766973696f6e206279207a65726f00000000000081525060200191505060405180910390fd5b60008284816117be57fe5b0490508091505092915050565b60008111156119515773eeeeeeeeeeeeeeeeeeeeeeeeeeeeeeeeeeeeeeee73ffffffffffffffffffffffffffffffffffffffff168373ffffffffffffffffffffffffffffffffffffffff161415611868578173ffffffffffffffffffffffffffffffffffffffff166108fc829081150290604051600060405180830381858888f19350505050158015611862573d6000803e3d6000fd5b50611950565b8273ffffffffffffffffffffffffffffffffffffffff1663a9059cbb83836040518363ffffffff167c0100000000000000000000000000000000000000000000000000000000028152600401808373ffffffffffffffffffffffffffffffffffffffff1673ffffffffffffffffffffffffffffffffffffffff16815260200182815260200192505050602060405180830381600087803b15801561190b57600080fd5b505af115801561191f573d6000803e3d6000fd5b505050506040513d602081101561193557600080fd5b810190808051906020019092919050505061194f57600080fd5b5b5b505050565b600061197d8261196f85876116b690919063ffffffff16565b61173c90919063ffffffff16565b90509392505050565b6000828211156119fe576040517f08c379a000000000000000000000000000000000000000000000000000000000815260040180806020018281038252601e8152602001807f536166654d6174683a207375627472616374696f6e206f766572666c6f77000081525060200191505060405180910390fd5b600082840390508091505092915050565b600080828401905083811015611a8d576040517f08c379a000000000000000000000000000000000000000000000000000000000815260040180806020018281038252601b8152602001807f536166654d6174683a206164646974696f6e206f766572666c6f77000000000081525060200191505060405180910390fd5b8091505092915050565b60001515600f60003373ffffffffffffffffffffffffffffffffffffffff1673ffffffffffffffffffffffffffffffffffffffff16815260200190815260200160002060010160009054906101000a900460ff1615151415611bb5576001600f60003373ffffffffffffffffffffffffffffffffffffffff1673ffffffffffffffffffffffffffffffffffffffff16815260200190815260200160002060010160006101000a81548160ff0219169083151502179055503360106000600754815260200190815260200160002060006101000a81548173ffffffffffffffffffffffffffffffffffffffff021916908373ffffffffffffffffffffffffffffffffffffffff1602179055506007600081548092919060010191905055505b611c1b82600f60003373ffffffffffffffffffffffffffffffffffffffff1673ffffffffffffffffffffffffffffffffffffffff168152602001908152602001600020600001600084815260200190815260200160002054611a0f90919063ffffffff16565b600f60003373ffffffffffffffffffffffffffffffffffffffff1673ffffffffffffffffffffffffffffffffffffffff168152602001908152602001600020600001600083815260200190815260200160002081905550611c98826011600084815260200190815260200160002054611a0f90919063ffffffff16565b6011600083815260200190815260200160002081905550611cc482600854611a0f90919063ffffffff16565b6008819055505050565b6000600654600a5410611cf35760006001811115611ce857fe5b600c81905550611d06565b600180811115611cff57fe5b600c819055505b600060116000600c548152602001908152602001600020541115611d2e57600854600b819055505b600090505b600754811015611d8757611d796010600083815260200190815260200160002060009054906101000a900473ffffffffffffffffffffffffffffffffffffffff1661056b565b508080600101915050611d33565b50565b600073ffffffffffffffffffffffffffffffffffffffff168173ffffffffffffffffffffffffffffffffffffffff161415611e10576040517f08c379a0000000000000000000000000000000000000000000000000000000008152600401808060200182810382526026815260200180611ecf6026913960400191505060405180910390fd5b8073ffffffffffffffffffffffffffffffffffffffff166000809054906101000a900473ffffffffffffffffffffffffffffffffffffffff1673ffffffffffffffffffffffffffffffffffffffff167f8be0079c531659141344cd1fd0a4f28419497f9722a3daafe3b4186f6b6457e060405160405180910390a3806000806101000a81548173ffffffffffffffffffffffffffffffffffffffff021916908373ffffffffffffffffffffffffffffffffffffffff1602179055505056fe4f776e61626c653a206e6577206f776e657220697320746865207a65726f2061646472657373536166654d6174683a206d756c7469706c69636174696f6e206f766572666c6f77a165627a7a7230582054ec0e6ec591710742cf1325844822b6d5959db39dc2b21a0e7aa9ac4e74830d0029",
  "source": "\r\npragma solidity 0.5.7;\r\n\r\nimport \"./external/openzeppelin-solidity/math/SafeMath.sol\";\r\nimport \"./external/openzeppelin-solidity/ownership/Ownable.sol\";\r\nimport \"./external/openzeppelin-solidity/token/ERC20/IERC20.sol\";\r\nimport \"./interfaces/IToken.sol\";\r\nimport \"./interfaces/IMarketRegistry.sol\";\r\n\r\ncontract Market is Ownable {\r\n  using SafeMath for *;\r\n\r\n  uint256 roundId;\r\n\r\n  /* Market Creation Data */\r\n  uint256 startTime;\r\n  uint256 midTime;\r\n  uint256 endTime;\r\n  uint256 marketPair;\r\n\r\n  /* Market Live Data */\r\n  uint256 startPrice;\r\n  uint256 totalUsers;\r\n  uint256 totalStaked;\r\n  uint256 totalCommission;\r\n\r\n  /* Market Result Data */\r\n  uint256 endPrice;\r\n  uint256 totalReward;\r\n  uint256 winningOption;\r\n\r\n  /* Constants */\r\n  uint256 constant minStakeAmount = 1;\r\n  uint256 constant commissionPerc = 10; //with 2 decimals\r\n\r\n  /* External assets */\r\n  address constant ETH_ADDRESS = 0xEeeeeEeeeEeEeeEeEeEeeEEEeeeeEeeeeeeeEEeE;\r\n  address constant ASSET_ADDRESS = 0x4F96Fe3b7A6Cf9725f59d353F723c1bDb64CA6Aa;\r\n  IMarketRegistry marketRegistry;\r\n  IERC20 assetToken = IERC20(ASSET_ADDRESS);\r\n  \r\n  /* Predicting users */\r\n  struct UserData {\r\n    mapping(uint256 => uint256) assetStaked;\r\n    bool available;\r\n    bool claimedReward;\r\n    uint256 returnAmount;\r\n  }\r\n  mapping(address => UserData) internal userData;\r\n  mapping(uint256 => address) internal users;\r\n  \r\n  /* Predicting options */\r\n  enum Option {\r\n    Bullish,\r\n    Bearish\r\n  }\r\n  mapping(uint256 => uint256) internal optionStaked;\r\n  uint256 constant optionCnt = 2;\r\n\r\n  /**\r\n    * @dev Initialize the market.\r\n    * @param _startTime The time at which market will create.\r\n    * @param _duration The time duration of market.\r\n    * @param _marketPair The value pair of market.\r\n    * @param registry The address of market registry.\r\n    */\r\n  function initiate(uint256 _startTime, uint256 _duration, uint256 _marketPair, address registry) external onlyOwner {\r\n    require(startTime == 0, \"Already initialized\");\r\n    require(_startTime.add(_duration) > block.timestamp);\r\n\r\n    startTime = _startTime;\r\n    midTime = _startTime.add(_duration);\r\n    endTime = midTime.add(_duration);\r\n    marketPair = _marketPair;\r\n    marketRegistry = IMarketRegistry(registry);\r\n\r\n    winningOption = optionCnt;\r\n    marketRegistry.registerMarket();\r\n  }\r\n  \r\n  /**\r\n    * @dev Start market\r\n    */\r\n  function startMarket() external onlyOwner returns (uint256 _roundId, uint256 _startPrice) {\r\n    require(startPrice == 0, \"Market already started\");\r\n    require(startTime <= block.timestamp, \"It's not yet start time\");\r\n\r\n    startPrice = marketRegistry.getPairPrice(startTime, marketPair);\r\n    emit MarketStarted(startPrice);\r\n    _roundId = roundId;\r\n    _startPrice = startPrice;\r\n  }\r\n\r\n  /**\r\n    * @dev Place prediction on the available options of the market.\r\n    * @param _stakeAmount The amount staked by user at the time of prediction.\r\n    * @param _option The option on which user placed prediction.\r\n    */\r\n  function placePrediction(uint256 _stakeAmount, uint256 _option) external payable {\r\n    require(_option < optionCnt, \"Option is invalid\");\r\n    require(block.timestamp >= startTime, \"Market has not started yet\");\r\n    require(block.timestamp <= midTime, \"Market prediction has expried.\");\r\n    require(msg.value == 0, \"Not allowed transaction value.\");\r\n\r\n    assetToken.transferFrom(msg.sender, address(this), _stakeAmount);\r\n    uint256 commissionAmount = _calculatePercentage(commissionPerc, _stakeAmount, 10000);\r\n    uint256 realAmount = _stakeAmount.sub(commissionAmount);\r\n\r\n    require(realAmount > minStakeAmount, \"Too small amount\");\r\n    totalCommission = totalCommission.add(commissionAmount);\r\n    _storePredictionData(realAmount, _option);\r\n\r\n    uint256[] memory _optionStaked = new uint256[](optionCnt);\r\n    for (uint256 i = 0; i < optionCnt; i++) {\r\n      _optionStaked[i] = optionStaked[i];\r\n    }\r\n\r\n    emit PredictionDataUpdated(totalUsers, totalStaked, _optionStaked);\r\n  }\r\n    \r\n  /**\r\n    * @dev Stores the prediction data.\r\n    * @param _stakeAmount The amount staked by user at the time of prediction.\r\n    * @param _option The option on which user place prediction.\r\n    */\r\n  function _storePredictionData(uint256 _stakeAmount, uint256 _option) internal {\r\n    if (userData[msg.sender].available == false) {\r\n      userData[msg.sender].available = true;\r\n      users[totalUsers] = msg.sender;\r\n      totalUsers++;\r\n    }\r\n    userData[msg.sender].assetStaked[_option] = userData[msg.sender].assetStaked[_option].add(_stakeAmount);\r\n    optionStaked[_option] = optionStaked[_option].add(_stakeAmount);\r\n    totalStaked = totalStaked.add(_stakeAmount);\r\n  }\r\n  \r\n  /**\r\n    * @dev Settle the market, setting the winning option\r\n    */\r\n  function endMarket() external onlyOwner returns(uint256 _endPrice) {\r\n    require(endTime < block.timestamp, \"Market has not ended yet.\");\r\n    endPrice = marketRegistry.getPairPrice(endTime, marketPair);\r\n    _postResult();\r\n    emit MarketEnded(endPrice, winningOption);\r\n    _endPrice = endPrice;\r\n  }\r\n\r\n  /**\r\n    * @dev Calculate the result of market.\r\n    */\r\n  function _postResult() internal {\r\n    \r\n    uint256 i;\r\n\r\n    if(endPrice >= startPrice) {\r\n      winningOption = uint256(Option.Bullish);\r\n    } else {\r\n      winningOption = uint256(Option.Bearish);\r\n    }\r\n    if (optionStaked[winningOption] > 0) {\r\n      totalReward = totalStaked;\r\n    }\r\n    for (i = 0; i < totalUsers; i++) {\r\n      claimReturn(users[i]);\r\n    }\r\n  }\r\n\r\n  /**\r\n    * @dev Claim the return amount of the specified address.\r\n    * @param _user The address to query the claim return amount of.\r\n    * @return Flag, if 0:cannot claim, 1: Already Claimed, 2: Claimed\r\n    */\r\n  function claimReturn(address _user) public returns(uint256) {\r\n\r\n    if(userData[_user].claimedReward) {\r\n      return 1;\r\n    }\r\n    userData[_user].claimedReward = true;\r\n    uint256 _returnAmount = getReturn(_user);\r\n    if (_returnAmount > 0) {\r\n      _transferAsset(ASSET_ADDRESS, address(uint160(_user)), _returnAmount);\r\n    }\r\n    userData[_user].returnAmount = _returnAmount;\r\n    return 2;\r\n  }\r\n\r\n  /**\r\n    * @dev Transfer the assets to specified address.\r\n    * @param _asset The asset transfer to the specific address.\r\n    * @param _recipient The address to transfer the asset of\r\n    * @param _amount The amount which is transfer.\r\n    */\r\n  function _transferAsset(address _asset, address payable _recipient, uint256 _amount) internal {\r\n    if(_amount > 0) { \r\n      if(_asset == ETH_ADDRESS) {\r\n        _recipient.transfer(_amount);\r\n      } else {\r\n        require(IToken(_asset).transfer(_recipient, _amount));\r\n      }\r\n    }\r\n  }\r\n\r\n  /**\r\n  * @dev Gets the return amount of the specified address.\r\n  * @param _user The address to specify the return of\r\n  * @return returnAmount uint256 memory representing the return amount.\r\n  */\r\n  function getReturn(address _user) public view returns (uint256) {\r\n    if (optionStaked[winningOption] == 0) {\r\n      return 0;\r\n    }\r\n    else {\r\n      return userData[_user].assetStaked[winningOption].mul(totalReward).div(optionStaked[winningOption]);\r\n    }\r\n  }\r\n\r\n  /**\r\n  * @dev Gets the market data.\r\n  */\r\n  function getMarketData() public view \r\n    returns (\r\n      uint256 _startTime, uint256 _midTime, uint256 _endTime, uint256 _marketPair,\r\n      uint256 _startPrice, uint256 _endPrice,\r\n      uint256 _totalUsers, uint256 _totalStaked, \r\n      uint256 _totalReward, uint256 _winningOption\r\n    ) {\r\n    _startTime = startTime;\r\n    _midTime = midTime;\r\n    _endTime = endTime;\r\n    _marketPair = marketPair;\r\n    _startPrice = startPrice;\r\n    _endPrice = endPrice;\r\n    _totalUsers = totalUsers;\r\n    _totalStaked = totalStaked;\r\n    _totalReward = totalReward;\r\n    _winningOption = winningOption;\r\n  }\r\n\r\n  /**\r\n  * @dev Gets the prediction data.\r\n  */\r\n  function getPredictionData() public view returns (uint256 _totalUsers, uint256[] memory _totalStaked, uint256[] memory _userStaked) {\r\n    _totalStaked = new uint256[](optionCnt);\r\n    _userStaked = new uint256[](optionCnt);\r\n    _totalUsers = totalUsers;\r\n    uint256 i;\r\n    for(i = 0; i < optionCnt; i++) {\r\n      _totalStaked[i] = optionStaked[i];\r\n      if (userData[msg.sender].available)\r\n        _userStaked[i] = userData[msg.sender].assetStaked[i];\r\n    }\r\n  }\r\n\r\n  function _calculatePercentage(uint256 _percent, uint256 _value, uint256 _divisor) internal pure returns(uint256) {\r\n    return _percent.mul(_value).div(_divisor);\r\n  }\r\n\r\n  event MarketStarted (\r\n    uint256 startPrice\r\n  );\r\n\r\n  event PredictionDataUpdated (\r\n    uint256 totalUsers,\r\n    uint256 totalStaked,\r\n    uint256[] optionStaked\r\n  );\r\n\r\n  event MarketEnded (\r\n    uint256 endPrice,\r\n    uint256 winningOption\r\n  );\r\n}",
  "sourcePath": "E:/work/blockchain/prex/work/prex-smart-contracts/contracts/Market.sol",
  "compiler": {
    "name": "solc",
    "version": "0.5.7+commit.6da8b019.Emscripten.clang"
  },
  "schemaVersion": "3.3.3",
  "updatedAt": "2021-03-29T09:20:05.071Z",
  "devdoc": {
    "methods": {
      "claimReturn(address)": {
        "details": "Claim the return amount of the specified address.\r",
        "params": {
          "_user": "The address to query the claim return amount of.\r"
        },
        "return": "Flag, if 0:cannot claim, 1: Already Claimed, 2: Claimed\r"
      },
      "endMarket()": {
        "details": "Settle the market, setting the winning option\r"
      },
      "getMarketData()": {
        "details": "Gets the market data.\r"
      },
      "getPredictionData()": {
        "details": "Gets the prediction data.\r"
      },
      "getReturn(address)": {
        "details": "Gets the return amount of the specified address.\r",
        "params": {
          "_user": "The address to specify the return of\r"
        },
        "return": "returnAmount uint256 memory representing the return amount.\r"
      },
      "initiate(uint256,uint256,uint256,address)": {
        "details": "Initialize the market.\r",
        "params": {
          "_duration": "The time duration of market.\r",
          "_marketPair": "The value pair of market.\r",
          "_startTime": "The time at which market will create.\r",
          "registry": "The address of market registry.\r"
        }
      },
      "isOwner()": {
        "details": "Returns true if the caller is the current owner.\r"
      },
      "owner()": {
        "details": "Returns the address of the current owner.\r"
      },
      "placePrediction(uint256,uint256)": {
        "details": "Place prediction on the available options of the market.\r",
        "params": {
          "_option": "The option on which user placed prediction.\r",
          "_stakeAmount": "The amount staked by user at the time of prediction.\r"
        }
      },
      "renounceOwnership()": {
        "details": "Leaves the contract without owner. It will not be possible to call\r `onlyOwner` functions anymore. Can only be called by the current owner.\r      * > Note: Renouncing ownership will leave the contract without an owner,\r thereby removing any functionality that is only available to the owner.\r"
      },
      "startMarket()": {
        "details": "Start market\r"
      },
      "transferOwnership(address)": {
        "details": "Transfers ownership of the contract to a new account (`newOwner`).\r Can only be called by the current owner.\r"
      }
    }
  },
  "userdoc": {
    "methods": {}
  }
}