{
  "contractName": "Market",
  "abi": [
    {
      "constant": false,
      "inputs": [],
      "name": "renounceOwnership",
      "outputs": [],
      "payable": false,
      "stateMutability": "nonpayable",
      "type": "function"
    },
    {
      "constant": true,
      "inputs": [],
      "name": "owner",
      "outputs": [
        {
          "name": "",
          "type": "address"
        }
      ],
      "payable": false,
      "stateMutability": "view",
      "type": "function"
    },
    {
      "constant": true,
      "inputs": [],
      "name": "isOwner",
      "outputs": [
        {
          "name": "",
          "type": "bool"
        }
      ],
      "payable": false,
      "stateMutability": "view",
      "type": "function"
    },
    {
      "constant": true,
      "inputs": [],
      "name": "marketResult",
      "outputs": [
        {
          "name": "winningOption",
          "type": "uint256"
        },
        {
          "name": "totalReward",
          "type": "uint256"
        }
      ],
      "payable": false,
      "stateMutability": "view",
      "type": "function"
    },
    {
      "constant": true,
      "inputs": [],
      "name": "marketData",
      "outputs": [
        {
          "name": "startTime",
          "type": "uint256"
        },
        {
          "name": "predictionTime",
          "type": "uint256"
        },
        {
          "name": "endTime",
          "type": "uint256"
        },
        {
          "name": "neutralMinValue",
          "type": "uint256"
        },
        {
          "name": "neutralMaxValue",
          "type": "uint256"
        }
      ],
      "payable": false,
      "stateMutability": "view",
      "type": "function"
    },
    {
      "constant": true,
      "inputs": [],
      "name": "marketCurrency",
      "outputs": [
        {
          "name": "",
          "type": "bytes32"
        }
      ],
      "payable": false,
      "stateMutability": "view",
      "type": "function"
    },
    {
      "constant": false,
      "inputs": [
        {
          "name": "newOwner",
          "type": "address"
        }
      ],
      "name": "transferOwnership",
      "outputs": [],
      "payable": false,
      "stateMutability": "nonpayable",
      "type": "function"
    },
    {
      "anonymous": false,
      "inputs": [
        {
          "indexed": true,
          "name": "previousOwner",
          "type": "address"
        },
        {
          "indexed": true,
          "name": "newOwner",
          "type": "address"
        }
      ],
      "name": "OwnershipTransferred",
      "type": "event"
    },
    {
      "constant": false,
      "inputs": [
        {
          "name": "_startTime",
          "type": "uint256"
        },
        {
          "name": "_duration",
          "type": "uint256"
        },
        {
          "name": "_minValue",
          "type": "uint256"
        },
        {
          "name": "_maxValue",
          "type": "uint256"
        },
        {
          "name": "registry",
          "type": "address"
        }
      ],
      "name": "initiate",
      "outputs": [],
      "payable": true,
      "stateMutability": "payable",
      "type": "function"
    },
    {
      "constant": false,
      "inputs": [
        {
          "name": "_stakeAmount",
          "type": "uint256"
        },
        {
          "name": "_option",
          "type": "uint256"
        }
      ],
      "name": "placePrediction",
      "outputs": [],
      "payable": true,
      "stateMutability": "payable",
      "type": "function"
    },
    {
      "constant": false,
      "inputs": [],
      "name": "endMarket",
      "outputs": [],
      "payable": false,
      "stateMutability": "nonpayable",
      "type": "function"
    },
    {
      "constant": true,
      "inputs": [],
      "name": "getEndingPrice",
      "outputs": [
        {
          "name": "",
          "type": "uint256"
        }
      ],
      "payable": false,
      "stateMutability": "view",
      "type": "function"
    },
    {
      "constant": false,
      "inputs": [
        {
          "name": "_user",
          "type": "address"
        }
      ],
      "name": "claimReturn",
      "outputs": [
        {
          "name": "",
          "type": "uint256"
        }
      ],
      "payable": false,
      "stateMutability": "nonpayable",
      "type": "function"
    },
    {
      "constant": true,
      "inputs": [
        {
          "name": "_user",
          "type": "address"
        }
      ],
      "name": "getReturn",
      "outputs": [
        {
          "name": "",
          "type": "uint256"
        }
      ],
      "payable": false,
      "stateMutability": "view",
      "type": "function"
    },
    {
      "constant": true,
      "inputs": [],
      "name": "getPredictionData",
      "outputs": [
        {
          "name": "totalUsers",
          "type": "uint256"
        },
        {
          "name": "totalStaked",
          "type": "uint256[]"
        },
        {
          "name": "userStaked",
          "type": "uint256[]"
        }
      ],
      "payable": false,
      "stateMutability": "view",
      "type": "function"
    }
  ],
  "bytecode": "0x6080604052734f96fe3b7a6cf9725f59d353f723c1bdb64ca6aa600360006101000a81548173ffffffffffffffffffffffffffffffffffffffff021916908373ffffffffffffffffffffffffffffffffffffffff160217905550336000806101000a81548173ffffffffffffffffffffffffffffffffffffffff021916908373ffffffffffffffffffffffffffffffffffffffff1602179055506000809054906101000a900473ffffffffffffffffffffffffffffffffffffffff1673ffffffffffffffffffffffffffffffffffffffff16600073ffffffffffffffffffffffffffffffffffffffff167f8be0079c531659141344cd1fd0a4f28419497f9722a3daafe3b4186f6b6457e060405160405180910390a3611b6f806101246000396000f3fe6080604052600436106100fa576000357c010000000000000000000000000000000000000000000000000000000090048063923cbb7b1161009c578063b945b52711610076578063b945b52714610422578063c895b8eb14610469578063ddf8389b14610480578063f2fde38b146104ab576100fa565b8063923cbb7b146102c95780639287b3d514610335578063a4c4c0c114610367576100fa565b806361341f3f116100d857806361341f3f14610201578063715018a61461022c5780638da5cb5b146102435780638f32d59b1461029a576100fa565b80630cc9a606146100ff5780631ec0fd501461016457806339dafecf146101c9575b600080fd5b34801561010b57600080fd5b5061014e6004803603602081101561012257600080fd5b81019080803573ffffffffffffffffffffffffffffffffffffffff1690602001909291905050506104fc565b6040518082815260200191505060405180910390f35b34801561017057600080fd5b506101b36004803603602081101561018757600080fd5b81019080803573ffffffffffffffffffffffffffffffffffffffff16906020019092919050505061059f565b6040518082815260200191505060405180910390f35b6101ff600480360360408110156101df57600080fd5b810190808035906020019092919080359060200190929190505050610691565b005b34801561020d57600080fd5b5061021661086f565b6040518082815260200191505060405180910390f35b34801561023857600080fd5b50610241610ab2565b005b34801561024f57600080fd5b50610258610beb565b604051808273ffffffffffffffffffffffffffffffffffffffff1673ffffffffffffffffffffffffffffffffffffffff16815260200191505060405180910390f35b3480156102a657600080fd5b506102af610c14565b604051808215151515815260200191505060405180910390f35b610333600480360360a08110156102df57600080fd5b8101908080359060200190929190803590602001909291908035906020019092919080359060200190929190803573ffffffffffffffffffffffffffffffffffffffff169060200190929190505050610c6b565b005b34801561034157600080fd5b5061034a610ebe565b604051808381526020018281526020019250505060405180910390f35b34801561037357600080fd5b5061037c610ed0565b604051808481526020018060200180602001838103835285818151815260200191508051906020019060200280838360005b838110156103c95780820151818401526020810190506103ae565b50505050905001838103825284818151815260200191508051906020019060200280838360005b8381101561040b5780820151818401526020810190506103f0565b505050509050019550505050505060405180910390f35b34801561042e57600080fd5b50610437611017565b604051808681526020018581526020018481526020018381526020018281526020019550505050505060405180910390f35b34801561047557600080fd5b5061047e61103b565b005b34801561048c57600080fd5b506104956110de565b6040518082815260200191505060405180910390f35b3480156104b757600080fd5b506104fa600480360360208110156104ce57600080fd5b81019080803573ffffffffffffffffffffffffffffffffffffffff169060200190929190505050611102565b005b6000610598600e600060096000015481526020019081526020016000205461058a600960010154600d60008773ffffffffffffffffffffffffffffffffffffffff1673ffffffffffffffffffffffffffffffffffffffff168152602001908152602001600020600001600060096000015481526020019081526020016000205461118890919063ffffffff16565b61120e90919063ffffffff16565b9050919050565b6000600d60008373ffffffffffffffffffffffffffffffffffffffff1673ffffffffffffffffffffffffffffffffffffffff16815260200190815260200160002060010160009054906101000a900460ff16156105ff576001905061068c565b6001600d60008473ffffffffffffffffffffffffffffffffffffffff1673ffffffffffffffffffffffffffffffffffffffff16815260200190815260200160002060010160006101000a81548160ff0219169083151502179055506000610665836104fc565b9050610686734f96fe3b7a6cf9725f59d353f723c1bdb64ca6aa848361129d565b60029150505b919050565b600381111580156106a3575060018210155b6106ac57600080fd5b60046000015442101580156106c657506004600101544211155b6106cf57600080fd5b600034146106dc57600080fd5b600360009054906101000a900473ffffffffffffffffffffffffffffffffffffffff1673ffffffffffffffffffffffffffffffffffffffff166323b872dd3330856040518463ffffffff167c0100000000000000000000000000000000000000000000000000000000028152600401808473ffffffffffffffffffffffffffffffffffffffff1673ffffffffffffffffffffffffffffffffffffffff1681526020018373ffffffffffffffffffffffffffffffffffffffff1673ffffffffffffffffffffffffffffffffffffffff1681526020018281526020019350505050602060405180830381600087803b1580156107d557600080fd5b505af11580156107e9573d6000803e3d6000fd5b505050506040513d60208110156107ff57600080fd5b8101908080519060200190929190505050506000610821600a84612710611428565b90506108388160015461145890919063ffffffff16565b60018190555061085181846114e090919063ffffffff16565b92506000831161086057600080fd5b61086a8284611569565b505050565b6000426004600201541061088257600080fd5b6000806000806004600201549050739326bfa02add2366b30bacb125260af64103133173ffffffffffffffffffffffffffffffffffffffff1663feaf968c6040518163ffffffff167c010000000000000000000000000000000000000000000000000000000002815260040160a06040518083038186803b15801561090657600080fd5b505afa15801561091a573d6000803e3d6000fd5b505050506040513d60a081101561093057600080fd5b810190808051906020019092919080519060200190929190805190602001909291908051906020019092919080519060200190929190505050909150508094508196508295505050505b80821115610aa857828060019003935050739326bfa02add2366b30bacb125260af64103133173ffffffffffffffffffffffffffffffffffffffff16639a6fc8f5846040518263ffffffff167c0100000000000000000000000000000000000000000000000000000000028152600401808269ffffffffffffffffffff1669ffffffffffffffffffff16815260200191505060a06040518083038186803b158015610a2457600080fd5b505afa158015610a38573d6000803e3d6000fd5b505050506040513d60a0811015610a4e57600080fd5b81019080805190602001909291908051906020019092919080519060200190929190805190602001909291908051906020019092919050505090915050809450819650829550505050808211610aa357610aa8565b61097a565b8394505050505090565b610aba610c14565b610b2c576040517f08c379a00000000000000000000000000000000000000000000000000000000081526004018080602001828103825260208152602001807f4f776e61626c653a2063616c6c6572206973206e6f7420746865206f776e657281525060200191505060405180910390fd5b600073ffffffffffffffffffffffffffffffffffffffff166000809054906101000a900473ffffffffffffffffffffffffffffffffffffffff1673ffffffffffffffffffffffffffffffffffffffff167f8be0079c531659141344cd1fd0a4f28419497f9722a3daafe3b4186f6b6457e060405160405180910390a360008060006101000a81548173ffffffffffffffffffffffffffffffffffffffff021916908373ffffffffffffffffffffffffffffffffffffffff160217905550565b60008060009054906101000a900473ffffffffffffffffffffffffffffffffffffffff16905090565b60008060009054906101000a900473ffffffffffffffffffffffffffffffffffffffff1673ffffffffffffffffffffffffffffffffffffffff163373ffffffffffffffffffffffffffffffffffffffff1614905090565b610c73610c14565b610ce5576040517f08c379a00000000000000000000000000000000000000000000000000000000081526004018080602001828103825260208152602001807f4f776e61626c653a2063616c6c6572206973206e6f7420746865206f776e657281525060200191505060405180910390fd5b600060046000015414610d60576040517f08c379a00000000000000000000000000000000000000000000000000000000081526004018080602001828103825260138152602001807f416c726561647920696e697469616c697a65640000000000000000000000000081525060200191505060405180910390fd5b42610d74858761145890919063ffffffff16565b11610d7e57600080fd5b84600460000181905550610d9b848661145890919063ffffffff16565b600460010181905550610dbc8460046001015461145890919063ffffffff16565b6004600201819055508260046003018190555081600480018190555080600260006101000a81548173ffffffffffffffffffffffffffffffffffffffff021916908373ffffffffffffffffffffffffffffffffffffffff160217905550600260009054906101000a900473ffffffffffffffffffffffffffffffffffffffff1673ffffffffffffffffffffffffffffffffffffffff1663012088376040518163ffffffff167c0100000000000000000000000000000000000000000000000000000000028152600401600060405180830381600087803b158015610e9f57600080fd5b505af1158015610eb3573d6000803e3d6000fd5b505050505050505050565b60098060000154908060010154905082565b600060608060606003604051908082528060200260200182016040528015610f075781602001602082028038833980820191505090505b50905060606003604051908082528060200260200182016040528015610f3c5781602001602082028038833980820191505090505b50905060008090505b600381101561100657610f756003600e60008481526020019081526020016000205461145890919063ffffffff16565b838281518110610f8157fe5b602002602001018181525050600d60003373ffffffffffffffffffffffffffffffffffffffff1673ffffffffffffffffffffffffffffffffffffffff168152602001908152602001600020600001600082815260200190815260200160002054828281518110610fed57fe5b6020026020010181815250508080600101915050610f45565b858383955095509550505050909192565b60048060000154908060010154908060020154908060030154908060040154905085565b611043610c14565b6110b5576040517f08c379a00000000000000000000000000000000000000000000000000000000081526004018080602001828103825260208152602001807f4f776e61626c653a2063616c6c6572206973206e6f7420746865206f776e657281525060200191505060405180910390fd5b42600460020154106110c657600080fd5b60006110d061086f565b90506110db81611785565b50565b7f4554482f5553445400000000000000000000000000000000000000000000000081565b61110a610c14565b61117c576040517f08c379a00000000000000000000000000000000000000000000000000000000081526004018080602001828103825260208152602001807f4f776e61626c653a2063616c6c6572206973206e6f7420746865206f776e657281525060200191505060405180910390fd5b611185816119b8565b50565b60008083141561119b5760009050611208565b60008284029050828482816111ac57fe5b0414611203576040517f08c379a0000000000000000000000000000000000000000000000000000000008152600401808060200182810382526021815260200180611b236021913960400191505060405180910390fd5b809150505b92915050565b6000808211611285576040517f08c379a000000000000000000000000000000000000000000000000000000000815260040180806020018281038252601a8152602001807f536166654d6174683a206469766973696f6e206279207a65726f00000000000081525060200191505060405180910390fd5b600082848161129057fe5b0490508091505092915050565b60008111156114235773eeeeeeeeeeeeeeeeeeeeeeeeeeeeeeeeeeeeeeee73ffffffffffffffffffffffffffffffffffffffff168373ffffffffffffffffffffffffffffffffffffffff16141561133a578173ffffffffffffffffffffffffffffffffffffffff166108fc829081150290604051600060405180830381858888f19350505050158015611334573d6000803e3d6000fd5b50611422565b8273ffffffffffffffffffffffffffffffffffffffff1663a9059cbb83836040518363ffffffff167c0100000000000000000000000000000000000000000000000000000000028152600401808373ffffffffffffffffffffffffffffffffffffffff1673ffffffffffffffffffffffffffffffffffffffff16815260200182815260200192505050602060405180830381600087803b1580156113dd57600080fd5b505af11580156113f1573d6000803e3d6000fd5b505050506040513d602081101561140757600080fd5b810190808051906020019092919050505061142157600080fd5b5b5b505050565b600061144f82611441858761118890919063ffffffff16565b61120e90919063ffffffff16565b90509392505050565b6000808284019050838110156114d6576040517f08c379a000000000000000000000000000000000000000000000000000000000815260040180806020018281038252601b8152602001807f536166654d6174683a206164646974696f6e206f766572666c6f77000000000081525060200191505060405180910390fd5b8091505092915050565b600082821115611558576040517f08c379a000000000000000000000000000000000000000000000000000000000815260040180806020018281038252601e8152602001807f536166654d6174683a207375627472616374696f6e206f766572666c6f77000081525060200191505060405180910390fd5b600082840390508091505092915050565b60001515600d60003373ffffffffffffffffffffffffffffffffffffffff1673ffffffffffffffffffffffffffffffffffffffff16815260200190815260200160002060010160019054906101000a900460ff1615151415611687576001600d60003373ffffffffffffffffffffffffffffffffffffffff1673ffffffffffffffffffffffffffffffffffffffff16815260200190815260200160002060010160016101000a81548160ff02191690831515021790555033600c6000600b54815260200190815260200160002060006101000a81548173ffffffffffffffffffffffffffffffffffffffff021916908373ffffffffffffffffffffffffffffffffffffffff160217905550600b600081548092919060010191905055505b6116ed81600d60003373ffffffffffffffffffffffffffffffffffffffff1673ffffffffffffffffffffffffffffffffffffffff16815260200190815260200160002060000160008581526020019081526020016000205461145890919063ffffffff16565b600d60003373ffffffffffffffffffffffffffffffffffffffff1673ffffffffffffffffffffffffffffffffffffffff16815260200190815260200160002060000160008481526020019081526020016000208190555061176a81600e60008581526020019081526020016000205461145890919063ffffffff16565b600e6000848152602001908152602001600020819055505050565b42600460020154106117ff576040517f08c379a00000000000000000000000000000000000000000000000000000000081526004018080602001828103825260108152602001807f54696d65206e6f7420726561636865640000000000000000000000000000000081525060200191505060405180910390fd5b60008111611875576040517f08c379a000000000000000000000000000000000000000000000000000000000815260040180806020018281038252601e8152602001807f76616c75652073686f756c642062652067726561746572207468616e2030000081525060200191505060405180910390fd5b600060046003015482101561189f576000600281111561189157fe5b6009600001819055506118dd565b60048001548211156118c5576002808111156118b757fe5b6009600001819055506118dc565b600160028111156118d257fe5b6009600001819055505b5b6000600e6000600960000154815260200190815260200160002054111561195b57600090505b600381101561195a57600960000154811461194d57611943600e60008381526020019081526020016000205460096001015461145890919063ffffffff16565b6009600101819055505b8080600101915050611903565b5b600090505b600b548110156119b4576119a6600c600083815260200190815260200160002060009054906101000a900473ffffffffffffffffffffffffffffffffffffffff1661059f565b508080600101915050611960565b5050565b600073ffffffffffffffffffffffffffffffffffffffff168173ffffffffffffffffffffffffffffffffffffffff161415611a3e576040517f08c379a0000000000000000000000000000000000000000000000000000000008152600401808060200182810382526026815260200180611afd6026913960400191505060405180910390fd5b8073ffffffffffffffffffffffffffffffffffffffff166000809054906101000a900473ffffffffffffffffffffffffffffffffffffffff1673ffffffffffffffffffffffffffffffffffffffff167f8be0079c531659141344cd1fd0a4f28419497f9722a3daafe3b4186f6b6457e060405160405180910390a3806000806101000a81548173ffffffffffffffffffffffffffffffffffffffff021916908373ffffffffffffffffffffffffffffffffffffffff1602179055505056fe4f776e61626c653a206e6577206f776e657220697320746865207a65726f2061646472657373536166654d6174683a206d756c7469706c69636174696f6e206f766572666c6f77a165627a7a7230582060e7f988f0f4bc14bc12066d2c787ee5d5e96d198a145269550a3b5473f396bd0029",
  "source": "\r\npragma solidity 0.5.7;\r\n\r\nimport \"./external/openzeppelin-solidity/math/SafeMath.sol\";\r\nimport \"./external/openzeppelin-solidity/ownership/Ownable.sol\";\r\nimport \"./external/openzeppelin-solidity/token/ERC20/IERC20.sol\";\r\nimport \"./interfaces/IToken.sol\";\r\nimport \"./interfaces/IMarketRegistry.sol\";\r\nimport \"./interfaces/IChainLinkOracle.sol\";\r\n\r\ncontract Market is Ownable {\r\n  using SafeMath for *;\r\n\r\n  enum Option {\r\n    Bearish,\r\n    Neutral,\r\n    Boolish\r\n  }\r\n  \r\n  struct MarketData {\r\n    uint256 startTime;\r\n    uint256 predictionTime;\r\n    uint256 endTime;\r\n    uint256 neutralMinValue;\r\n    uint256 neutralMaxValue;\r\n  }\r\n\r\n  struct MarketResult {\r\n    uint256 winningOption;\r\n    uint256 totalReward;\r\n  }\r\n\r\n  struct UserData {\r\n    mapping(uint256 => uint256) assetStaked;\r\n    bool claimedReward;\r\n    bool available;\r\n  }\r\n    \r\n  bytes32 public constant marketCurrency = \"ETH/USDT\";\r\n  \r\n  address constant ETH_ADDRESS = 0xEeeeeEeeeEeEeeEeEeEeeEEEeeeeEeeeeeeeEEeE;\r\n  address constant PRICE_FEED_ADDRESS = 0x9326BFA02ADD2366b30bacB125260Af641031331;\r\n  address constant ASSET_ADDRESS = 0x4F96Fe3b7A6Cf9725f59d353F723c1bDb64CA6Aa;\r\n  uint256 constant MIN_STAKE_AMOUNT = 1;\r\n  uint256 constant COMMISSION_PERCENTAGE = 10; //with 2 decimals\r\n  uint256 constant totalOptions = 3;\r\n\r\n  uint256 totalCommissionAmount;\r\n\r\n  IMarketRegistry marketRegistry;\r\n  IERC20 assetToken = IERC20(ASSET_ADDRESS);\r\n  \r\n  MarketData public marketData;\r\n  MarketResult public marketResult;\r\n  uint256 totalUsers;\r\n  mapping(uint256 => address) internal users;\r\n  mapping(address => UserData) internal userData;\r\n  mapping(uint256 => uint256) internal optionsStaked;\r\n\r\n  /**\r\n    * @dev Initialize the market.\r\n    * @param _startTime The time at which market will create.\r\n    * @param _duration The time duration of market.\r\n    * @param _minValue The minimum value of neutral option range.\r\n    * @param _maxValue The maximum value of neutral option range.\r\n    */\r\n  function initiate(uint256 _startTime, uint256 _duration, uint256 _minValue, uint256 _maxValue, address registry) public payable onlyOwner {\r\n    require(marketData.startTime == 0, \"Already initialized\");\r\n    require(_startTime.add(_duration) > now);\r\n    marketData.startTime = _startTime;\r\n    marketData.predictionTime = _startTime.add(_duration);\r\n    marketData.endTime = marketData.predictionTime.add(_duration);\r\n    marketData.neutralMinValue = _minValue;\r\n    marketData.neutralMaxValue = _maxValue;\r\n    marketRegistry = IMarketRegistry(registry);\r\n    marketRegistry.registerMarket();\r\n  }\r\n\r\n  /**\r\n    * @dev Place prediction on the available options of the market.\r\n    * @param _stakeAmount The amount staked by user at the time of prediction.\r\n    * @param _option The option on which user placed prediction.\r\n    */\r\n  function placePrediction(uint256 _stakeAmount, uint256 _option) public payable {\r\n    require(_option <= totalOptions && _stakeAmount >= MIN_STAKE_AMOUNT);\r\n    require(now >= marketData.startTime && now <= marketData.predictionTime);\r\n\r\n    require(msg.value == 0);\r\n    assetToken.transferFrom(msg.sender, address(this), _stakeAmount);\r\n    uint256 commissionAmount = _calculatePercentage(COMMISSION_PERCENTAGE, _stakeAmount, 10000);\r\n    totalCommissionAmount = totalCommissionAmount.add(commissionAmount);\r\n    _stakeAmount = _stakeAmount.sub(commissionAmount);\r\n\r\n    require(_stakeAmount > 0);\r\n\r\n    _storePredictionData(_option, _stakeAmount);\r\n  }\r\n  \r\n  /**\r\n    * @dev Calculate the result of market.\r\n    * @param _value The current price of market currency.\r\n    */\r\n  function _postResult(uint256 _value) internal {\r\n    require(marketData.endTime < now, \"Time not reached\");\r\n    require(_value > 0,\"value should be greater than 0\");\r\n    \r\n    uint256 i;\r\n\r\n    if(_value < marketData.neutralMinValue) {\r\n      marketResult.winningOption = uint256(Option.Bearish);\r\n    } else if(_value > marketData.neutralMaxValue) {\r\n      marketResult.winningOption = uint256(Option.Boolish);\r\n    } else {\r\n      marketResult.winningOption = uint256(Option.Neutral);\r\n    }\r\n    if (optionsStaked[marketResult.winningOption] > 0) {\r\n      for(i = 0; i < totalOptions; i++){\r\n        if(i != marketResult.winningOption) {\r\n          marketResult.totalReward = marketResult.totalReward.add(optionsStaked[i]);\r\n        }\r\n      }\r\n    }\r\n    for (i = 0; i < totalUsers; i++) {\r\n      claimReturn(users[i]);\r\n    }\r\n  }\r\n\r\n  function _calculatePercentage(uint256 _percent, uint256 _value, uint256 _divisor) internal pure returns(uint256) {\r\n    return _percent.mul(_value).div(_divisor);\r\n  }\r\n\r\n  /**\r\n    * @dev Stores the prediction data.\r\n    * @param _option The option on which user place prediction.\r\n    * @param _stakeAmount The amount staked by user at the time of prediction.\r\n    */\r\n  function _storePredictionData(uint256 _option, uint256 _stakeAmount) internal {\r\n    if (userData[msg.sender].available == false) {\r\n      userData[msg.sender].available = true;\r\n      users[totalUsers] = msg.sender;\r\n      totalUsers++;\r\n    }\r\n    userData[msg.sender].assetStaked[_option] = userData[msg.sender].assetStaked[_option].add(_stakeAmount);\r\n    optionsStaked[_option] = optionsStaked[_option].add(_stakeAmount);\r\n  }\r\n  \r\n  /**\r\n    * @dev Settle the market, setting the winning option\r\n    */\r\n  function endMarket() external onlyOwner {\r\n    require(marketData.endTime < now);\r\n    uint256 _value = getEndingPrice();\r\n    _postResult(_value);\r\n  }\r\n\r\n  /**\r\n    * @dev Get price of provided feed address\r\n    **/\r\n  function getEndingPrice() public view returns (uint256) {\r\n    require(marketData.endTime < now);\r\n    int256 currentRoundAnswer;\r\n    uint80 currentRoundId;\r\n    uint256 currentRoundTime;\r\n    uint256 endTime = marketData.endTime;\r\n    (currentRoundId, currentRoundAnswer, , currentRoundTime, )= IChainLinkOracle(PRICE_FEED_ADDRESS).latestRoundData();\r\n    while(currentRoundTime > endTime) {\r\n      currentRoundId--;\r\n      (currentRoundId, currentRoundAnswer, , currentRoundTime, )= IChainLinkOracle(PRICE_FEED_ADDRESS).getRoundData(currentRoundId);\r\n      if(currentRoundTime <= endTime) {\r\n        break;\r\n      }\r\n    }\r\n    return uint256(currentRoundAnswer);\r\n  }\r\n\r\n  /**\r\n    * @dev Claim the return amount of the specified address.\r\n    * @param _user The address to query the claim return amount of.\r\n    * @return Flag, if 0:cannot claim, 1: Already Claimed, 2: Claimed\r\n    */\r\n  function claimReturn(address _user) public returns(uint256) {\r\n\r\n    if(userData[_user].claimedReward) {\r\n      return 1;\r\n    }\r\n    userData[_user].claimedReward = true;\r\n    uint256 _returnAmount = getReturn(_user);\r\n    _transferAsset(ASSET_ADDRESS, address(uint160(_user)), _returnAmount);\r\n    return 2;\r\n  }\r\n\r\n  /**\r\n    * @dev Transfer the assets to specified address.\r\n    * @param _asset The asset transfer to the specific address.\r\n    * @param _recipient The address to transfer the asset of\r\n    * @param _amount The amount which is transfer.\r\n    */\r\n  function _transferAsset(address _asset, address payable _recipient, uint256 _amount) internal {\r\n    if(_amount > 0) { \r\n      if(_asset == ETH_ADDRESS) {\r\n        _recipient.transfer(_amount);\r\n      } else {\r\n        require(IToken(_asset).transfer(_recipient, _amount));\r\n      }\r\n    }\r\n  }\r\n\r\n  /**\r\n  * @dev Gets the return amount of the specified address.\r\n  * @param _user The address to specify the return of\r\n  * @return returnAmount uint256 memory representing the return amount.\r\n  */\r\n  function getReturn(address _user) public view returns (uint256) {\r\n    return userData[_user].assetStaked[marketResult.winningOption].mul(marketResult.totalReward).div(optionsStaked[marketResult.winningOption]);\r\n  }\r\n\r\n  function getPredictionData() public view returns (uint256 totalUsers, uint256[] memory totalStaked, uint256[] memory userStaked) {\r\n    uint256[] memory totalStaked = new uint256[](totalOptions);\r\n    uint256[] memory userStaked = new uint256[](totalOptions);\r\n    uint256 i;\r\n    for(i = 0; i < totalOptions; i++) {\r\n      totalStaked[i] = optionsStaked[i].add(3);\r\n      userStaked[i] = userData[msg.sender].assetStaked[i];\r\n    }\r\n    return (totalUsers, totalStaked, userStaked);\r\n  }\r\n}",
  "sourcePath": "E:/work/blockchain/prex/work/prex-smart-contracts/contracts/Market.sol",
  "compiler": {
    "name": "solc",
    "version": "0.5.7+commit.6da8b019.Emscripten.clang"
  },
  "schemaVersion": "3.3.3",
  "updatedAt": "2021-03-09T09:27:46.401Z",
  "networkType": "ethereum",
  "devdoc": {
    "methods": {
      "claimReturn(address)": {
        "details": "Claim the return amount of the specified address.\r",
        "params": {
          "_user": "The address to query the claim return amount of.\r"
        },
        "return": "Flag, if 0:cannot claim, 1: Already Claimed, 2: Claimed\r"
      },
      "endMarket()": {
        "details": "Settle the market, setting the winning option\r"
      },
      "getEndingPrice()": {
        "details": "Get price of provided feed address\r*"
      },
      "getReturn(address)": {
        "details": "Gets the return amount of the specified address.\r",
        "params": {
          "_user": "The address to specify the return of\r"
        },
        "return": "returnAmount uint256 memory representing the return amount.\r"
      },
      "initiate(uint256,uint256,uint256,uint256,address)": {
        "details": "Initialize the market.\r",
        "params": {
          "_duration": "The time duration of market.\r",
          "_maxValue": "The maximum value of neutral option range.\r",
          "_minValue": "The minimum value of neutral option range.\r",
          "_startTime": "The time at which market will create.\r"
        }
      },
      "isOwner()": {
        "details": "Returns true if the caller is the current owner.\r"
      },
      "owner()": {
        "details": "Returns the address of the current owner.\r"
      },
      "placePrediction(uint256,uint256)": {
        "details": "Place prediction on the available options of the market.\r",
        "params": {
          "_option": "The option on which user placed prediction.\r",
          "_stakeAmount": "The amount staked by user at the time of prediction.\r"
        }
      },
      "renounceOwnership()": {
        "details": "Leaves the contract without owner. It will not be possible to call\r `onlyOwner` functions anymore. Can only be called by the current owner.\r      * > Note: Renouncing ownership will leave the contract without an owner,\r thereby removing any functionality that is only available to the owner.\r"
      },
      "transferOwnership(address)": {
        "details": "Transfers ownership of the contract to a new account (`newOwner`).\r Can only be called by the current owner.\r"
      }
    }
  },
  "userdoc": {
    "methods": {}
  }
}