{
  "contractName": "Market",
  "abi": [
    {
      "constant": false,
      "inputs": [],
      "name": "renounceOwnership",
      "outputs": [],
      "payable": false,
      "stateMutability": "nonpayable",
      "type": "function"
    },
    {
      "constant": true,
      "inputs": [],
      "name": "owner",
      "outputs": [
        {
          "name": "",
          "type": "address"
        }
      ],
      "payable": false,
      "stateMutability": "view",
      "type": "function"
    },
    {
      "constant": true,
      "inputs": [],
      "name": "isOwner",
      "outputs": [
        {
          "name": "",
          "type": "bool"
        }
      ],
      "payable": false,
      "stateMutability": "view",
      "type": "function"
    },
    {
      "constant": false,
      "inputs": [
        {
          "name": "newOwner",
          "type": "address"
        }
      ],
      "name": "transferOwnership",
      "outputs": [],
      "payable": false,
      "stateMutability": "nonpayable",
      "type": "function"
    },
    {
      "inputs": [
        {
          "name": "_marketPair",
          "type": "uint256"
        },
        {
          "name": "_roundId",
          "type": "uint256"
        },
        {
          "name": "_startTime",
          "type": "uint256"
        },
        {
          "name": "_duration",
          "type": "uint256"
        }
      ],
      "payable": false,
      "stateMutability": "nonpayable",
      "type": "constructor"
    },
    {
      "anonymous": false,
      "inputs": [
        {
          "indexed": false,
          "name": "startPrice",
          "type": "uint256"
        }
      ],
      "name": "MarketStarted",
      "type": "event"
    },
    {
      "anonymous": false,
      "inputs": [
        {
          "indexed": false,
          "name": "totalUsers",
          "type": "uint256"
        },
        {
          "indexed": false,
          "name": "totalStaked",
          "type": "uint256"
        },
        {
          "indexed": false,
          "name": "optionStaked",
          "type": "uint256[]"
        }
      ],
      "name": "PredictionDataUpdated",
      "type": "event"
    },
    {
      "anonymous": false,
      "inputs": [
        {
          "indexed": false,
          "name": "endPrice",
          "type": "uint256"
        },
        {
          "indexed": false,
          "name": "winningOption",
          "type": "uint256"
        }
      ],
      "name": "MarketEnded",
      "type": "event"
    },
    {
      "anonymous": false,
      "inputs": [
        {
          "indexed": true,
          "name": "previousOwner",
          "type": "address"
        },
        {
          "indexed": true,
          "name": "newOwner",
          "type": "address"
        }
      ],
      "name": "OwnershipTransferred",
      "type": "event"
    },
    {
      "constant": false,
      "inputs": [],
      "name": "startMarket",
      "outputs": [
        {
          "name": "_roundId",
          "type": "uint256"
        },
        {
          "name": "_startPrice",
          "type": "uint256"
        }
      ],
      "payable": false,
      "stateMutability": "nonpayable",
      "type": "function"
    },
    {
      "constant": false,
      "inputs": [
        {
          "name": "_stakeAmount",
          "type": "uint256"
        },
        {
          "name": "_option",
          "type": "uint256"
        }
      ],
      "name": "placePrediction",
      "outputs": [],
      "payable": true,
      "stateMutability": "payable",
      "type": "function"
    },
    {
      "constant": false,
      "inputs": [],
      "name": "endMarket",
      "outputs": [
        {
          "name": "_endPrice",
          "type": "uint256"
        }
      ],
      "payable": false,
      "stateMutability": "nonpayable",
      "type": "function"
    },
    {
      "constant": false,
      "inputs": [
        {
          "name": "_user",
          "type": "address"
        }
      ],
      "name": "claimReturn",
      "outputs": [
        {
          "name": "",
          "type": "uint256"
        }
      ],
      "payable": false,
      "stateMutability": "nonpayable",
      "type": "function"
    },
    {
      "constant": true,
      "inputs": [
        {
          "name": "_user",
          "type": "address"
        }
      ],
      "name": "getReturn",
      "outputs": [
        {
          "name": "",
          "type": "uint256"
        }
      ],
      "payable": false,
      "stateMutability": "view",
      "type": "function"
    },
    {
      "constant": true,
      "inputs": [],
      "name": "getMarketData",
      "outputs": [
        {
          "name": "_roundId",
          "type": "uint256"
        },
        {
          "name": "_startTime",
          "type": "uint256"
        },
        {
          "name": "_midTime",
          "type": "uint256"
        },
        {
          "name": "_endTime",
          "type": "uint256"
        },
        {
          "name": "_marketPair",
          "type": "uint256"
        },
        {
          "name": "_startPrice",
          "type": "uint256"
        },
        {
          "name": "_endPrice",
          "type": "uint256"
        },
        {
          "name": "_totalUsers",
          "type": "uint256"
        },
        {
          "name": "_totalStaked",
          "type": "uint256"
        },
        {
          "name": "_totalReward",
          "type": "uint256"
        },
        {
          "name": "_winningOption",
          "type": "uint256"
        }
      ],
      "payable": false,
      "stateMutability": "view",
      "type": "function"
    },
    {
      "constant": true,
      "inputs": [],
      "name": "getPredictionData",
      "outputs": [
        {
          "name": "_totalUsers",
          "type": "uint256"
        },
        {
          "name": "_totalStaked",
          "type": "uint256[]"
        },
        {
          "name": "_userStaked",
          "type": "uint256[]"
        }
      ],
      "payable": false,
      "stateMutability": "view",
      "type": "function"
    }
  ],
  "bytecode": "0x6080604052734f96fe3b7a6cf9725f59d353f723c1bdb64ca6aa600e60006101000a81548173ffffffffffffffffffffffffffffffffffffffff021916908373ffffffffffffffffffffffffffffffffffffffff1602179055503480156200006657600080fd5b5060405160808062001f6a833981018060405260808110156200008857600080fd5b8101908080519060200190929190805190602001909291908051906020019092919080519060200190929190505050336000806101000a81548173ffffffffffffffffffffffffffffffffffffffff021916908373ffffffffffffffffffffffffffffffffffffffff1602179055506000809054906101000a900473ffffffffffffffffffffffffffffffffffffffff1673ffffffffffffffffffffffffffffffffffffffff16600073ffffffffffffffffffffffffffffffffffffffff167f8be0079c531659141344cd1fd0a4f28419497f9722a3daafe3b4186f6b6457e060405160405180910390a3426200019782846200025e6401000000000262001741179091906401000000009004565b11620001a257600080fd5b826001819055508360058190555081600281905550620001da81836200025e6401000000000262001741179091906401000000009004565b60038190555062000205816003546200025e6401000000000262001741179091906401000000009004565b60048190555033600d60006101000a81548173ffffffffffffffffffffffffffffffffffffffff021916908373ffffffffffffffffffffffffffffffffffffffff1602179055506002600c8190555050505050620002e7565b600080828401905083811015620002dd576040517f08c379a000000000000000000000000000000000000000000000000000000000815260040180806020018281038252601b8152602001807f536166654d6174683a206164646974696f6e206f766572666c6f77000000000081525060200191505060405180910390fd5b8091505092915050565b611c7380620002f76000396000f3fe6080604052600436106100b9576000357c0100000000000000000000000000000000000000000000000000000000900480637b4afd65116100815780637b4afd65146102485780638da5cb5b1461027a5780638f32d59b146102d1578063a4c4c0c114610300578063c895b8eb146103bb578063f2fde38b146103e6576100b9565b80630cc9a606146100be5780631ec0fd501461012357806339dafecf146101885780634d96264c146101c0578063715018a614610231575b600080fd5b3480156100ca57600080fd5b5061010d600480360360208110156100e157600080fd5b81019080803573ffffffffffffffffffffffffffffffffffffffff169060200190929190505050610437565b6040518082815260200191505060405180910390f35b34801561012f57600080fd5b506101726004803603602081101561014657600080fd5b81019080803573ffffffffffffffffffffffffffffffffffffffff1690602001909291905050506104f8565b6040518082815260200191505060405180910390f35b6101be6004803603604081101561019e57600080fd5b81019080803590602001909291908035906020019092919050505061063b565b005b3480156101cc57600080fd5b506101d5610b21565b604051808c81526020018b81526020018a81526020018981526020018881526020018781526020018681526020018581526020018481526020018381526020018281526020019b50505050505050505050505060405180910390f35b34801561023d57600080fd5b50610246610b76565b005b34801561025457600080fd5b5061025d610caf565b604051808381526020018281526020019250505060405180910390f35b34801561028657600080fd5b5061028f610f40565b604051808273ffffffffffffffffffffffffffffffffffffffff1673ffffffffffffffffffffffffffffffffffffffff16815260200191505060405180910390f35b3480156102dd57600080fd5b506102e6610f69565b604051808215151515815260200191505060405180910390f35b34801561030c57600080fd5b50610315610fc0565b604051808481526020018060200180602001838103835285818151815260200191508051906020019060200280838360005b83811015610362578082015181840152602081019050610347565b50505050905001838103825284818151815260200191508051906020019060200280838360005b838110156103a4578082015181840152602081019050610389565b505050509050019550505050505060405180910390f35b3480156103c757600080fd5b506103d0611140565b6040518082815260200191505060405180910390f35b3480156103f257600080fd5b506104356004803603602081101561040957600080fd5b81019080803573ffffffffffffffffffffffffffffffffffffffff169060200190929190505050611362565b005b60008060116000600c54815260200190815260200160002054141561045f57600090506104f3565b6104f060116000600c548152602001908152602001600020546104e2600b54600f60008773ffffffffffffffffffffffffffffffffffffffff1673ffffffffffffffffffffffffffffffffffffffff1681526020019081526020016000206000016000600c548152602001908152602001600020546113e890919063ffffffff16565b61146e90919063ffffffff16565b90505b919050565b6000600f60008373ffffffffffffffffffffffffffffffffffffffff1673ffffffffffffffffffffffffffffffffffffffff16815260200190815260200160002060010160019054906101000a900460ff16156105585760019050610636565b6001600f60008473ffffffffffffffffffffffffffffffffffffffff1673ffffffffffffffffffffffffffffffffffffffff16815260200190815260200160002060010160016101000a81548160ff02191690831515021790555060006105be83610437565b905060008111156105e9576105e8734f96fe3b7a6cf9725f59d353f723c1bdb64ca6aa84836114fd565b5b80600f60008573ffffffffffffffffffffffffffffffffffffffff1673ffffffffffffffffffffffffffffffffffffffff1681526020019081526020016000206002018190555060029150505b919050565b600281106106b1576040517f08c379a00000000000000000000000000000000000000000000000000000000081526004018080602001828103825260118152602001807f4f7074696f6e20697320696e76616c696400000000000000000000000000000081525060200191505060405180910390fd5b600254421015610729576040517f08c379a000000000000000000000000000000000000000000000000000000000815260040180806020018281038252601a8152602001807f4d61726b657420686173206e6f7420737461727465642079657400000000000081525060200191505060405180910390fd5b6003544211156107a1576040517f08c379a000000000000000000000000000000000000000000000000000000000815260040180806020018281038252601e8152602001807f4d61726b65742070726564696374696f6e2068617320657870726965642e000081525060200191505060405180910390fd5b60003414610817576040517f08c379a000000000000000000000000000000000000000000000000000000000815260040180806020018281038252601e8152602001807f4e6f7420616c6c6f776564207472616e73616374696f6e2076616c75652e000081525060200191505060405180910390fd5b600e60009054906101000a900473ffffffffffffffffffffffffffffffffffffffff1673ffffffffffffffffffffffffffffffffffffffff166323b872dd3330856040518463ffffffff167c0100000000000000000000000000000000000000000000000000000000028152600401808473ffffffffffffffffffffffffffffffffffffffff1673ffffffffffffffffffffffffffffffffffffffff1681526020018373ffffffffffffffffffffffffffffffffffffffff1673ffffffffffffffffffffffffffffffffffffffff1681526020018281526020019350505050602060405180830381600087803b15801561091057600080fd5b505af1158015610924573d6000803e3d6000fd5b505050506040513d602081101561093a57600080fd5b810190808051906020019092919050505050600061095c600a84612710611688565b9050600061097382856116b890919063ffffffff16565b9050600181116109eb576040517f08c379a00000000000000000000000000000000000000000000000000000000081526004018080602001828103825260108152602001807f546f6f20736d616c6c20616d6f756e740000000000000000000000000000000081525060200191505060405180910390fd5b610a008260095461174190919063ffffffff16565b600981905550610a1081846117c9565b60606002604051908082528060200260200182016040528015610a425781602001602082028038833980820191505090505b50905060008090505b6002811015610a8d576011600082815260200190815260200160002054828281518110610a7457fe5b6020026020010181815250508080600101915050610a4b565b507fb334273605c204cf6376016800f20571b4fc05126b62405f64c9170a874d746b600754600854836040518084815260200183815260200180602001828103825283818151815260200191508051906020019060200280838360005b83811015610b05578082015181840152602081019050610aea565b5050505090500194505050505060405180910390a15050505050565b60008060008060008060008060008060006001549a5060025499506003549850600454975060055496506006549550600a54945060075493506008549250600b549150600c549050909192939495969798999a565b610b7e610f69565b610bf0576040517f08c379a00000000000000000000000000000000000000000000000000000000081526004018080602001828103825260208152602001807f4f776e61626c653a2063616c6c6572206973206e6f7420746865206f776e657281525060200191505060405180910390fd5b600073ffffffffffffffffffffffffffffffffffffffff166000809054906101000a900473ffffffffffffffffffffffffffffffffffffffff1673ffffffffffffffffffffffffffffffffffffffff167f8be0079c531659141344cd1fd0a4f28419497f9722a3daafe3b4186f6b6457e060405160405180910390a360008060006101000a81548173ffffffffffffffffffffffffffffffffffffffff021916908373ffffffffffffffffffffffffffffffffffffffff160217905550565b600080610cba610f69565b610d2c576040517f08c379a00000000000000000000000000000000000000000000000000000000081526004018080602001828103825260208152602001807f4f776e61626c653a2063616c6c6572206973206e6f7420746865206f776e657281525060200191505060405180910390fd5b600060065414610da4576040517f08c379a00000000000000000000000000000000000000000000000000000000081526004018080602001828103825260168152602001807f4d61726b657420616c726561647920737461727465640000000000000000000081525060200191505060405180910390fd5b426002541115610e1c576040517f08c379a00000000000000000000000000000000000000000000000000000000081526004018080602001828103825260178152602001807f49742773206e6f74207965742073746172742074696d6500000000000000000081525060200191505060405180910390fd5b600d60009054906101000a900473ffffffffffffffffffffffffffffffffffffffff1673ffffffffffffffffffffffffffffffffffffffff16628332c96002546005546040518363ffffffff167c01000000000000000000000000000000000000000000000000000000000281526004018083815260200182815260200192505050602060405180830381600087803b158015610eb857600080fd5b505af1158015610ecc573d6000803e3d6000fd5b505050506040513d6020811015610ee257600080fd5b81019080805190602001909291905050506006819055507f1ece2930141f47e70caa2bb9a47bba6ec04db6cba706c9b5ce82a137ada0baf26006546040518082815260200191505060405180910390a1600154915060065490509091565b60008060009054906101000a900473ffffffffffffffffffffffffffffffffffffffff16905090565b60008060009054906101000a900473ffffffffffffffffffffffffffffffffffffffff1673ffffffffffffffffffffffffffffffffffffffff163373ffffffffffffffffffffffffffffffffffffffff1614905090565b60006060806002604051908082528060200260200182016040528015610ff55781602001602082028038833980820191505090505b50915060026040519080825280602002602001820160405280156110285781602001602082028038833980820191505090505b509050600754925060008090505b600281101561113a57601160008281526020019081526020016000205483828151811061105f57fe5b602002602001018181525050600f60003373ffffffffffffffffffffffffffffffffffffffff1673ffffffffffffffffffffffffffffffffffffffff16815260200190815260200160002060010160009054906101000a900460ff161561112d57600f60003373ffffffffffffffffffffffffffffffffffffffff1673ffffffffffffffffffffffffffffffffffffffff16815260200190815260200160002060000160008281526020019081526020016000205482828151811061112057fe5b6020026020010181815250505b8080600101915050611036565b50909192565b600061114a610f69565b6111bc576040517f08c379a00000000000000000000000000000000000000000000000000000000081526004018080602001828103825260208152602001807f4f776e61626c653a2063616c6c6572206973206e6f7420746865206f776e657281525060200191505060405180910390fd5b4260045410611233576040517f08c379a00000000000000000000000000000000000000000000000000000000081526004018080602001828103825260198152602001807f4d61726b657420686173206e6f7420656e646564207965742e0000000000000081525060200191505060405180910390fd5b600d60009054906101000a900473ffffffffffffffffffffffffffffffffffffffff1673ffffffffffffffffffffffffffffffffffffffff16628332c96004546005546040518363ffffffff167c01000000000000000000000000000000000000000000000000000000000281526004018083815260200182815260200192505050602060405180830381600087803b1580156112cf57600080fd5b505af11580156112e3573d6000803e3d6000fd5b505050506040513d60208110156112f957600080fd5b8101908080519060200190929190505050600a81905550611318611a00565b7e0b6feae4bec70344a7d0e99f4c0237adaaeee2fbb258266be400bd8612a332600a54600c54604051808381526020018281526020019250505060405180910390a1600a54905090565b61136a610f69565b6113dc576040517f08c379a00000000000000000000000000000000000000000000000000000000081526004018080602001828103825260208152602001807f4f776e61626c653a2063616c6c6572206973206e6f7420746865206f776e657281525060200191505060405180910390fd5b6113e581611abc565b50565b6000808314156113fb5760009050611468565b600082840290508284828161140c57fe5b0414611463576040517f08c379a0000000000000000000000000000000000000000000000000000000008152600401808060200182810382526021815260200180611c276021913960400191505060405180910390fd5b809150505b92915050565b60008082116114e5576040517f08c379a000000000000000000000000000000000000000000000000000000000815260040180806020018281038252601a8152602001807f536166654d6174683a206469766973696f6e206279207a65726f00000000000081525060200191505060405180910390fd5b60008284816114f057fe5b0490508091505092915050565b60008111156116835773eeeeeeeeeeeeeeeeeeeeeeeeeeeeeeeeeeeeeeee73ffffffffffffffffffffffffffffffffffffffff168373ffffffffffffffffffffffffffffffffffffffff16141561159a578173ffffffffffffffffffffffffffffffffffffffff166108fc829081150290604051600060405180830381858888f19350505050158015611594573d6000803e3d6000fd5b50611682565b8273ffffffffffffffffffffffffffffffffffffffff1663a9059cbb83836040518363ffffffff167c0100000000000000000000000000000000000000000000000000000000028152600401808373ffffffffffffffffffffffffffffffffffffffff1673ffffffffffffffffffffffffffffffffffffffff16815260200182815260200192505050602060405180830381600087803b15801561163d57600080fd5b505af1158015611651573d6000803e3d6000fd5b505050506040513d602081101561166757600080fd5b810190808051906020019092919050505061168157600080fd5b5b5b505050565b60006116af826116a185876113e890919063ffffffff16565b61146e90919063ffffffff16565b90509392505050565b600082821115611730576040517f08c379a000000000000000000000000000000000000000000000000000000000815260040180806020018281038252601e8152602001807f536166654d6174683a207375627472616374696f6e206f766572666c6f77000081525060200191505060405180910390fd5b600082840390508091505092915050565b6000808284019050838110156117bf576040517f08c379a000000000000000000000000000000000000000000000000000000000815260040180806020018281038252601b8152602001807f536166654d6174683a206164646974696f6e206f766572666c6f77000000000081525060200191505060405180910390fd5b8091505092915050565b60001515600f60003373ffffffffffffffffffffffffffffffffffffffff1673ffffffffffffffffffffffffffffffffffffffff16815260200190815260200160002060010160009054906101000a900460ff16151514156118e7576001600f60003373ffffffffffffffffffffffffffffffffffffffff1673ffffffffffffffffffffffffffffffffffffffff16815260200190815260200160002060010160006101000a81548160ff0219169083151502179055503360106000600754815260200190815260200160002060006101000a81548173ffffffffffffffffffffffffffffffffffffffff021916908373ffffffffffffffffffffffffffffffffffffffff1602179055506007600081548092919060010191905055505b61194d82600f60003373ffffffffffffffffffffffffffffffffffffffff1673ffffffffffffffffffffffffffffffffffffffff16815260200190815260200160002060000160008481526020019081526020016000205461174190919063ffffffff16565b600f60003373ffffffffffffffffffffffffffffffffffffffff1673ffffffffffffffffffffffffffffffffffffffff1681526020019081526020016000206000016000838152602001908152602001600020819055506119ca82601160008481526020019081526020016000205461174190919063ffffffff16565b60116000838152602001908152602001600020819055506119f68260085461174190919063ffffffff16565b6008819055505050565b6000600654600a5410611a255760006001811115611a1a57fe5b600c81905550611a38565b600180811115611a3157fe5b600c819055505b600060116000600c548152602001908152602001600020541115611a6057600854600b819055505b600090505b600754811015611ab957611aab6010600083815260200190815260200160002060009054906101000a900473ffffffffffffffffffffffffffffffffffffffff166104f8565b508080600101915050611a65565b50565b600073ffffffffffffffffffffffffffffffffffffffff168173ffffffffffffffffffffffffffffffffffffffff161415611b42576040517f08c379a0000000000000000000000000000000000000000000000000000000008152600401808060200182810382526026815260200180611c016026913960400191505060405180910390fd5b8073ffffffffffffffffffffffffffffffffffffffff166000809054906101000a900473ffffffffffffffffffffffffffffffffffffffff1673ffffffffffffffffffffffffffffffffffffffff167f8be0079c531659141344cd1fd0a4f28419497f9722a3daafe3b4186f6b6457e060405160405180910390a3806000806101000a81548173ffffffffffffffffffffffffffffffffffffffff021916908373ffffffffffffffffffffffffffffffffffffffff1602179055505056fe4f776e61626c653a206e6577206f776e657220697320746865207a65726f2061646472657373536166654d6174683a206d756c7469706c69636174696f6e206f766572666c6f77a165627a7a72305820b3bcbedfdfe3faf6ec58198af5287766b5db5661b630d9b095951d4b11a5a7b90029",
  "source": "\r\npragma solidity 0.5.7;\r\n\r\nimport \"./external/openzeppelin-solidity/math/SafeMath.sol\";\r\nimport \"./external/openzeppelin-solidity/ownership/Ownable.sol\";\r\nimport \"./external/openzeppelin-solidity/token/ERC20/IERC20.sol\";\r\nimport \"./interfaces/IToken.sol\";\r\nimport \"./interfaces/IMarketRegistry.sol\";\r\n\r\ncontract Market is Ownable {\r\n  using SafeMath for *;\r\n\r\n  uint256 roundId;\r\n  /* Market Creation Data */\r\n  uint256 startTime;\r\n  uint256 midTime;\r\n  uint256 endTime;\r\n  uint256 marketPair;\r\n\r\n  /* Market Live Data */\r\n  uint256 startPrice;\r\n  uint256 totalUsers;\r\n  uint256 totalStaked;\r\n  uint256 totalCommission;\r\n\r\n  /* Market Result Data */\r\n  uint256 endPrice;\r\n  uint256 totalReward;\r\n  uint256 winningOption;\r\n\r\n  /* Constants */\r\n  uint256 constant minStakeAmount = 1;\r\n  uint256 constant commissionPerc = 10; //with 2 decimals\r\n\r\n  /* External assets */\r\n  address constant ETH_ADDRESS = 0xEeeeeEeeeEeEeeEeEeEeeEEEeeeeEeeeeeeeEEeE;\r\n  address constant ASSET_ADDRESS = 0x4F96Fe3b7A6Cf9725f59d353F723c1bDb64CA6Aa;\r\n  IMarketRegistry marketRegistry;\r\n  IERC20 assetToken = IERC20(ASSET_ADDRESS);\r\n  \r\n  /* Predicting users */\r\n  struct UserData {\r\n    mapping(uint256 => uint256) assetStaked;\r\n    bool available;\r\n    bool claimedReward;\r\n    uint256 returnAmount;\r\n  }\r\n  mapping(address => UserData) internal userData;\r\n  mapping(uint256 => address) internal users;\r\n  \r\n  /* Predicting options */\r\n  enum Option {\r\n    Bullish,\r\n    Bearish\r\n  }\r\n  mapping(uint256 => uint256) internal optionStaked;\r\n  uint256 constant optionCnt = 2;\r\n\r\n  /**\r\n    * @dev Create a market.\r\n    * @param _marketPair The value pair of market.\r\n    * @param _roundId The round id of market.\r\n    * @param _startTime The time at which market will create.\r\n    * @param _duration The time duration of market.\r\n    */\r\n  constructor (uint256 _marketPair, uint256 _roundId, uint256 _startTime, uint256 _duration) public {\r\n    require(_startTime.add(_duration) > block.timestamp);\r\n\r\n    roundId = _roundId;\r\n    marketPair = _marketPair;\r\n    startTime = _startTime;\r\n    midTime = _startTime.add(_duration);\r\n    endTime = midTime.add(_duration);\r\n    marketRegistry = IMarketRegistry(msg.sender);\r\n\r\n    winningOption = optionCnt;\r\n  }\r\n  \r\n  /**\r\n    * @dev Start market\r\n    */\r\n  function startMarket() external onlyOwner returns (uint256 _roundId, uint256 _startPrice) {\r\n    require(startPrice == 0, \"Market already started\");\r\n    require(startTime <= block.timestamp, \"It's not yet start time\");\r\n\r\n    startPrice = marketRegistry.getPairPrice(startTime, marketPair);\r\n    emit MarketStarted(startPrice);\r\n    _roundId = roundId;\r\n    _startPrice = startPrice;\r\n  }\r\n\r\n  /**\r\n    * @dev Place prediction on the available options of the market.\r\n    * @param _stakeAmount The amount staked by user at the time of prediction.\r\n    * @param _option The option on which user placed prediction.\r\n    */\r\n  function placePrediction(uint256 _stakeAmount, uint256 _option) external payable {\r\n    require(_option < optionCnt, \"Option is invalid\");\r\n    require(block.timestamp >= startTime, \"Market has not started yet\");\r\n    require(block.timestamp <= midTime, \"Market prediction has expried.\");\r\n    require(msg.value == 0, \"Not allowed transaction value.\");\r\n\r\n    assetToken.transferFrom(msg.sender, address(this), _stakeAmount);\r\n    uint256 commissionAmount = _calculatePercentage(commissionPerc, _stakeAmount, 10000);\r\n    uint256 realAmount = _stakeAmount.sub(commissionAmount);\r\n\r\n    require(realAmount > minStakeAmount, \"Too small amount\");\r\n    totalCommission = totalCommission.add(commissionAmount);\r\n    _storePredictionData(realAmount, _option);\r\n\r\n    uint256[] memory _optionStaked = new uint256[](optionCnt);\r\n    for (uint256 i = 0; i < optionCnt; i++) {\r\n      _optionStaked[i] = optionStaked[i];\r\n    }\r\n\r\n    emit PredictionDataUpdated(totalUsers, totalStaked, _optionStaked);\r\n  }\r\n    \r\n  /**\r\n    * @dev Stores the prediction data.\r\n    * @param _stakeAmount The amount staked by user at the time of prediction.\r\n    * @param _option The option on which user place prediction.\r\n    */\r\n  function _storePredictionData(uint256 _stakeAmount, uint256 _option) internal {\r\n    if (userData[msg.sender].available == false) {\r\n      userData[msg.sender].available = true;\r\n      users[totalUsers] = msg.sender;\r\n      totalUsers++;\r\n    }\r\n    userData[msg.sender].assetStaked[_option] = userData[msg.sender].assetStaked[_option].add(_stakeAmount);\r\n    optionStaked[_option] = optionStaked[_option].add(_stakeAmount);\r\n    totalStaked = totalStaked.add(_stakeAmount);\r\n  }\r\n  \r\n  /**\r\n    * @dev Settle the market, setting the winning option\r\n    */\r\n  function endMarket() external onlyOwner returns(uint256 _endPrice) {\r\n    require(endTime < block.timestamp, \"Market has not ended yet.\");\r\n    endPrice = marketRegistry.getPairPrice(endTime, marketPair);\r\n    _postResult();\r\n    emit MarketEnded(endPrice, winningOption);\r\n    _endPrice = endPrice;\r\n  }\r\n\r\n  /**\r\n    * @dev Calculate the result of market.\r\n    */\r\n  function _postResult() internal {\r\n    \r\n    uint256 i;\r\n\r\n    if(endPrice >= startPrice) {\r\n      winningOption = uint256(Option.Bullish);\r\n    } else {\r\n      winningOption = uint256(Option.Bearish);\r\n    }\r\n    if (optionStaked[winningOption] > 0) {\r\n      totalReward = totalStaked;\r\n    }\r\n    for (i = 0; i < totalUsers; i++) {\r\n      claimReturn(users[i]);\r\n    }\r\n  }\r\n\r\n  /**\r\n    * @dev Claim the return amount of the specified address.\r\n    * @param _user The address to query the claim return amount of.\r\n    * @return Flag, if 0:cannot claim, 1: Already Claimed, 2: Claimed\r\n    */\r\n  function claimReturn(address _user) public returns(uint256) {\r\n\r\n    if(userData[_user].claimedReward) {\r\n      return 1;\r\n    }\r\n    userData[_user].claimedReward = true;\r\n    uint256 _returnAmount = getReturn(_user);\r\n    if (_returnAmount > 0) {\r\n      _transferAsset(ASSET_ADDRESS, address(uint160(_user)), _returnAmount);\r\n    }\r\n    userData[_user].returnAmount = _returnAmount;\r\n    return 2;\r\n  }\r\n\r\n  /**\r\n    * @dev Transfer the assets to specified address.\r\n    * @param _asset The asset transfer to the specific address.\r\n    * @param _recipient The address to transfer the asset of\r\n    * @param _amount The amount which is transfer.\r\n    */\r\n  function _transferAsset(address _asset, address payable _recipient, uint256 _amount) internal {\r\n    if(_amount > 0) { \r\n      if(_asset == ETH_ADDRESS) {\r\n        _recipient.transfer(_amount);\r\n      } else {\r\n        require(IToken(_asset).transfer(_recipient, _amount));\r\n      }\r\n    }\r\n  }\r\n\r\n  /**\r\n  * @dev Gets the return amount of the specified address.\r\n  * @param _user The address to specify the return of\r\n  * @return returnAmount uint256 memory representing the return amount.\r\n  */\r\n  function getReturn(address _user) public view returns (uint256) {\r\n    if (optionStaked[winningOption] == 0) {\r\n      return 0;\r\n    }\r\n    else {\r\n      return userData[_user].assetStaked[winningOption].mul(totalReward).div(optionStaked[winningOption]);\r\n    }\r\n  }\r\n\r\n  /**\r\n  * @dev Gets the market data.\r\n  */\r\n  function getMarketData() public view \r\n    returns (\r\n      uint256 _roundId,\r\n      uint256 _startTime, uint256 _midTime, uint256 _endTime, uint256 _marketPair,\r\n      uint256 _startPrice, uint256 _endPrice,\r\n      uint256 _totalUsers, uint256 _totalStaked, \r\n      uint256 _totalReward, uint256 _winningOption\r\n    ) {\r\n    _roundId = roundId;\r\n    _startTime = startTime;\r\n    _midTime = midTime;\r\n    _endTime = endTime;\r\n    _marketPair = marketPair;\r\n    _startPrice = startPrice;\r\n    _endPrice = endPrice;\r\n    _totalUsers = totalUsers;\r\n    _totalStaked = totalStaked;\r\n    _totalReward = totalReward;\r\n    _winningOption = winningOption;\r\n  }\r\n\r\n  /**\r\n  * @dev Gets the prediction data.\r\n  */\r\n  function getPredictionData() public view returns (uint256 _totalUsers, uint256[] memory _totalStaked, uint256[] memory _userStaked) {\r\n    _totalStaked = new uint256[](optionCnt);\r\n    _userStaked = new uint256[](optionCnt);\r\n    _totalUsers = totalUsers;\r\n    uint256 i;\r\n    for(i = 0; i < optionCnt; i++) {\r\n      _totalStaked[i] = optionStaked[i];\r\n      if (userData[msg.sender].available)\r\n        _userStaked[i] = userData[msg.sender].assetStaked[i];\r\n    }\r\n  }\r\n\r\n  function _calculatePercentage(uint256 _percent, uint256 _value, uint256 _divisor) internal pure returns(uint256) {\r\n    return _percent.mul(_value).div(_divisor);\r\n  }\r\n\r\n  event MarketStarted (\r\n    uint256 startPrice\r\n  );\r\n\r\n  event PredictionDataUpdated (\r\n    uint256 totalUsers,\r\n    uint256 totalStaked,\r\n    uint256[] optionStaked\r\n  );\r\n\r\n  event MarketEnded (\r\n    uint256 endPrice,\r\n    uint256 winningOption\r\n  );\r\n}",
  "sourcePath": "E:\\work\\blockchain\\prex\\work\\prex-smart-contracts\\contracts\\Market.sol",
  "compiler": {
    "name": "solc",
    "version": "0.5.7+commit.6da8b019.Emscripten.clang"
  },
  "schemaVersion": "3.3.3",
  "updatedAt": "2021-03-31T09:58:10.233Z",
  "networkType": "ethereum",
  "devdoc": {
    "methods": {
      "claimReturn(address)": {
        "details": "Claim the return amount of the specified address.\r",
        "params": {
          "_user": "The address to query the claim return amount of.\r"
        },
        "return": "Flag, if 0:cannot claim, 1: Already Claimed, 2: Claimed\r"
      },
      "constructor": {
        "details": "Create a market.\r",
        "params": {
          "_duration": "The time duration of market.\r",
          "_marketPair": "The value pair of market.\r",
          "_roundId": "The round id of market.\r",
          "_startTime": "The time at which market will create.\r"
        }
      },
      "endMarket()": {
        "details": "Settle the market, setting the winning option\r"
      },
      "getMarketData()": {
        "details": "Gets the market data.\r"
      },
      "getPredictionData()": {
        "details": "Gets the prediction data.\r"
      },
      "getReturn(address)": {
        "details": "Gets the return amount of the specified address.\r",
        "params": {
          "_user": "The address to specify the return of\r"
        },
        "return": "returnAmount uint256 memory representing the return amount.\r"
      },
      "isOwner()": {
        "details": "Returns true if the caller is the current owner.\r"
      },
      "owner()": {
        "details": "Returns the address of the current owner.\r"
      },
      "placePrediction(uint256,uint256)": {
        "details": "Place prediction on the available options of the market.\r",
        "params": {
          "_option": "The option on which user placed prediction.\r",
          "_stakeAmount": "The amount staked by user at the time of prediction.\r"
        }
      },
      "renounceOwnership()": {
        "details": "Leaves the contract without owner. It will not be possible to call\r `onlyOwner` functions anymore. Can only be called by the current owner.\r      * > Note: Renouncing ownership will leave the contract without an owner,\r thereby removing any functionality that is only available to the owner.\r"
      },
      "startMarket()": {
        "details": "Start market\r"
      },
      "transferOwnership(address)": {
        "details": "Transfers ownership of the contract to a new account (`newOwner`).\r Can only be called by the current owner.\r"
      }
    }
  },
  "userdoc": {
    "methods": {}
  }
}