{
  "contractName": "Market",
  "abi": [
    {
      "constant": false,
      "inputs": [],
      "name": "renounceOwnership",
      "outputs": [],
      "payable": false,
      "stateMutability": "nonpayable",
      "type": "function"
    },
    {
      "constant": true,
      "inputs": [],
      "name": "owner",
      "outputs": [
        {
          "name": "",
          "type": "address"
        }
      ],
      "payable": false,
      "stateMutability": "view",
      "type": "function"
    },
    {
      "constant": true,
      "inputs": [],
      "name": "isOwner",
      "outputs": [
        {
          "name": "",
          "type": "bool"
        }
      ],
      "payable": false,
      "stateMutability": "view",
      "type": "function"
    },
    {
      "constant": true,
      "inputs": [],
      "name": "marketResult",
      "outputs": [
        {
          "name": "winningOption",
          "type": "uint256"
        },
        {
          "name": "totalReward",
          "type": "uint256"
        },
        {
          "name": "startPrice",
          "type": "uint256"
        },
        {
          "name": "endPrice",
          "type": "uint256"
        }
      ],
      "payable": false,
      "stateMutability": "view",
      "type": "function"
    },
    {
      "constant": true,
      "inputs": [],
      "name": "marketData",
      "outputs": [
        {
          "name": "startTime",
          "type": "uint256"
        },
        {
          "name": "predictionTime",
          "type": "uint256"
        },
        {
          "name": "endTime",
          "type": "uint256"
        },
        {
          "name": "neutralMinValue",
          "type": "uint256"
        },
        {
          "name": "neutralMaxValue",
          "type": "uint256"
        },
        {
          "name": "neutralRange",
          "type": "uint256"
        }
      ],
      "payable": false,
      "stateMutability": "view",
      "type": "function"
    },
    {
      "constant": true,
      "inputs": [],
      "name": "marketCurrency",
      "outputs": [
        {
          "name": "",
          "type": "bytes32"
        }
      ],
      "payable": false,
      "stateMutability": "view",
      "type": "function"
    },
    {
      "constant": false,
      "inputs": [
        {
          "name": "newOwner",
          "type": "address"
        }
      ],
      "name": "transferOwnership",
      "outputs": [],
      "payable": false,
      "stateMutability": "nonpayable",
      "type": "function"
    },
    {
      "anonymous": false,
      "inputs": [
        {
          "indexed": false,
          "name": "totalParticipants",
          "type": "uint256"
        },
        {
          "indexed": false,
          "name": "totalStaked",
          "type": "uint256[]"
        },
        {
          "indexed": false,
          "name": "userStaked",
          "type": "uint256[]"
        }
      ],
      "name": "PredictionDataUpdated",
      "type": "event"
    },
    {
      "anonymous": false,
      "inputs": [
        {
          "indexed": false,
          "name": "startPrice",
          "type": "uint256"
        },
        {
          "indexed": false,
          "name": "neutralMinValue",
          "type": "uint256"
        },
        {
          "indexed": false,
          "name": "neutralMaxValue",
          "type": "uint256"
        }
      ],
      "name": "MarketStarted",
      "type": "event"
    },
    {
      "anonymous": false,
      "inputs": [
        {
          "indexed": false,
          "name": "endPrice",
          "type": "uint256"
        },
        {
          "indexed": false,
          "name": "winningOption",
          "type": "uint256"
        }
      ],
      "name": "MarketEnded",
      "type": "event"
    },
    {
      "anonymous": false,
      "inputs": [
        {
          "indexed": true,
          "name": "previousOwner",
          "type": "address"
        },
        {
          "indexed": true,
          "name": "newOwner",
          "type": "address"
        }
      ],
      "name": "OwnershipTransferred",
      "type": "event"
    },
    {
      "constant": false,
      "inputs": [
        {
          "name": "_startTime",
          "type": "uint256"
        },
        {
          "name": "_duration",
          "type": "uint256"
        },
        {
          "name": "_neutralRange",
          "type": "uint256"
        },
        {
          "name": "registry",
          "type": "address"
        }
      ],
      "name": "initiate",
      "outputs": [],
      "payable": true,
      "stateMutability": "payable",
      "type": "function"
    },
    {
      "constant": false,
      "inputs": [
        {
          "name": "_stakeAmount",
          "type": "uint256"
        },
        {
          "name": "_option",
          "type": "uint256"
        }
      ],
      "name": "placePrediction",
      "outputs": [],
      "payable": true,
      "stateMutability": "payable",
      "type": "function"
    },
    {
      "constant": false,
      "inputs": [],
      "name": "endMarket",
      "outputs": [],
      "payable": false,
      "stateMutability": "nonpayable",
      "type": "function"
    },
    {
      "constant": true,
      "inputs": [
        {
          "name": "_time",
          "type": "uint256"
        }
      ],
      "name": "getPrice",
      "outputs": [
        {
          "name": "",
          "type": "uint256"
        }
      ],
      "payable": false,
      "stateMutability": "view",
      "type": "function"
    },
    {
      "constant": false,
      "inputs": [
        {
          "name": "_user",
          "type": "address"
        }
      ],
      "name": "claimReturn",
      "outputs": [
        {
          "name": "",
          "type": "uint256"
        }
      ],
      "payable": false,
      "stateMutability": "nonpayable",
      "type": "function"
    },
    {
      "constant": true,
      "inputs": [
        {
          "name": "_user",
          "type": "address"
        }
      ],
      "name": "getReturn",
      "outputs": [
        {
          "name": "",
          "type": "uint256"
        }
      ],
      "payable": false,
      "stateMutability": "view",
      "type": "function"
    },
    {
      "constant": true,
      "inputs": [],
      "name": "getPredictionData",
      "outputs": [
        {
          "name": "totalParticipants",
          "type": "uint256"
        },
        {
          "name": "totalStaked",
          "type": "uint256[]"
        },
        {
          "name": "userStaked",
          "type": "uint256[]"
        }
      ],
      "payable": false,
      "stateMutability": "view",
      "type": "function"
    },
    {
      "constant": true,
      "inputs": [],
      "name": "getCurrentTime",
      "outputs": [
        {
          "name": "",
          "type": "uint256"
        }
      ],
      "payable": false,
      "stateMutability": "view",
      "type": "function"
    },
    {
      "constant": false,
      "inputs": [],
      "name": "startMarket",
      "outputs": [
        {
          "name": "startPrice",
          "type": "uint256"
        },
        {
          "name": "neutralMinValue",
          "type": "uint256"
        },
        {
          "name": "neutralMaxValue",
          "type": "uint256"
        }
      ],
      "payable": false,
      "stateMutability": "nonpayable",
      "type": "function"
    },
    {
      "constant": false,
      "inputs": [],
      "name": "clearMarket",
      "outputs": [],
      "payable": true,
      "stateMutability": "payable",
      "type": "function"
    }
  ],
  "bytecode": "0x6080604052734f96fe3b7a6cf9725f59d353f723c1bdb64ca6aa600360006101000a81548173ffffffffffffffffffffffffffffffffffffffff021916908373ffffffffffffffffffffffffffffffffffffffff160217905550336000806101000a81548173ffffffffffffffffffffffffffffffffffffffff021916908373ffffffffffffffffffffffffffffffffffffffff1602179055506000809054906101000a900473ffffffffffffffffffffffffffffffffffffffff1673ffffffffffffffffffffffffffffffffffffffff16600073ffffffffffffffffffffffffffffffffffffffff167f8be0079c531659141344cd1fd0a4f28419497f9722a3daafe3b4186f6b6457e060405160405180910390a3612431806101246000396000f3fe60806040526004361061011b576000357c0100000000000000000000000000000000000000000000000000000000900480639287b3d5116100b2578063c895b8eb11610081578063c895b8eb146104ce578063ddf8389b146104e5578063e757223014610510578063f2fde38b1461055f578063fc81587a146105b05761011b565b80639287b3d514610323578063a4c4c0c114610363578063b945b5271461041e578063c70cdbd71461046c5761011b565b8063715018a6116100ee578063715018a61461024d5780637b4afd65146102645780638da5cb5b1461029d5780638f32d59b146102f45761011b565b80630cc9a606146101205780631ec0fd501461018557806329cb924d146101ea57806339dafecf14610215575b600080fd5b34801561012c57600080fd5b5061016f6004803603602081101561014357600080fd5b81019080803573ffffffffffffffffffffffffffffffffffffffff1690602001909291905050506105ba565b6040518082815260200191505060405180910390f35b34801561019157600080fd5b506101d4600480360360208110156101a857600080fd5b81019080803573ffffffffffffffffffffffffffffffffffffffff16906020019092919050505061065d565b6040518082815260200191505060405180910390f35b3480156101f657600080fd5b506101ff61074f565b6040518082815260200191505060405180910390f35b61024b6004803603604081101561022b57600080fd5b810190808035906020019092919080359060200190929190505050610757565b005b34801561025957600080fd5b50610262610c8f565b005b34801561027057600080fd5b50610279610dc8565b60405180848152602001838152602001828152602001935050505060405180910390f35b3480156102a957600080fd5b506102b2611010565b604051808273ffffffffffffffffffffffffffffffffffffffff1673ffffffffffffffffffffffffffffffffffffffff16815260200191505060405180910390f35b34801561030057600080fd5b50610309611039565b604051808215151515815260200191505060405180910390f35b34801561032f57600080fd5b50610338611090565b6040518085815260200184815260200183815260200182815260200194505050505060405180910390f35b34801561036f57600080fd5b506103786110ae565b604051808481526020018060200180602001838103835285818151815260200191508051906020019060200280838360005b838110156103c55780820151818401526020810190506103aa565b50505050905001838103825284818151815260200191508051906020019060200280838360005b838110156104075780820151818401526020810190506103ec565b505050509050019550505050505060405180910390f35b34801561042a57600080fd5b506104336111d8565b60405180878152602001868152602001858152602001848152602001838152602001828152602001965050505050505060405180910390f35b6104cc6004803603608081101561048257600080fd5b81019080803590602001909291908035906020019092919080359060200190929190803573ffffffffffffffffffffffffffffffffffffffff169060200190929190505050611202565b005b3480156104da57600080fd5b506104e3611456565b005b3480156104f157600080fd5b506104fa611571565b6040518082815260200191505060405180910390f35b34801561051c57600080fd5b506105496004803603602081101561053357600080fd5b8101908080359060200190929190505050611595565b6040518082815260200191505060405180910390f35b34801561056b57600080fd5b506105ae6004803603602081101561058257600080fd5b81019080803573ffffffffffffffffffffffffffffffffffffffff1690602001909291905050506117cb565b005b6105b8611851565b005b600061065660116000600a60000154815260200190815260200160002054610648600a60010154601060008773ffffffffffffffffffffffffffffffffffffffff1673ffffffffffffffffffffffffffffffffffffffff1681526020019081526020016000206000016000600a6000015481526020019081526020016000205461196990919063ffffffff16565b6119ef90919063ffffffff16565b9050919050565b6000601060008373ffffffffffffffffffffffffffffffffffffffff1673ffffffffffffffffffffffffffffffffffffffff16815260200190815260200160002060010160009054906101000a900460ff16156106bd576001905061074a565b6001601060008473ffffffffffffffffffffffffffffffffffffffff1673ffffffffffffffffffffffffffffffffffffffff16815260200190815260200160002060010160006101000a81548160ff0219169083151502179055506000610723836105ba565b9050610744734f96fe3b7a6cf9725f59d353f723c1bdb64ca6aa8483611a7e565b60029150505b919050565b600042905090565b600381106107cd576040517f08c379a00000000000000000000000000000000000000000000000000000000081526004018080602001828103825260118152602001807f4f7074696f6e20697320696e76616c696400000000000000000000000000000081525060200191505060405180910390fd5b6001821015610844576040517f08c379a00000000000000000000000000000000000000000000000000000000081526004018080602001828103825260108152602001807f546f6f20736d616c6c20616d6f756e740000000000000000000000000000000081525060200191505060405180910390fd5b6004600001544210156108bf576040517f08c379a000000000000000000000000000000000000000000000000000000000815260040180806020018281038252601a8152602001807f4d61726b657420686173206e6f7420737461727465642079657400000000000081525060200191505060405180910390fd5b60046001015442111561093a576040517f08c379a000000000000000000000000000000000000000000000000000000000815260040180806020018281038252601e8152602001807f4d61726b65742070726564696374696f6e2068617320657870726965642e000081525060200191505060405180910390fd5b600034146109b0576040517f08c379a000000000000000000000000000000000000000000000000000000000815260040180806020018281038252601e8152602001807f4e6f7420616c6c6f776564207472616e73616374696f6e2076616c75652e000081525060200191505060405180910390fd5b600360009054906101000a900473ffffffffffffffffffffffffffffffffffffffff1673ffffffffffffffffffffffffffffffffffffffff166323b872dd3330856040518463ffffffff167c0100000000000000000000000000000000000000000000000000000000028152600401808473ffffffffffffffffffffffffffffffffffffffff1673ffffffffffffffffffffffffffffffffffffffff1681526020018373ffffffffffffffffffffffffffffffffffffffff1673ffffffffffffffffffffffffffffffffffffffff1681526020018281526020019350505050602060405180830381600087803b158015610aa957600080fd5b505af1158015610abd573d6000803e3d6000fd5b505050506040513d6020811015610ad357600080fd5b8101908080519060200190929190505050506000610af5600a84612710611c09565b9050610b0c81600154611c3990919063ffffffff16565b600181905550610b258184611cc190919063ffffffff16565b925060008311610b9d576040517f08c379a000000000000000000000000000000000000000000000000000000000815260040180806020018281038252600e8152602001807f416d6f756e74206973207a65726f00000000000000000000000000000000000081525060200191505060405180910390fd5b610ba78284611d4a565b606080610bb26110ae565b90915080925081935050507ff832c4285458a463b9f4bf3f9a2bf2b436ca89fcd58634089606f669059892ec600e548383604051808481526020018060200180602001838103835285818151815260200191508051906020019060200280838360005b83811015610c30578082015181840152602081019050610c15565b50505050905001838103825284818151815260200191508051906020019060200280838360005b83811015610c72578082015181840152602081019050610c57565b505050509050019550505050505060405180910390a15050505050565b610c97611039565b610d09576040517f08c379a00000000000000000000000000000000000000000000000000000000081526004018080602001828103825260208152602001807f4f776e61626c653a2063616c6c6572206973206e6f7420746865206f776e657281525060200191505060405180910390fd5b600073ffffffffffffffffffffffffffffffffffffffff166000809054906101000a900473ffffffffffffffffffffffffffffffffffffffff1673ffffffffffffffffffffffffffffffffffffffff167f8be0079c531659141344cd1fd0a4f28419497f9722a3daafe3b4186f6b6457e060405160405180910390a360008060006101000a81548173ffffffffffffffffffffffffffffffffffffffff021916908373ffffffffffffffffffffffffffffffffffffffff160217905550565b6000806000610dd5611039565b610e47576040517f08c379a00000000000000000000000000000000000000000000000000000000081526004018080602001828103825260208152602001807f4f776e61626c653a2063616c6c6572206973206e6f7420746865206f776e657281525060200191505060405180910390fd5b6000600a6002015414610ec2576040517f08c379a00000000000000000000000000000000000000000000000000000000081526004018080602001828103825260168152602001807f4d61726b657420616c726561647920737461727465640000000000000000000081525060200191505060405180910390fd5b426004600001541115610f3d576040517f08c379a00000000000000000000000000000000000000000000000000000000081526004018080602001828103825260118152602001807f4265666f72652073746172742074696d6500000000000000000000000000000081525060200191505060405180910390fd5b610f4b600460000154611595565b600a60020181905550610f71600460050154600a60020154611cc190919063ffffffff16565b600460030181905550610f97600460050154600a60020154611c3990919063ffffffff16565b60048001819055507f54ef7c91afda504857a150f9cf55ebe6858f313740bf085035fca4c46cd50e30600a60020154600460030154600480015460405180848152602001838152602001828152602001935050505060405180910390a1600a600201549250600460030154915060048001549050909192565b60008060009054906101000a900473ffffffffffffffffffffffffffffffffffffffff16905090565b60008060009054906101000a900473ffffffffffffffffffffffffffffffffffffffff1673ffffffffffffffffffffffffffffffffffffffff163373ffffffffffffffffffffffffffffffffffffffff1614905090565b600a8060000154908060010154908060020154908060030154905084565b600060608060036040519080825280602002602001820160405280156110e35781602001602082028038833980820191505090505b50915060036040519080825280602002602001820160405280156111165781602001602082028038833980820191505090505b509050600e54925060008090505b60038110156111d257601160008281526020019081526020016000205483828151811061114d57fe5b602002602001018181525050601060003373ffffffffffffffffffffffffffffffffffffffff1673ffffffffffffffffffffffffffffffffffffffff1681526020019081526020016000206000016000828152602001908152602001600020548282815181106111b957fe5b6020026020010181815250508080600101915050611124565b50909192565b60048060000154908060010154908060020154908060030154908060040154908060050154905086565b61120a611039565b61127c576040517f08c379a00000000000000000000000000000000000000000000000000000000081526004018080602001828103825260208152602001807f4f776e61626c653a2063616c6c6572206973206e6f7420746865206f776e657281525060200191505060405180910390fd5b6000600460000154146112f7576040517f08c379a00000000000000000000000000000000000000000000000000000000081526004018080602001828103825260138152602001807f416c726561647920696e697469616c697a65640000000000000000000000000081525060200191505060405180910390fd5b4261130b8486611c3990919063ffffffff16565b1161131557600080fd5b836004600001819055506113328385611c3990919063ffffffff16565b60046001018190555061135383600460010154611c3990919063ffffffff16565b600460020181905550816004600501819055506003600a6000018190555080600260006101000a81548173ffffffffffffffffffffffffffffffffffffffff021916908373ffffffffffffffffffffffffffffffffffffffff160217905550600260009054906101000a900473ffffffffffffffffffffffffffffffffffffffff1673ffffffffffffffffffffffffffffffffffffffff1663012088376040518163ffffffff167c0100000000000000000000000000000000000000000000000000000000028152600401600060405180830381600087803b15801561143857600080fd5b505af115801561144c573d6000803e3d6000fd5b5050505050505050565b61145e611039565b6114d0576040517f08c379a00000000000000000000000000000000000000000000000000000000081526004018080602001828103825260208152602001807f4f776e61626c653a2063616c6c6572206973206e6f7420746865206f776e657281525060200191505060405180910390fd5b426004600201541061154a576040517f08c379a00000000000000000000000000000000000000000000000000000000081526004018080602001828103825260198152602001807f4d61726b657420686173206e6f7420656e646564207965742e0000000000000081525060200191505060405180910390fd5b611558600460020154611595565b600a6003018190555061156f600a60030154612047565b565b7f4554482f5553445400000000000000000000000000000000000000000000000081565b60004282106115a357600080fd5b6000806000739326bfa02add2366b30bacb125260af64103133173ffffffffffffffffffffffffffffffffffffffff1663feaf968c6040518163ffffffff167c010000000000000000000000000000000000000000000000000000000002815260040160a06040518083038186803b15801561161e57600080fd5b505afa158015611632573d6000803e3d6000fd5b505050506040513d60a081101561164857600080fd5b810190808051906020019092919080519060200190929190805190602001909291908051906020019092919080519060200190929190505050909150508093508195508294505050505b848111156117c057818060019003925050739326bfa02add2366b30bacb125260af64103133173ffffffffffffffffffffffffffffffffffffffff16639a6fc8f5836040518263ffffffff167c0100000000000000000000000000000000000000000000000000000000028152600401808269ffffffffffffffffffff1669ffffffffffffffffffff16815260200191505060a06040518083038186803b15801561173c57600080fd5b505afa158015611750573d6000803e3d6000fd5b505050506040513d60a081101561176657600080fd5b810190808051906020019092919080519060200190929190805190602001909291908051906020019092919080519060200190929190505050909150508093508195508294505050508481116117bb576117c0565b611692565b829350505050919050565b6117d3611039565b611845576040517f08c379a00000000000000000000000000000000000000000000000000000000081526004018080602001828103825260208152602001807f4f776e61626c653a2063616c6c6572206973206e6f7420746865206f776e657281525060200191505060405180910390fd5b61184e8161227a565b50565b611859611039565b6118cb576040517f08c379a00000000000000000000000000000000000000000000000000000000081526004018080602001828103825260208152602001807f4f776e61626c653a2063616c6c6572206973206e6f7420746865206f776e657281525060200191505060405180910390fd5b6004600080820160009055600182016000905560028201600090556003820160009055600482016000905560058201600090555050600a6000808201600090556001820160009055600282016000905560038201600090555050600e6000905560016000905560008090505b600381101561196657600060116000838152602001908152602001600020819055508080600101915050611937565b50565b60008083141561197c57600090506119e9565b600082840290508284828161198d57fe5b04146119e4576040517f08c379a00000000000000000000000000000000000000000000000000000000081526004018080602001828103825260218152602001806123e56021913960400191505060405180910390fd5b809150505b92915050565b6000808211611a66576040517f08c379a000000000000000000000000000000000000000000000000000000000815260040180806020018281038252601a8152602001807f536166654d6174683a206469766973696f6e206279207a65726f00000000000081525060200191505060405180910390fd5b6000828481611a7157fe5b0490508091505092915050565b6000811115611c045773eeeeeeeeeeeeeeeeeeeeeeeeeeeeeeeeeeeeeeee73ffffffffffffffffffffffffffffffffffffffff168373ffffffffffffffffffffffffffffffffffffffff161415611b1b578173ffffffffffffffffffffffffffffffffffffffff166108fc829081150290604051600060405180830381858888f19350505050158015611b15573d6000803e3d6000fd5b50611c03565b8273ffffffffffffffffffffffffffffffffffffffff1663a9059cbb83836040518363ffffffff167c0100000000000000000000000000000000000000000000000000000000028152600401808373ffffffffffffffffffffffffffffffffffffffff1673ffffffffffffffffffffffffffffffffffffffff16815260200182815260200192505050602060405180830381600087803b158015611bbe57600080fd5b505af1158015611bd2573d6000803e3d6000fd5b505050506040513d6020811015611be857600080fd5b8101908080519060200190929190505050611c0257600080fd5b5b5b505050565b6000611c3082611c22858761196990919063ffffffff16565b6119ef90919063ffffffff16565b90509392505050565b600080828401905083811015611cb7576040517f08c379a000000000000000000000000000000000000000000000000000000000815260040180806020018281038252601b8152602001807f536166654d6174683a206164646974696f6e206f766572666c6f77000000000081525060200191505060405180910390fd5b8091505092915050565b600082821115611d39576040517f08c379a000000000000000000000000000000000000000000000000000000000815260040180806020018281038252601e8152602001807f536166654d6174683a207375627472616374696f6e206f766572666c6f77000081525060200191505060405180910390fd5b600082840390508091505092915050565b60001515601060003373ffffffffffffffffffffffffffffffffffffffff1673ffffffffffffffffffffffffffffffffffffffff16815260200190815260200160002060010160019054906101000a900460ff1615151415611f4957601060003373ffffffffffffffffffffffffffffffffffffffff1673ffffffffffffffffffffffffffffffffffffffff16815260200190815260200160002060006001820160006101000a81549060ff02191690556001820160016101000a81549060ff0219169055505060008090505b6003811015611e86576000601060003373ffffffffffffffffffffffffffffffffffffffff1673ffffffffffffffffffffffffffffffffffffffff1681526020019081526020016000206000016000838152602001908152602001600020819055508080600101915050611e17565b506001601060003373ffffffffffffffffffffffffffffffffffffffff1673ffffffffffffffffffffffffffffffffffffffff16815260200190815260200160002060010160016101000a81548160ff02191690831515021790555033600f6000600e54815260200190815260200160002060006101000a81548173ffffffffffffffffffffffffffffffffffffffff021916908373ffffffffffffffffffffffffffffffffffffffff160217905550600e600081548092919060010191905055505b611faf81601060003373ffffffffffffffffffffffffffffffffffffffff1673ffffffffffffffffffffffffffffffffffffffff168152602001908152602001600020600001600085815260200190815260200160002054611c3990919063ffffffff16565b601060003373ffffffffffffffffffffffffffffffffffffffff1673ffffffffffffffffffffffffffffffffffffffff16815260200190815260200160002060000160008481526020019081526020016000208190555061202c816011600085815260200190815260200160002054611c3990919063ffffffff16565b60116000848152602001908152602001600020819055505050565b42600460020154106120c1576040517f08c379a00000000000000000000000000000000000000000000000000000000081526004018080602001828103825260108152602001807f54696d65206e6f7420726561636865640000000000000000000000000000000081525060200191505060405180910390fd5b60008111612137576040517f08c379a000000000000000000000000000000000000000000000000000000000815260040180806020018281038252601e8152602001807f76616c75652073686f756c642062652067726561746572207468616e2030000081525060200191505060405180910390fd5b60006004600301548210156121605760028081111561215257fe5b600a6000018190555061219f565b6004800154821115612187576000600281111561217957fe5b600a6000018190555061219e565b6001600281111561219457fe5b600a600001819055505b5b600060116000600a60000154815260200190815260200160002054111561221d57600090505b600381101561221c57600a60000154811461220f576122056011600083815260200190815260200160002054600a60010154611c3990919063ffffffff16565b600a600101819055505b80806001019150506121c5565b5b600090505b600e5481101561227657612268600f600083815260200190815260200160002060009054906101000a900473ffffffffffffffffffffffffffffffffffffffff1661065d565b508080600101915050612222565b5050565b600073ffffffffffffffffffffffffffffffffffffffff168173ffffffffffffffffffffffffffffffffffffffff161415612300576040517f08c379a00000000000000000000000000000000000000000000000000000000081526004018080602001828103825260268152602001806123bf6026913960400191505060405180910390fd5b8073ffffffffffffffffffffffffffffffffffffffff166000809054906101000a900473ffffffffffffffffffffffffffffffffffffffff1673ffffffffffffffffffffffffffffffffffffffff167f8be0079c531659141344cd1fd0a4f28419497f9722a3daafe3b4186f6b6457e060405160405180910390a3806000806101000a81548173ffffffffffffffffffffffffffffffffffffffff021916908373ffffffffffffffffffffffffffffffffffffffff1602179055505056fe4f776e61626c653a206e6577206f776e657220697320746865207a65726f2061646472657373536166654d6174683a206d756c7469706c69636174696f6e206f766572666c6f77a165627a7a72305820fb6272cf776f762be3498e07221de775610bcc66a8ffcbb1eed4986cef9383000029",
  "source": "\r\npragma solidity 0.5.7;\r\n\r\nimport \"./external/openzeppelin-solidity/math/SafeMath.sol\";\r\nimport \"./external/openzeppelin-solidity/ownership/Ownable.sol\";\r\nimport \"./external/openzeppelin-solidity/token/ERC20/IERC20.sol\";\r\nimport \"./interfaces/IToken.sol\";\r\nimport \"./interfaces/IMarketRegistry.sol\";\r\nimport \"./interfaces/IChainLinkOracle.sol\";\r\n\r\ncontract Market is Ownable {\r\n  using SafeMath for *;\r\n\r\n  enum Option {\r\n    Bullish,\r\n    Neutral,\r\n    Bearish\r\n  }\r\n  \r\n  struct MarketData {\r\n    uint256 startTime;\r\n    uint256 predictionTime;\r\n    uint256 endTime;\r\n    uint256 neutralMinValue;\r\n    uint256 neutralMaxValue;\r\n    uint256 neutralRange;\r\n  }\r\n\r\n  struct MarketResult {\r\n    uint256 winningOption;\r\n    uint256 totalReward;\r\n    uint256 startPrice;\r\n    uint256 endPrice;\r\n  }\r\n\r\n  struct UserData {\r\n    mapping(uint256 => uint256) assetStaked;\r\n    bool claimedReward;\r\n    bool available;\r\n  }\r\n    \r\n  bytes32 public constant marketCurrency = \"ETH/USDT\";\r\n  \r\n  address constant ETH_ADDRESS = 0xEeeeeEeeeEeEeeEeEeEeeEEEeeeeEeeeeeeeEEeE;\r\n  address constant PRICE_FEED_ADDRESS = 0x9326BFA02ADD2366b30bacB125260Af641031331;\r\n  address constant ASSET_ADDRESS = 0x4F96Fe3b7A6Cf9725f59d353F723c1bDb64CA6Aa;\r\n  uint256 constant MIN_STAKE_AMOUNT = 1;\r\n  uint256 constant COMMISSION_PERCENTAGE = 10; //with 2 decimals\r\n  uint256 constant totalOptions = 3;\r\n\r\n  uint256 totalCommissionAmount;\r\n\r\n  IMarketRegistry marketRegistry;\r\n  IERC20 assetToken = IERC20(ASSET_ADDRESS);\r\n  \r\n  MarketData public marketData;\r\n  MarketResult public marketResult;\r\n  uint256 totalUsers;\r\n  mapping(uint256 => address) internal users;\r\n  mapping(address => UserData) internal userData;\r\n  mapping(uint256 => uint256) internal optionsStaked;\r\n\r\n  /**\r\n    * @dev Initialize the market.\r\n    * @param _startTime The time at which market will create.\r\n    * @param _duration The time duration of market.\r\n    * @param _neutralRange The neutral option range.\r\n    */\r\n  function initiate(uint256 _startTime, uint256 _duration, uint256 _neutralRange, address registry) public payable onlyOwner {\r\n    require(marketData.startTime == 0, \"Already initialized\");\r\n    require(_startTime.add(_duration) > now);\r\n    marketData.startTime = _startTime;\r\n    marketData.predictionTime = _startTime.add(_duration);\r\n    marketData.endTime = marketData.predictionTime.add(_duration);\r\n    marketData.neutralRange = _neutralRange;\r\n    marketResult.winningOption = totalOptions;\r\n    marketRegistry = IMarketRegistry(registry);\r\n    marketRegistry.registerMarket();\r\n  }\r\n\r\n  /**\r\n    * @dev Place prediction on the available options of the market.\r\n    * @param _stakeAmount The amount staked by user at the time of prediction.\r\n    * @param _option The option on which user placed prediction.\r\n    */\r\n  function placePrediction(uint256 _stakeAmount, uint256 _option) public payable {\r\n    require(_option < totalOptions, \"Option is invalid\");\r\n    require(_stakeAmount >= MIN_STAKE_AMOUNT, \"Too small amount\");\r\n    require(now >= marketData.startTime, \"Market has not started yet\");\r\n    require(now <= marketData.predictionTime, \"Market prediction has expried.\");\r\n\r\n    require(msg.value == 0, \"Not allowed transaction value.\");\r\n    assetToken.transferFrom(msg.sender, address(this), _stakeAmount);\r\n    uint256 commissionAmount = _calculatePercentage(COMMISSION_PERCENTAGE, _stakeAmount, 10000);\r\n    totalCommissionAmount = totalCommissionAmount.add(commissionAmount);\r\n    _stakeAmount = _stakeAmount.sub(commissionAmount);\r\n\r\n    require(_stakeAmount > 0, \"Amount is zero\");\r\n    _storePredictionData(_option, _stakeAmount);\r\n\r\n    uint256[] memory totalStaked;\r\n    uint256[] memory userStaked;\r\n    (, totalStaked, userStaked) = getPredictionData();\r\n    emit PredictionDataUpdated(totalUsers, totalStaked, userStaked);\r\n  }\r\n  \r\n  /**\r\n    * @dev Calculate the result of market.\r\n    * @param _value The current price of market currency.\r\n    */\r\n  function _postResult(uint256 _value) internal {\r\n    require(marketData.endTime < now, \"Time not reached\");\r\n    require(_value > 0,\"value should be greater than 0\");\r\n    \r\n    uint256 i;\r\n\r\n    if(_value < marketData.neutralMinValue) {\r\n      marketResult.winningOption = uint256(Option.Bearish);\r\n    } else if(_value > marketData.neutralMaxValue) {\r\n      marketResult.winningOption = uint256(Option.Bullish);\r\n    } else {\r\n      marketResult.winningOption = uint256(Option.Neutral);\r\n    }\r\n    if (optionsStaked[marketResult.winningOption] > 0) {\r\n      for(i = 0; i < totalOptions; i++){\r\n        if(i != marketResult.winningOption) {\r\n          marketResult.totalReward = marketResult.totalReward.add(optionsStaked[i]);\r\n        }\r\n      }\r\n    }\r\n    for (i = 0; i < totalUsers; i++) {\r\n      claimReturn(users[i]);\r\n    }\r\n  }\r\n\r\n  function _calculatePercentage(uint256 _percent, uint256 _value, uint256 _divisor) internal pure returns(uint256) {\r\n    return _percent.mul(_value).div(_divisor);\r\n  }\r\n\r\n  /**\r\n    * @dev Stores the prediction data.\r\n    * @param _option The option on which user place prediction.\r\n    * @param _stakeAmount The amount staked by user at the time of prediction.\r\n    */\r\n  function _storePredictionData(uint256 _option, uint256 _stakeAmount) internal {\r\n    if (userData[msg.sender].available == false) {\r\n      delete userData[msg.sender];\r\n      for (uint256 i = 0; i < totalOptions; i++) {\r\n        userData[msg.sender].assetStaked[i] = 0;\r\n      }\r\n      userData[msg.sender].available = true;\r\n      users[totalUsers] = msg.sender;\r\n      totalUsers++;\r\n    }\r\n    userData[msg.sender].assetStaked[_option] = userData[msg.sender].assetStaked[_option].add(_stakeAmount);\r\n    optionsStaked[_option] = optionsStaked[_option].add(_stakeAmount);\r\n  }\r\n  \r\n  /**\r\n    * @dev Settle the market, setting the winning option\r\n    */\r\n  function endMarket() external onlyOwner {\r\n    require(marketData.endTime < now, \"Market has not ended yet.\");\r\n    marketResult.endPrice = getPrice(marketData.endTime);\r\n    _postResult(marketResult.endPrice);\r\n  }\r\n\r\n  /**\r\n    * @dev Get price of provided feed address\r\n    **/\r\n  function getPrice(uint256 _time) public view returns (uint256) {\r\n    require(_time < now);\r\n    int256 currentRoundAnswer;\r\n    uint80 currentRoundId;\r\n    uint256 currentRoundTime;\r\n    (currentRoundId, currentRoundAnswer, , currentRoundTime, )= IChainLinkOracle(PRICE_FEED_ADDRESS).latestRoundData();\r\n    while(currentRoundTime > _time) {\r\n      currentRoundId--;\r\n      (currentRoundId, currentRoundAnswer, , currentRoundTime, )= IChainLinkOracle(PRICE_FEED_ADDRESS).getRoundData(currentRoundId);\r\n      if(currentRoundTime <= _time) {\r\n        break;\r\n      }\r\n    }\r\n    return uint256(currentRoundAnswer);\r\n  }\r\n\r\n  /**\r\n    * @dev Claim the return amount of the specified address.\r\n    * @param _user The address to query the claim return amount of.\r\n    * @return Flag, if 0:cannot claim, 1: Already Claimed, 2: Claimed\r\n    */\r\n  function claimReturn(address _user) public returns(uint256) {\r\n\r\n    if(userData[_user].claimedReward) {\r\n      return 1;\r\n    }\r\n    userData[_user].claimedReward = true;\r\n    uint256 _returnAmount = getReturn(_user);\r\n    _transferAsset(ASSET_ADDRESS, address(uint160(_user)), _returnAmount);\r\n    return 2;\r\n  }\r\n\r\n  /**\r\n    * @dev Transfer the assets to specified address.\r\n    * @param _asset The asset transfer to the specific address.\r\n    * @param _recipient The address to transfer the asset of\r\n    * @param _amount The amount which is transfer.\r\n    */\r\n  function _transferAsset(address _asset, address payable _recipient, uint256 _amount) internal {\r\n    if(_amount > 0) { \r\n      if(_asset == ETH_ADDRESS) {\r\n        _recipient.transfer(_amount);\r\n      } else {\r\n        require(IToken(_asset).transfer(_recipient, _amount));\r\n      }\r\n    }\r\n  }\r\n\r\n  /**\r\n  * @dev Gets the return amount of the specified address.\r\n  * @param _user The address to specify the return of\r\n  * @return returnAmount uint256 memory representing the return amount.\r\n  */\r\n  function getReturn(address _user) public view returns (uint256) {\r\n    return userData[_user].assetStaked[marketResult.winningOption].mul(marketResult.totalReward).div(optionsStaked[marketResult.winningOption]);\r\n  }\r\n\r\n  function getPredictionData() public view returns (uint256 totalParticipants, uint256[] memory totalStaked, uint256[] memory userStaked) {\r\n    totalStaked = new uint256[](totalOptions);\r\n    userStaked = new uint256[](totalOptions);\r\n    totalParticipants = totalUsers;\r\n    uint256 i;\r\n    for(i = 0; i < totalOptions; i++) {\r\n      totalStaked[i] = optionsStaked[i];\r\n      userStaked[i] = userData[msg.sender].assetStaked[i];\r\n    }\r\n  }\r\n\r\n  function getCurrentTime() public view returns (uint256) {\r\n    return now;\r\n  }\r\n\r\n  /**\r\n    * @dev Start market\r\n    */\r\n  function startMarket() public onlyOwner returns (uint256 startPrice, uint256 neutralMinValue, uint256 neutralMaxValue) {\r\n    require(marketResult.startPrice == 0, \"Market already started\");\r\n    require(marketData.startTime <= now, \"Before start time\");\r\n\r\n    marketResult.startPrice = getPrice(marketData.startTime);\r\n    marketData.neutralMinValue = marketResult.startPrice.sub(marketData.neutralRange);\r\n    marketData.neutralMaxValue = marketResult.startPrice.add(marketData.neutralRange);\r\n    emit MarketStarted(marketResult.startPrice, marketData.neutralMinValue, marketData.neutralMaxValue);\r\n    startPrice = marketResult.startPrice;\r\n    neutralMinValue = marketData.neutralMinValue;\r\n    neutralMaxValue = marketData.neutralMaxValue;\r\n  }\r\n\r\n  /**\r\n    * @dev Clear market.\r\n    */\r\n  function clearMarket() public payable onlyOwner {\r\n    delete marketData;\r\n    delete marketResult;\r\n    delete totalUsers;\r\n    delete totalCommissionAmount;\r\n\r\n    for (uint256 i = 0; i < totalOptions; i++) {\r\n      optionsStaked[i] = 0;\r\n    }\r\n  }\r\n\r\n  event PredictionDataUpdated (\r\n    uint256 totalParticipants, \r\n    uint256[] totalStaked,\r\n    uint256[] userStaked\r\n  );\r\n\r\n  event MarketStarted (\r\n    uint256 startPrice,\r\n    uint256 neutralMinValue,\r\n    uint256 neutralMaxValue\r\n  );\r\n\r\n  event MarketEnded (\r\n    uint256 endPrice,\r\n    uint256 winningOption\r\n  );\r\n}",
  "sourcePath": "E:/work/blockchain/prex/work/prex-smart-contracts/contracts/Market.sol",
  "compiler": {
    "name": "solc",
    "version": "0.5.7+commit.6da8b019.Emscripten.clang"
  },
  "schemaVersion": "3.3.3",
  "updatedAt": "2021-03-11T03:22:35.508Z",
  "networkType": "ethereum",
  "devdoc": {
    "methods": {
      "claimReturn(address)": {
        "details": "Claim the return amount of the specified address.\r",
        "params": {
          "_user": "The address to query the claim return amount of.\r"
        },
        "return": "Flag, if 0:cannot claim, 1: Already Claimed, 2: Claimed\r"
      },
      "clearMarket()": {
        "details": "Clear market.\r"
      },
      "endMarket()": {
        "details": "Settle the market, setting the winning option\r"
      },
      "getPrice(uint256)": {
        "details": "Get price of provided feed address\r*"
      },
      "getReturn(address)": {
        "details": "Gets the return amount of the specified address.\r",
        "params": {
          "_user": "The address to specify the return of\r"
        },
        "return": "returnAmount uint256 memory representing the return amount.\r"
      },
      "initiate(uint256,uint256,uint256,address)": {
        "details": "Initialize the market.\r",
        "params": {
          "_duration": "The time duration of market.\r",
          "_neutralRange": "The neutral option range.\r",
          "_startTime": "The time at which market will create.\r"
        }
      },
      "isOwner()": {
        "details": "Returns true if the caller is the current owner.\r"
      },
      "owner()": {
        "details": "Returns the address of the current owner.\r"
      },
      "placePrediction(uint256,uint256)": {
        "details": "Place prediction on the available options of the market.\r",
        "params": {
          "_option": "The option on which user placed prediction.\r",
          "_stakeAmount": "The amount staked by user at the time of prediction.\r"
        }
      },
      "renounceOwnership()": {
        "details": "Leaves the contract without owner. It will not be possible to call\r `onlyOwner` functions anymore. Can only be called by the current owner.\r      * > Note: Renouncing ownership will leave the contract without an owner,\r thereby removing any functionality that is only available to the owner.\r"
      },
      "startMarket()": {
        "details": "Start market\r"
      },
      "transferOwnership(address)": {
        "details": "Transfers ownership of the contract to a new account (`newOwner`).\r Can only be called by the current owner.\r"
      }
    }
  },
  "userdoc": {
    "methods": {}
  }
}