{
  "contractName": "Market",
  "abi": [
    {
      "constant": false,
      "inputs": [],
      "name": "renounceOwnership",
      "outputs": [],
      "payable": false,
      "stateMutability": "nonpayable",
      "type": "function"
    },
    {
      "constant": true,
      "inputs": [],
      "name": "owner",
      "outputs": [
        {
          "name": "",
          "type": "address"
        }
      ],
      "payable": false,
      "stateMutability": "view",
      "type": "function"
    },
    {
      "constant": true,
      "inputs": [],
      "name": "isOwner",
      "outputs": [
        {
          "name": "",
          "type": "bool"
        }
      ],
      "payable": false,
      "stateMutability": "view",
      "type": "function"
    },
    {
      "constant": true,
      "inputs": [],
      "name": "marketResult",
      "outputs": [
        {
          "name": "winningOption",
          "type": "uint256"
        },
        {
          "name": "totalReward",
          "type": "uint256"
        },
        {
          "name": "startPrice",
          "type": "uint256"
        },
        {
          "name": "endPrice",
          "type": "uint256"
        }
      ],
      "payable": false,
      "stateMutability": "view",
      "type": "function"
    },
    {
      "constant": true,
      "inputs": [],
      "name": "marketData",
      "outputs": [
        {
          "name": "startTime",
          "type": "uint256"
        },
        {
          "name": "predictionTime",
          "type": "uint256"
        },
        {
          "name": "endTime",
          "type": "uint256"
        },
        {
          "name": "neutralMinValue",
          "type": "uint256"
        },
        {
          "name": "neutralMaxValue",
          "type": "uint256"
        },
        {
          "name": "neutralRange",
          "type": "uint256"
        }
      ],
      "payable": false,
      "stateMutability": "view",
      "type": "function"
    },
    {
      "constant": true,
      "inputs": [],
      "name": "marketCurrency",
      "outputs": [
        {
          "name": "",
          "type": "bytes32"
        }
      ],
      "payable": false,
      "stateMutability": "view",
      "type": "function"
    },
    {
      "constant": false,
      "inputs": [
        {
          "name": "newOwner",
          "type": "address"
        }
      ],
      "name": "transferOwnership",
      "outputs": [],
      "payable": false,
      "stateMutability": "nonpayable",
      "type": "function"
    },
    {
      "anonymous": false,
      "inputs": [
        {
          "indexed": false,
          "name": "startTime",
          "type": "uint256"
        },
        {
          "indexed": false,
          "name": "predictionTime",
          "type": "uint256"
        },
        {
          "indexed": false,
          "name": "endTime",
          "type": "uint256"
        }
      ],
      "name": "MarketCreated",
      "type": "event"
    },
    {
      "anonymous": false,
      "inputs": [
        {
          "indexed": false,
          "name": "startPrice",
          "type": "uint256"
        },
        {
          "indexed": false,
          "name": "neutralMinValue",
          "type": "uint256"
        },
        {
          "indexed": false,
          "name": "neutralMaxValue",
          "type": "uint256"
        }
      ],
      "name": "MarketStarted",
      "type": "event"
    },
    {
      "anonymous": false,
      "inputs": [
        {
          "indexed": false,
          "name": "totalParticipants",
          "type": "uint256"
        },
        {
          "indexed": false,
          "name": "totalStaked",
          "type": "uint256[]"
        }
      ],
      "name": "PredictionDataUpdated",
      "type": "event"
    },
    {
      "anonymous": false,
      "inputs": [
        {
          "indexed": false,
          "name": "endPrice",
          "type": "uint256"
        },
        {
          "indexed": false,
          "name": "winningOption",
          "type": "uint256"
        }
      ],
      "name": "MarketEnded",
      "type": "event"
    },
    {
      "anonymous": false,
      "inputs": [
        {
          "indexed": true,
          "name": "previousOwner",
          "type": "address"
        },
        {
          "indexed": true,
          "name": "newOwner",
          "type": "address"
        }
      ],
      "name": "OwnershipTransferred",
      "type": "event"
    },
    {
      "constant": false,
      "inputs": [
        {
          "name": "_startTime",
          "type": "uint256"
        },
        {
          "name": "_duration",
          "type": "uint256"
        },
        {
          "name": "_neutralRange",
          "type": "uint256"
        },
        {
          "name": "registry",
          "type": "address"
        }
      ],
      "name": "initiate",
      "outputs": [],
      "payable": false,
      "stateMutability": "nonpayable",
      "type": "function"
    },
    {
      "constant": false,
      "inputs": [
        {
          "name": "_stakeAmount",
          "type": "uint256"
        },
        {
          "name": "_option",
          "type": "uint256"
        }
      ],
      "name": "placePrediction",
      "outputs": [],
      "payable": true,
      "stateMutability": "payable",
      "type": "function"
    },
    {
      "constant": false,
      "inputs": [],
      "name": "endMarket",
      "outputs": [],
      "payable": false,
      "stateMutability": "nonpayable",
      "type": "function"
    },
    {
      "constant": true,
      "inputs": [
        {
          "name": "_time",
          "type": "uint256"
        }
      ],
      "name": "getPrice",
      "outputs": [
        {
          "name": "",
          "type": "uint256"
        }
      ],
      "payable": false,
      "stateMutability": "view",
      "type": "function"
    },
    {
      "constant": false,
      "inputs": [
        {
          "name": "_user",
          "type": "address"
        }
      ],
      "name": "claimReturn",
      "outputs": [
        {
          "name": "",
          "type": "uint256"
        }
      ],
      "payable": false,
      "stateMutability": "nonpayable",
      "type": "function"
    },
    {
      "constant": true,
      "inputs": [
        {
          "name": "_user",
          "type": "address"
        }
      ],
      "name": "getReturn",
      "outputs": [
        {
          "name": "",
          "type": "uint256"
        }
      ],
      "payable": false,
      "stateMutability": "view",
      "type": "function"
    },
    {
      "constant": true,
      "inputs": [],
      "name": "getPredictionData",
      "outputs": [
        {
          "name": "totalParticipants",
          "type": "uint256"
        },
        {
          "name": "totalStaked",
          "type": "uint256[]"
        },
        {
          "name": "userStaked",
          "type": "uint256[]"
        }
      ],
      "payable": false,
      "stateMutability": "view",
      "type": "function"
    },
    {
      "constant": true,
      "inputs": [],
      "name": "getCurrentTime",
      "outputs": [
        {
          "name": "",
          "type": "uint256"
        }
      ],
      "payable": false,
      "stateMutability": "view",
      "type": "function"
    },
    {
      "constant": false,
      "inputs": [],
      "name": "startMarket",
      "outputs": [
        {
          "name": "startPrice",
          "type": "uint256"
        },
        {
          "name": "neutralMinValue",
          "type": "uint256"
        },
        {
          "name": "neutralMaxValue",
          "type": "uint256"
        }
      ],
      "payable": false,
      "stateMutability": "nonpayable",
      "type": "function"
    },
    {
      "constant": false,
      "inputs": [],
      "name": "clearMarket",
      "outputs": [],
      "payable": true,
      "stateMutability": "payable",
      "type": "function"
    }
  ],
  "bytecode": "0x6080604052734f96fe3b7a6cf9725f59d353f723c1bdb64ca6aa600360006101000a81548173ffffffffffffffffffffffffffffffffffffffff021916908373ffffffffffffffffffffffffffffffffffffffff160217905550336000806101000a81548173ffffffffffffffffffffffffffffffffffffffff021916908373ffffffffffffffffffffffffffffffffffffffff1602179055506000809054906101000a900473ffffffffffffffffffffffffffffffffffffffff1673ffffffffffffffffffffffffffffffffffffffff16600073ffffffffffffffffffffffffffffffffffffffff167f8be0079c531659141344cd1fd0a4f28419497f9722a3daafe3b4186f6b6457e060405160405180910390a3612678806101246000396000f3fe60806040526004361061011b576000357c0100000000000000000000000000000000000000000000000000000000900480639287b3d5116100b2578063c895b8eb11610081578063c895b8eb146104db578063ddf8389b146104f2578063e75722301461051d578063f2fde38b1461056c578063fc81587a146105bd5761011b565b80639287b3d514610323578063a4c4c0c114610363578063b945b5271461041e578063c70cdbd71461046c5761011b565b8063715018a6116100ee578063715018a61461024d5780637b4afd65146102645780638da5cb5b1461029d5780638f32d59b146102f45761011b565b80630cc9a606146101205780631ec0fd501461018557806329cb924d146101ea57806339dafecf14610215575b600080fd5b34801561012c57600080fd5b5061016f6004803603602081101561014357600080fd5b81019080803573ffffffffffffffffffffffffffffffffffffffff1690602001909291905050506105c7565b6040518082815260200191505060405180910390f35b34801561019157600080fd5b506101d4600480360360208110156101a857600080fd5b81019080803573ffffffffffffffffffffffffffffffffffffffff169060200190929190505050610694565b6040518082815260200191505060405180910390f35b3480156101f657600080fd5b506101ff6107d7565b6040518082815260200191505060405180910390f35b61024b6004803603604081101561022b57600080fd5b8101908080359060200190929190803590602001909291905050506107df565b005b34801561025957600080fd5b50610262610d3b565b005b34801561027057600080fd5b50610279610e74565b60405180848152602001838152602001828152602001935050505060405180910390f35b3480156102a957600080fd5b506102b26110bc565b604051808273ffffffffffffffffffffffffffffffffffffffff1673ffffffffffffffffffffffffffffffffffffffff16815260200191505060405180910390f35b34801561030057600080fd5b506103096110e5565b604051808215151515815260200191505060405180910390f35b34801561032f57600080fd5b5061033861113c565b6040518085815260200184815260200183815260200182815260200194505050505060405180910390f35b34801561036f57600080fd5b5061037861115a565b604051808481526020018060200180602001838103835285818151815260200191508051906020019060200280838360005b838110156103c55780820151818401526020810190506103aa565b50505050905001838103825284818151815260200191508051906020019060200280838360005b838110156104075780820151818401526020810190506103ec565b505050509050019550505050505060405180910390f35b34801561042a57600080fd5b506104336112da565b60405180878152602001868152602001858152602001848152602001838152602001828152602001965050505050505060405180910390f35b34801561047857600080fd5b506104d96004803603608081101561048f57600080fd5b81019080803590602001909291908035906020019092919080359060200190929190803573ffffffffffffffffffffffffffffffffffffffff169060200190929190505050611304565b005b3480156104e757600080fd5b506104f06115ae565b005b3480156104fe57600080fd5b50610507611711565b6040518082815260200191505060405180910390f35b34801561052957600080fd5b506105566004803603602081101561054057600080fd5b8101908080359060200190929190505050611735565b6040518082815260200191505060405180910390f35b34801561057857600080fd5b506105bb6004803603602081101561058f57600080fd5b81019080803573ffffffffffffffffffffffffffffffffffffffff16906020019092919050505061196b565b005b6105c56119f1565b005b60008060116000600a6000015481526020019081526020016000205414156105f2576000905061068f565b61068c60116000600a6000015481526020019081526020016000205461067e600a60010154601060008773ffffffffffffffffffffffffffffffffffffffff1673ffffffffffffffffffffffffffffffffffffffff1681526020019081526020016000206000016000600a60000154815260200190815260200160002054611bb590919063ffffffff16565b611c3b90919063ffffffff16565b90505b919050565b6000601060008373ffffffffffffffffffffffffffffffffffffffff1673ffffffffffffffffffffffffffffffffffffffff16815260200190815260200160002060010160009054906101000a900460ff16156106f457600190506107d2565b6001601060008473ffffffffffffffffffffffffffffffffffffffff1673ffffffffffffffffffffffffffffffffffffffff16815260200190815260200160002060010160006101000a81548160ff021916908315150217905550600061075a836105c7565b9050600081111561078557610784734f96fe3b7a6cf9725f59d353f723c1bdb64ca6aa8483611cca565b5b80601060008573ffffffffffffffffffffffffffffffffffffffff1673ffffffffffffffffffffffffffffffffffffffff1681526020019081526020016000206002018190555060029150505b919050565b600042905090565b60038110610855576040517f08c379a00000000000000000000000000000000000000000000000000000000081526004018080602001828103825260118152602001807f4f7074696f6e20697320696e76616c696400000000000000000000000000000081525060200191505060405180910390fd5b60018210156108cc576040517f08c379a00000000000000000000000000000000000000000000000000000000081526004018080602001828103825260108152602001807f546f6f20736d616c6c20616d6f756e740000000000000000000000000000000081525060200191505060405180910390fd5b600460000154421015610947576040517f08c379a000000000000000000000000000000000000000000000000000000000815260040180806020018281038252601a8152602001807f4d61726b657420686173206e6f7420737461727465642079657400000000000081525060200191505060405180910390fd5b6004600101544211156109c2576040517f08c379a000000000000000000000000000000000000000000000000000000000815260040180806020018281038252601e8152602001807f4d61726b65742070726564696374696f6e2068617320657870726965642e000081525060200191505060405180910390fd5b60003414610a38576040517f08c379a000000000000000000000000000000000000000000000000000000000815260040180806020018281038252601e8152602001807f4e6f7420616c6c6f776564207472616e73616374696f6e2076616c75652e000081525060200191505060405180910390fd5b600360009054906101000a900473ffffffffffffffffffffffffffffffffffffffff1673ffffffffffffffffffffffffffffffffffffffff166323b872dd3330856040518463ffffffff167c0100000000000000000000000000000000000000000000000000000000028152600401808473ffffffffffffffffffffffffffffffffffffffff1673ffffffffffffffffffffffffffffffffffffffff1681526020018373ffffffffffffffffffffffffffffffffffffffff1673ffffffffffffffffffffffffffffffffffffffff1681526020018281526020019350505050602060405180830381600087803b158015610b3157600080fd5b505af1158015610b45573d6000803e3d6000fd5b505050506040513d6020811015610b5b57600080fd5b8101908080519060200190929190505050506000610b7d600a84612710611e55565b9050610b9481600154611e8590919063ffffffff16565b6001819055506000839050610bb28282611f0d90919063ffffffff16565b905060008111610c2a576040517f08c379a000000000000000000000000000000000000000000000000000000000815260040180806020018281038252600e8152602001807f416d6f756e74206973207a65726f00000000000000000000000000000000000081525060200191505060405180910390fd5b610c348382611f96565b60606003604051908082528060200260200182016040528015610c665781602001602082028038833980820191505090505b50905060008090505b6003811015610cb1576011600082815260200190815260200160002054828281518110610c9857fe5b6020026020010181815250508080600101915050610c6f565b507fc8e958548fccdffbf9c276cfc3c82e4d32a921639d31efbb2eb2d47346f84212600e54826040518083815260200180602001828103825283818151815260200191508051906020019060200280838360005b83811015610d20578082015181840152602081019050610d05565b50505050905001935050505060405180910390a15050505050565b610d436110e5565b610db5576040517f08c379a00000000000000000000000000000000000000000000000000000000081526004018080602001828103825260208152602001807f4f776e61626c653a2063616c6c6572206973206e6f7420746865206f776e657281525060200191505060405180910390fd5b600073ffffffffffffffffffffffffffffffffffffffff166000809054906101000a900473ffffffffffffffffffffffffffffffffffffffff1673ffffffffffffffffffffffffffffffffffffffff167f8be0079c531659141344cd1fd0a4f28419497f9722a3daafe3b4186f6b6457e060405160405180910390a360008060006101000a81548173ffffffffffffffffffffffffffffffffffffffff021916908373ffffffffffffffffffffffffffffffffffffffff160217905550565b6000806000610e816110e5565b610ef3576040517f08c379a00000000000000000000000000000000000000000000000000000000081526004018080602001828103825260208152602001807f4f776e61626c653a2063616c6c6572206973206e6f7420746865206f776e657281525060200191505060405180910390fd5b6000600a6002015414610f6e576040517f08c379a00000000000000000000000000000000000000000000000000000000081526004018080602001828103825260168152602001807f4d61726b657420616c726561647920737461727465640000000000000000000081525060200191505060405180910390fd5b426004600001541115610fe9576040517f08c379a00000000000000000000000000000000000000000000000000000000081526004018080602001828103825260118152602001807f4265666f72652073746172742074696d6500000000000000000000000000000081525060200191505060405180910390fd5b610ff7600460000154611735565b600a6002018190555061101d600460050154600a60020154611f0d90919063ffffffff16565b600460030181905550611043600460050154600a60020154611e8590919063ffffffff16565b60048001819055507f54ef7c91afda504857a150f9cf55ebe6858f313740bf085035fca4c46cd50e30600a60020154600460030154600480015460405180848152602001838152602001828152602001935050505060405180910390a1600a600201549250600460030154915060048001549050909192565b60008060009054906101000a900473ffffffffffffffffffffffffffffffffffffffff16905090565b60008060009054906101000a900473ffffffffffffffffffffffffffffffffffffffff1673ffffffffffffffffffffffffffffffffffffffff163373ffffffffffffffffffffffffffffffffffffffff1614905090565b600a8060000154908060010154908060020154908060030154905084565b6000606080600360405190808252806020026020018201604052801561118f5781602001602082028038833980820191505090505b50915060036040519080825280602002602001820160405280156111c25781602001602082028038833980820191505090505b509050600e54925060008090505b60038110156112d45760116000828152602001908152602001600020548382815181106111f957fe5b602002602001018181525050601060003373ffffffffffffffffffffffffffffffffffffffff1673ffffffffffffffffffffffffffffffffffffffff16815260200190815260200160002060010160019054906101000a900460ff16156112c757601060003373ffffffffffffffffffffffffffffffffffffffff1673ffffffffffffffffffffffffffffffffffffffff1681526020019081526020016000206000016000828152602001908152602001600020548282815181106112ba57fe5b6020026020010181815250505b80806001019150506111d0565b50909192565b60048060000154908060010154908060020154908060030154908060040154908060050154905086565b61130c6110e5565b61137e576040517f08c379a00000000000000000000000000000000000000000000000000000000081526004018080602001828103825260208152602001807f4f776e61626c653a2063616c6c6572206973206e6f7420746865206f776e657281525060200191505060405180910390fd5b6000600460000154146113f9576040517f08c379a00000000000000000000000000000000000000000000000000000000081526004018080602001828103825260138152602001807f416c726561647920696e697469616c697a65640000000000000000000000000081525060200191505060405180910390fd5b4261140d8486611e8590919063ffffffff16565b1161141757600080fd5b836004600001819055506114348385611e8590919063ffffffff16565b60046001018190555061145583600460010154611e8590919063ffffffff16565b600460020181905550816004600501819055506003600a6000018190555080600260006101000a81548173ffffffffffffffffffffffffffffffffffffffff021916908373ffffffffffffffffffffffffffffffffffffffff160217905550600260009054906101000a900473ffffffffffffffffffffffffffffffffffffffff1673ffffffffffffffffffffffffffffffffffffffff1663012088376040518163ffffffff167c0100000000000000000000000000000000000000000000000000000000028152600401600060405180830381600087803b15801561153a57600080fd5b505af115801561154e573d6000803e3d6000fd5b505050507fed25ec23d979bebc7c6a7e5ffebb0fbd64b71f7e6dc13dec21f220f5b91081b960046000015460046001015460046002015460405180848152602001838152602001828152602001935050505060405180910390a150505050565b6115b66110e5565b611628576040517f08c379a00000000000000000000000000000000000000000000000000000000081526004018080602001828103825260208152602001807f4f776e61626c653a2063616c6c6572206973206e6f7420746865206f776e657281525060200191505060405180910390fd5b42600460020154106116a2576040517f08c379a00000000000000000000000000000000000000000000000000000000081526004018080602001828103825260198152602001807f4d61726b657420686173206e6f7420656e646564207965742e0000000000000081525060200191505060405180910390fd5b6116b0600460020154611735565b600a600301819055506116c7600a6003015461229b565b7e0b6feae4bec70344a7d0e99f4c0237adaaeee2fbb258266be400bd8612a332600a60030154600a60000154604051808381526020018281526020019250505060405180910390a1565b7f4554482f5553445400000000000000000000000000000000000000000000000081565b600042821061174357600080fd5b6000806000739326bfa02add2366b30bacb125260af64103133173ffffffffffffffffffffffffffffffffffffffff1663feaf968c6040518163ffffffff167c010000000000000000000000000000000000000000000000000000000002815260040160a06040518083038186803b1580156117be57600080fd5b505afa1580156117d2573d6000803e3d6000fd5b505050506040513d60a08110156117e857600080fd5b810190808051906020019092919080519060200190929190805190602001909291908051906020019092919080519060200190929190505050909150508093508195508294505050505b8481111561196057818060019003925050739326bfa02add2366b30bacb125260af64103133173ffffffffffffffffffffffffffffffffffffffff16639a6fc8f5836040518263ffffffff167c0100000000000000000000000000000000000000000000000000000000028152600401808269ffffffffffffffffffff1669ffffffffffffffffffff16815260200191505060a06040518083038186803b1580156118dc57600080fd5b505afa1580156118f0573d6000803e3d6000fd5b505050506040513d60a081101561190657600080fd5b8101908080519060200190929190805190602001909291908051906020019092919080519060200190929190805190602001909291905050509091505080935081955082945050505084811161195b57611960565b611832565b829350505050919050565b6119736110e5565b6119e5576040517f08c379a00000000000000000000000000000000000000000000000000000000081526004018080602001828103825260208152602001807f4f776e61626c653a2063616c6c6572206973206e6f7420746865206f776e657281525060200191505060405180910390fd5b6119ee816124c1565b50565b6119f96110e5565b611a6b576040517f08c379a00000000000000000000000000000000000000000000000000000000081526004018080602001828103825260208152602001807f4f776e61626c653a2063616c6c6572206973206e6f7420746865206f776e657281525060200191505060405180910390fd5b60008090505b600e54811015611b1657600060106000600f600085815260200190815260200160002060009054906101000a900473ffffffffffffffffffffffffffffffffffffffff1673ffffffffffffffffffffffffffffffffffffffff1673ffffffffffffffffffffffffffffffffffffffff16815260200190815260200160002060010160016101000a81548160ff0219169083151502179055508080600101915050611a71565b506004600080820160009055600182016000905560028201600090556003820160009055600482016000905560058201600090555050600a6000808201600090556001820160009055600282016000905560038201600090555050600e6000905560016000905560008090505b6003811015611bb257600060116000838152602001908152602001600020819055508080600101915050611b83565b50565b600080831415611bc85760009050611c35565b6000828402905082848281611bd957fe5b0414611c30576040517f08c379a000000000000000000000000000000000000000000000000000000000815260040180806020018281038252602181526020018061262c6021913960400191505060405180910390fd5b809150505b92915050565b6000808211611cb2576040517f08c379a000000000000000000000000000000000000000000000000000000000815260040180806020018281038252601a8152602001807f536166654d6174683a206469766973696f6e206279207a65726f00000000000081525060200191505060405180910390fd5b6000828481611cbd57fe5b0490508091505092915050565b6000811115611e505773eeeeeeeeeeeeeeeeeeeeeeeeeeeeeeeeeeeeeeee73ffffffffffffffffffffffffffffffffffffffff168373ffffffffffffffffffffffffffffffffffffffff161415611d67578173ffffffffffffffffffffffffffffffffffffffff166108fc829081150290604051600060405180830381858888f19350505050158015611d61573d6000803e3d6000fd5b50611e4f565b8273ffffffffffffffffffffffffffffffffffffffff1663a9059cbb83836040518363ffffffff167c0100000000000000000000000000000000000000000000000000000000028152600401808373ffffffffffffffffffffffffffffffffffffffff1673ffffffffffffffffffffffffffffffffffffffff16815260200182815260200192505050602060405180830381600087803b158015611e0a57600080fd5b505af1158015611e1e573d6000803e3d6000fd5b505050506040513d6020811015611e3457600080fd5b8101908080519060200190929190505050611e4e57600080fd5b5b5b505050565b6000611e7c82611e6e8587611bb590919063ffffffff16565b611c3b90919063ffffffff16565b90509392505050565b600080828401905083811015611f03576040517f08c379a000000000000000000000000000000000000000000000000000000000815260040180806020018281038252601b8152602001807f536166654d6174683a206164646974696f6e206f766572666c6f77000000000081525060200191505060405180910390fd5b8091505092915050565b600082821115611f85576040517f08c379a000000000000000000000000000000000000000000000000000000000815260040180806020018281038252601e8152602001807f536166654d6174683a207375627472616374696f6e206f766572666c6f77000081525060200191505060405180910390fd5b600082840390508091505092915050565b60001515601060003373ffffffffffffffffffffffffffffffffffffffff1673ffffffffffffffffffffffffffffffffffffffff16815260200190815260200160002060010160019054906101000a900460ff161515141561219d57601060003373ffffffffffffffffffffffffffffffffffffffff1673ffffffffffffffffffffffffffffffffffffffff16815260200190815260200160002060006001820160006101000a81549060ff02191690556001820160016101000a81549060ff02191690556002820160009055505060008090505b60038110156120da576000601060003373ffffffffffffffffffffffffffffffffffffffff1673ffffffffffffffffffffffffffffffffffffffff168152602001908152602001600020600001600083815260200190815260200160002081905550808060010191505061206b565b506001601060003373ffffffffffffffffffffffffffffffffffffffff1673ffffffffffffffffffffffffffffffffffffffff16815260200190815260200160002060010160016101000a81548160ff02191690831515021790555033600f6000600e54815260200190815260200160002060006101000a81548173ffffffffffffffffffffffffffffffffffffffff021916908373ffffffffffffffffffffffffffffffffffffffff160217905550600e600081548092919060010191905055505b61220381601060003373ffffffffffffffffffffffffffffffffffffffff1673ffffffffffffffffffffffffffffffffffffffff168152602001908152602001600020600001600085815260200190815260200160002054611e8590919063ffffffff16565b601060003373ffffffffffffffffffffffffffffffffffffffff1673ffffffffffffffffffffffffffffffffffffffff168152602001908152602001600020600001600084815260200190815260200160002081905550612280816011600085815260200190815260200160002054611e8590919063ffffffff16565b60116000848152602001908152602001600020819055505050565b4260046002015410612315576040517f08c379a00000000000000000000000000000000000000000000000000000000081526004018080602001828103825260108152602001807f54696d65206e6f7420726561636865640000000000000000000000000000000081525060200191505060405180910390fd5b6000811161238b576040517f08c379a000000000000000000000000000000000000000000000000000000000815260040180806020018281038252601e8152602001807f76616c75652073686f756c642062652067726561746572207468616e2030000081525060200191505060405180910390fd5b60006004600301548210156123b4576002808111156123a657fe5b600a600001819055506123f3565b60048001548211156123db57600060028111156123cd57fe5b600a600001819055506123f2565b600160028111156123e857fe5b600a600001819055505b5b600060116000600a60000154815260200190815260200160002054111561246457600090505b60038110156124635761244d6011600083815260200190815260200160002054600a60010154611e8590919063ffffffff16565b600a600101819055508080600101915050612419565b5b600090505b600e548110156124bd576124af600f600083815260200190815260200160002060009054906101000a900473ffffffffffffffffffffffffffffffffffffffff16610694565b508080600101915050612469565b5050565b600073ffffffffffffffffffffffffffffffffffffffff168173ffffffffffffffffffffffffffffffffffffffff161415612547576040517f08c379a00000000000000000000000000000000000000000000000000000000081526004018080602001828103825260268152602001806126066026913960400191505060405180910390fd5b8073ffffffffffffffffffffffffffffffffffffffff166000809054906101000a900473ffffffffffffffffffffffffffffffffffffffff1673ffffffffffffffffffffffffffffffffffffffff167f8be0079c531659141344cd1fd0a4f28419497f9722a3daafe3b4186f6b6457e060405160405180910390a3806000806101000a81548173ffffffffffffffffffffffffffffffffffffffff021916908373ffffffffffffffffffffffffffffffffffffffff1602179055505056fe4f776e61626c653a206e6577206f776e657220697320746865207a65726f2061646472657373536166654d6174683a206d756c7469706c69636174696f6e206f766572666c6f77a165627a7a7230582097fabba90abdfcdc3b4827d78e03aeae98b744cc67f6628a89ad1893ff98bc920029",
  "source": "\r\npragma solidity 0.5.7;\r\n\r\nimport \"./external/openzeppelin-solidity/math/SafeMath.sol\";\r\nimport \"./external/openzeppelin-solidity/ownership/Ownable.sol\";\r\nimport \"./external/openzeppelin-solidity/token/ERC20/IERC20.sol\";\r\nimport \"./interfaces/IToken.sol\";\r\nimport \"./interfaces/IMarketRegistry.sol\";\r\nimport \"./interfaces/IChainLinkOracle.sol\";\r\n\r\ncontract Market is Ownable {\r\n  using SafeMath for *;\r\n\r\n  enum Option {\r\n    Bullish,\r\n    Neutral,\r\n    Bearish\r\n  }\r\n  \r\n  struct MarketData {\r\n    uint256 startTime;\r\n    uint256 predictionTime;\r\n    uint256 endTime;\r\n    uint256 neutralMinValue;\r\n    uint256 neutralMaxValue;\r\n    uint256 neutralRange;\r\n  }\r\n\r\n  struct MarketResult {\r\n    uint256 winningOption;\r\n    uint256 totalReward;\r\n    uint256 startPrice;\r\n    uint256 endPrice;\r\n  }\r\n\r\n  struct UserData {\r\n    mapping(uint256 => uint256) assetStaked;\r\n    bool claimedReward;\r\n    bool available;\r\n    uint256 returnAmount;\r\n  }\r\n    \r\n  bytes32 public constant marketCurrency = \"ETH/USDT\";\r\n  \r\n  address constant ETH_ADDRESS = 0xEeeeeEeeeEeEeeEeEeEeeEEEeeeeEeeeeeeeEEeE;\r\n  address constant PRICE_FEED_ADDRESS = 0x9326BFA02ADD2366b30bacB125260Af641031331;\r\n  address constant ASSET_ADDRESS = 0x4F96Fe3b7A6Cf9725f59d353F723c1bDb64CA6Aa;\r\n  uint256 constant MIN_STAKE_AMOUNT = 1;\r\n  uint256 constant COMMISSION_PERCENTAGE = 10; //with 2 decimals\r\n  uint256 constant totalOptions = 3;\r\n\r\n  uint256 totalCommissionAmount;\r\n\r\n  IMarketRegistry marketRegistry;\r\n  IERC20 assetToken = IERC20(ASSET_ADDRESS);\r\n  \r\n  MarketData public marketData;\r\n  MarketResult public marketResult;\r\n  uint256 totalUsers;\r\n  mapping(uint256 => address) internal users;\r\n  mapping(address => UserData) internal userData;\r\n  mapping(uint256 => uint256) internal optionsStaked;\r\n\r\n  /**\r\n    * @dev Initialize the market.\r\n    * @param _startTime The time at which market will create.\r\n    * @param _duration The time duration of market.\r\n    * @param _neutralRange The neutral option range.\r\n    */\r\n  function initiate(uint256 _startTime, uint256 _duration, uint256 _neutralRange, address registry) external onlyOwner {\r\n    require(marketData.startTime == 0, \"Already initialized\");\r\n    require(_startTime.add(_duration) > now);\r\n    marketData.startTime = _startTime;\r\n    marketData.predictionTime = _startTime.add(_duration);\r\n    marketData.endTime = marketData.predictionTime.add(_duration);\r\n    marketData.neutralRange = _neutralRange;\r\n    marketResult.winningOption = totalOptions;\r\n    marketRegistry = IMarketRegistry(registry);\r\n    marketRegistry.registerMarket();\r\n    emit MarketCreated(marketData.startTime, marketData.predictionTime, marketData.endTime);\r\n  }\r\n\r\n  /**\r\n    * @dev Place prediction on the available options of the market.\r\n    * @param _stakeAmount The amount staked by user at the time of prediction.\r\n    * @param _option The option on which user placed prediction.\r\n    */\r\n  function placePrediction(uint256 _stakeAmount, uint256 _option) external payable {\r\n    require(_option < totalOptions, \"Option is invalid\");\r\n    require(_stakeAmount >= MIN_STAKE_AMOUNT, \"Too small amount\");\r\n    require(now >= marketData.startTime, \"Market has not started yet\");\r\n    require(now <= marketData.predictionTime, \"Market prediction has expried.\");\r\n\r\n    require(msg.value == 0, \"Not allowed transaction value.\");\r\n    assetToken.transferFrom(msg.sender, address(this), _stakeAmount);\r\n    uint256 commissionAmount = _calculatePercentage(COMMISSION_PERCENTAGE, _stakeAmount, 10000);\r\n    totalCommissionAmount = totalCommissionAmount.add(commissionAmount);\r\n    uint256 realAmount = _stakeAmount;\r\n    realAmount = realAmount.sub(commissionAmount);\r\n\r\n    require(realAmount > 0, \"Amount is zero\");\r\n    _storePredictionData(_option, realAmount);\r\n\r\n    uint256[] memory totalStaked = new uint256[](totalOptions);\r\n    for (uint256 i = 0; i < totalOptions; i++) {\r\n      totalStaked[i] = optionsStaked[i];\r\n    }\r\n\r\n    emit PredictionDataUpdated(totalUsers, totalStaked);\r\n  }\r\n  \r\n  /**\r\n    * @dev Calculate the result of market.\r\n    * @param _value The current price of market currency.\r\n    */\r\n  function _postResult(uint256 _value) internal {\r\n    require(marketData.endTime < now, \"Time not reached\");\r\n    require(_value > 0,\"value should be greater than 0\");\r\n    \r\n    uint256 i;\r\n\r\n    if(_value < marketData.neutralMinValue) {\r\n      marketResult.winningOption = uint256(Option.Bearish);\r\n    } else if(_value > marketData.neutralMaxValue) {\r\n      marketResult.winningOption = uint256(Option.Bullish);\r\n    } else {\r\n      marketResult.winningOption = uint256(Option.Neutral);\r\n    }\r\n    if (optionsStaked[marketResult.winningOption] > 0) {\r\n      for(i = 0; i < totalOptions; i++){\r\n        marketResult.totalReward = marketResult.totalReward.add(optionsStaked[i]);\r\n      }\r\n    }\r\n    for (i = 0; i < totalUsers; i++) {\r\n      claimReturn(users[i]);\r\n    }\r\n  }\r\n\r\n  function _calculatePercentage(uint256 _percent, uint256 _value, uint256 _divisor) internal pure returns(uint256) {\r\n    return _percent.mul(_value).div(_divisor);\r\n  }\r\n\r\n  /**\r\n    * @dev Stores the prediction data.\r\n    * @param _option The option on which user place prediction.\r\n    * @param _stakeAmount The amount staked by user at the time of prediction.\r\n    */\r\n  function _storePredictionData(uint256 _option, uint256 _stakeAmount) internal {\r\n    if (userData[msg.sender].available == false) {\r\n      delete userData[msg.sender];\r\n      for (uint256 i = 0; i < totalOptions; i++) {\r\n        userData[msg.sender].assetStaked[i] = 0;\r\n      }\r\n      userData[msg.sender].available = true;\r\n      users[totalUsers] = msg.sender;\r\n      totalUsers++;\r\n    }\r\n    userData[msg.sender].assetStaked[_option] = userData[msg.sender].assetStaked[_option].add(_stakeAmount);\r\n    optionsStaked[_option] = optionsStaked[_option].add(_stakeAmount);\r\n  }\r\n  \r\n  /**\r\n    * @dev Settle the market, setting the winning option\r\n    */\r\n  function endMarket() external onlyOwner {\r\n    require(marketData.endTime < now, \"Market has not ended yet.\");\r\n    marketResult.endPrice = getPrice(marketData.endTime);\r\n    _postResult(marketResult.endPrice);\r\n    emit MarketEnded(marketResult.endPrice, marketResult.winningOption);\r\n  }\r\n\r\n  /**\r\n    * @dev Get price of provided feed address\r\n    **/\r\n  function getPrice(uint256 _time) public view returns (uint256) {\r\n    require(_time < now);\r\n    int256 currentRoundAnswer;\r\n    uint80 currentRoundId;\r\n    uint256 currentRoundTime;\r\n    (currentRoundId, currentRoundAnswer, , currentRoundTime, )= IChainLinkOracle(PRICE_FEED_ADDRESS).latestRoundData();\r\n    while(currentRoundTime > _time) {\r\n      currentRoundId--;\r\n      (currentRoundId, currentRoundAnswer, , currentRoundTime, )= IChainLinkOracle(PRICE_FEED_ADDRESS).getRoundData(currentRoundId);\r\n      if(currentRoundTime <= _time) {\r\n        break;\r\n      }\r\n    }\r\n    return uint256(currentRoundAnswer);\r\n  }\r\n\r\n  /**\r\n    * @dev Claim the return amount of the specified address.\r\n    * @param _user The address to query the claim return amount of.\r\n    * @return Flag, if 0:cannot claim, 1: Already Claimed, 2: Claimed\r\n    */\r\n  function claimReturn(address _user) public returns(uint256) {\r\n\r\n    if(userData[_user].claimedReward) {\r\n      return 1;\r\n    }\r\n    userData[_user].claimedReward = true;\r\n    uint256 _returnAmount = getReturn(_user);\r\n    if (_returnAmount > 0) {\r\n      _transferAsset(ASSET_ADDRESS, address(uint160(_user)), _returnAmount);\r\n    }\r\n    userData[_user].returnAmount = _returnAmount;\r\n    return 2;\r\n  }\r\n\r\n  /**\r\n    * @dev Transfer the assets to specified address.\r\n    * @param _asset The asset transfer to the specific address.\r\n    * @param _recipient The address to transfer the asset of\r\n    * @param _amount The amount which is transfer.\r\n    */\r\n  function _transferAsset(address _asset, address payable _recipient, uint256 _amount) internal {\r\n    if(_amount > 0) { \r\n      if(_asset == ETH_ADDRESS) {\r\n        _recipient.transfer(_amount);\r\n      } else {\r\n        require(IToken(_asset).transfer(_recipient, _amount));\r\n      }\r\n    }\r\n  }\r\n\r\n  /**\r\n  * @dev Gets the return amount of the specified address.\r\n  * @param _user The address to specify the return of\r\n  * @return returnAmount uint256 memory representing the return amount.\r\n  */\r\n  function getReturn(address _user) public view returns (uint256) {\r\n    if (optionsStaked[marketResult.winningOption] == 0) {\r\n      return 0;\r\n    }\r\n    else {\r\n      return userData[_user].assetStaked[marketResult.winningOption].mul(marketResult.totalReward).div(optionsStaked[marketResult.winningOption]);\r\n    }\r\n  }\r\n\r\n  function getPredictionData() public view returns (uint256 totalParticipants, uint256[] memory totalStaked, uint256[] memory userStaked) {\r\n    totalStaked = new uint256[](totalOptions);\r\n    userStaked = new uint256[](totalOptions);\r\n    totalParticipants = totalUsers;\r\n    uint256 i;\r\n    for(i = 0; i < totalOptions; i++) {\r\n      totalStaked[i] = optionsStaked[i];\r\n      if (userData[msg.sender].available)\r\n        userStaked[i] = userData[msg.sender].assetStaked[i];\r\n    }\r\n  }\r\n\r\n  function getCurrentTime() public view returns (uint256) {\r\n    return now;\r\n  }\r\n\r\n  /**\r\n    * @dev Start market\r\n    */\r\n  function startMarket() external onlyOwner returns (uint256 startPrice, uint256 neutralMinValue, uint256 neutralMaxValue) {\r\n    require(marketResult.startPrice == 0, \"Market already started\");\r\n    require(marketData.startTime <= now, \"Before start time\");\r\n\r\n    marketResult.startPrice = getPrice(marketData.startTime);\r\n    marketData.neutralMinValue = marketResult.startPrice.sub(marketData.neutralRange);\r\n    marketData.neutralMaxValue = marketResult.startPrice.add(marketData.neutralRange);\r\n    emit MarketStarted(marketResult.startPrice, marketData.neutralMinValue, marketData.neutralMaxValue);\r\n    startPrice = marketResult.startPrice;\r\n    neutralMinValue = marketData.neutralMinValue;\r\n    neutralMaxValue = marketData.neutralMaxValue;\r\n  }\r\n\r\n  /**\r\n    * @dev Clear market.\r\n    */\r\n  function clearMarket() public payable onlyOwner {\r\n    for (uint256 i = 0; i < totalUsers; i++) {\r\n      userData[users[i]].available = false;\r\n    }\r\n    delete marketData;\r\n    delete marketResult;\r\n    delete totalUsers;\r\n    delete totalCommissionAmount;\r\n\r\n    for (uint256 i = 0; i < totalOptions; i++) {\r\n      optionsStaked[i] = 0;\r\n    }\r\n  }\r\n\r\n  event MarketCreated (\r\n    uint256 startTime,\r\n    uint256 predictionTime,\r\n    uint256 endTime\r\n  );\r\n\r\n  event MarketStarted (\r\n    uint256 startPrice,\r\n    uint256 neutralMinValue,\r\n    uint256 neutralMaxValue\r\n  );\r\n\r\n  event PredictionDataUpdated (\r\n    uint256 totalParticipants,\r\n    uint256[] totalStaked\r\n  );\r\n\r\n  event MarketEnded (\r\n    uint256 endPrice,\r\n    uint256 winningOption\r\n  );\r\n}",
  "sourcePath": "E:/work/blockchain/prex/work/prex-smart-contracts/contracts/Market.sol",
  "compiler": {
    "name": "solc",
    "version": "0.5.7+commit.6da8b019.Emscripten.clang"
  },
  "schemaVersion": "3.3.3",
  "updatedAt": "2021-03-12T21:23:05.128Z",
  "networkType": "ethereum",
  "devdoc": {
    "methods": {
      "claimReturn(address)": {
        "details": "Claim the return amount of the specified address.\r",
        "params": {
          "_user": "The address to query the claim return amount of.\r"
        },
        "return": "Flag, if 0:cannot claim, 1: Already Claimed, 2: Claimed\r"
      },
      "clearMarket()": {
        "details": "Clear market.\r"
      },
      "endMarket()": {
        "details": "Settle the market, setting the winning option\r"
      },
      "getPrice(uint256)": {
        "details": "Get price of provided feed address\r*"
      },
      "getReturn(address)": {
        "details": "Gets the return amount of the specified address.\r",
        "params": {
          "_user": "The address to specify the return of\r"
        },
        "return": "returnAmount uint256 memory representing the return amount.\r"
      },
      "initiate(uint256,uint256,uint256,address)": {
        "details": "Initialize the market.\r",
        "params": {
          "_duration": "The time duration of market.\r",
          "_neutralRange": "The neutral option range.\r",
          "_startTime": "The time at which market will create.\r"
        }
      },
      "isOwner()": {
        "details": "Returns true if the caller is the current owner.\r"
      },
      "owner()": {
        "details": "Returns the address of the current owner.\r"
      },
      "placePrediction(uint256,uint256)": {
        "details": "Place prediction on the available options of the market.\r",
        "params": {
          "_option": "The option on which user placed prediction.\r",
          "_stakeAmount": "The amount staked by user at the time of prediction.\r"
        }
      },
      "renounceOwnership()": {
        "details": "Leaves the contract without owner. It will not be possible to call\r `onlyOwner` functions anymore. Can only be called by the current owner.\r      * > Note: Renouncing ownership will leave the contract without an owner,\r thereby removing any functionality that is only available to the owner.\r"
      },
      "startMarket()": {
        "details": "Start market\r"
      },
      "transferOwnership(address)": {
        "details": "Transfers ownership of the contract to a new account (`newOwner`).\r Can only be called by the current owner.\r"
      }
    }
  },
  "userdoc": {
    "methods": {}
  }
}