{
  "contractName": "MarketRegistry",
  "abi": [
    {
      "constant": true,
      "inputs": [
        {
          "name": "",
          "type": "uint256"
        }
      ],
      "name": "marketPairs",
      "outputs": [
        {
          "name": "name",
          "type": "string"
        },
        {
          "name": "feedAddress",
          "type": "address"
        },
        {
          "name": "decimal",
          "type": "uint256"
        },
        {
          "name": "totalRounds",
          "type": "uint256"
        }
      ],
      "payable": false,
      "stateMutability": "view",
      "type": "function"
    },
    {
      "constant": false,
      "inputs": [],
      "name": "renounceOwnership",
      "outputs": [],
      "payable": false,
      "stateMutability": "nonpayable",
      "type": "function"
    },
    {
      "constant": true,
      "inputs": [],
      "name": "owner",
      "outputs": [
        {
          "name": "",
          "type": "address"
        }
      ],
      "payable": false,
      "stateMutability": "view",
      "type": "function"
    },
    {
      "constant": true,
      "inputs": [],
      "name": "isOwner",
      "outputs": [
        {
          "name": "",
          "type": "bool"
        }
      ],
      "payable": false,
      "stateMutability": "view",
      "type": "function"
    },
    {
      "constant": true,
      "inputs": [
        {
          "name": "",
          "type": "uint256"
        }
      ],
      "name": "markets",
      "outputs": [
        {
          "name": "addr",
          "type": "address"
        }
      ],
      "payable": false,
      "stateMutability": "view",
      "type": "function"
    },
    {
      "constant": false,
      "inputs": [
        {
          "name": "newOwner",
          "type": "address"
        }
      ],
      "name": "transferOwnership",
      "outputs": [],
      "payable": false,
      "stateMutability": "nonpayable",
      "type": "function"
    },
    {
      "inputs": [],
      "payable": false,
      "stateMutability": "nonpayable",
      "type": "constructor"
    },
    {
      "anonymous": false,
      "inputs": [
        {
          "indexed": false,
          "name": "marketPair",
          "type": "uint256"
        },
        {
          "indexed": false,
          "name": "roundId",
          "type": "uint256"
        },
        {
          "indexed": false,
          "name": "marketAddress",
          "type": "address"
        }
      ],
      "name": "MarketCreated",
      "type": "event"
    },
    {
      "anonymous": false,
      "inputs": [
        {
          "indexed": true,
          "name": "previousOwner",
          "type": "address"
        },
        {
          "indexed": true,
          "name": "newOwner",
          "type": "address"
        }
      ],
      "name": "OwnershipTransferred",
      "type": "event"
    },
    {
      "constant": false,
      "inputs": [
        {
          "name": "_pair",
          "type": "uint256"
        }
      ],
      "name": "registerMarket",
      "outputs": [
        {
          "name": "",
          "type": "uint256"
        }
      ],
      "payable": false,
      "stateMutability": "nonpayable",
      "type": "function"
    },
    {
      "constant": false,
      "inputs": [
        {
          "name": "_pair",
          "type": "uint256"
        },
        {
          "name": "_startTime",
          "type": "uint256"
        },
        {
          "name": "_duration",
          "type": "uint256"
        }
      ],
      "name": "createMarket",
      "outputs": [],
      "payable": false,
      "stateMutability": "nonpayable",
      "type": "function"
    },
    {
      "constant": true,
      "inputs": [
        {
          "name": "_time",
          "type": "uint256"
        },
        {
          "name": "_pair",
          "type": "uint256"
        }
      ],
      "name": "getPairPrice",
      "outputs": [
        {
          "name": "",
          "type": "uint256"
        }
      ],
      "payable": false,
      "stateMutability": "view",
      "type": "function"
    },
    {
      "constant": true,
      "inputs": [
        {
          "name": "from",
          "type": "uint256"
        },
        {
          "name": "cnt",
          "type": "uint256"
        }
      ],
      "name": "getMarkets",
      "outputs": [
        {
          "name": "_markets",
          "type": "address[]"
        }
      ],
      "payable": false,
      "stateMutability": "view",
      "type": "function"
    },
    {
      "constant": false,
      "inputs": [],
      "name": "clearMarket",
      "outputs": [],
      "payable": false,
      "stateMutability": "nonpayable",
      "type": "function"
    },
    {
      "constant": true,
      "inputs": [],
      "name": "getRegistryData",
      "outputs": [
        {
          "name": "_nPairs",
          "type": "uint256"
        },
        {
          "name": "_time",
          "type": "uint256"
        }
      ],
      "payable": false,
      "stateMutability": "view",
      "type": "function"
    },
    {
      "constant": true,
      "inputs": [],
      "name": "getMarketList",
      "outputs": [
        {
          "name": "_markets",
          "type": "address[]"
        }
      ],
      "payable": false,
      "stateMutability": "view",
      "type": "function"
    },
    {
      "constant": true,
      "inputs": [],
      "name": "getCurrentTime",
      "outputs": [
        {
          "name": "",
          "type": "uint256"
        }
      ],
      "payable": false,
      "stateMutability": "view",
      "type": "function"
    }
  ],
  "bytecode": "0x60806040523480156200001157600080fd5b50336000806101000a81548173ffffffffffffffffffffffffffffffffffffffff021916908373ffffffffffffffffffffffffffffffffffffffff1602179055506000809054906101000a900473ffffffffffffffffffffffffffffffffffffffff1673ffffffffffffffffffffffffffffffffffffffff16600073ffffffffffffffffffffffffffffffffffffffff167f8be0079c531659141344cd1fd0a4f28419497f9722a3daafe3b4186f6b6457e060405160405180910390a3600160405180608001604052806040518060400160405280600781526020017f4554482f555344000000000000000000000000000000000000000000000000008152508152602001739326bfa02add2366b30bacb125260af64103133173ffffffffffffffffffffffffffffffffffffffff1681526020016008815260200160008152509080600181540180825580915050906001820390600052602060002090600402016000909192909190915060008201518160000190805190602001906200019b9291906200032c565b5060208201518160010160006101000a81548173ffffffffffffffffffffffffffffffffffffffff021916908373ffffffffffffffffffffffffffffffffffffffff1602179055506040820151816002015560608201518160030155505050600160405180608001604052806040518060400160405280600781526020017f4254432f555344000000000000000000000000000000000000000000000000008152508152602001736135b13325bfc4b00278b4abc5e20bbce2d6580e73ffffffffffffffffffffffffffffffffffffffff168152602001600881526020016000815250908060018154018082558091505090600182039060005260206000209060040201600090919290919091506000820151816000019080519060200190620002c79291906200032c565b5060208201518160010160006101000a81548173ffffffffffffffffffffffffffffffffffffffff021916908373ffffffffffffffffffffffffffffffffffffffff1602179055506040820151816002015560608201518160030155505050620003db565b828054600181600116156101000203166002900490600052602060002090601f016020900481019282601f106200036f57805160ff1916838001178555620003a0565b82800160010185558215620003a0579182015b828111156200039f57825182559160200191906001019062000382565b5b509050620003af9190620003b3565b5090565b620003d891905b80821115620003d4576000816000905550600101620003ba565b5090565b90565b61370880620003eb6000396000f3fe60806040523480156200001157600080fd5b50600436106200011c576000357c010000000000000000000000000000000000000000000000000000000090048063715018a611620000b65780638f32d59b116200008c5780638f32d59b146200047c578063b1283e7714620004a0578063f2fde38b1462000511578063fc81587a1462000558576200011c565b8063715018a6146200039257806380968d48146200039e5780638da5cb5b1462000430576200011c565b80635b9907a411620000f85780635b9907a414620001d55780635f71acf41462000238578063644b8e85146200027d5780636cda405914620002a4576200011c565b80628332c91462000121578063059a3384146200017057806329cb924d14620001b5575b600080fd5b6200015a600480360360408110156200013957600080fd5b81019080803590602001909291908035906020019092919050505062000564565b6040518082815260200191505060405180910390f35b620001b3600480360360608110156200018857600080fd5b810190808035906020019092919080359060200190929190803590602001909291905050506200089a565b005b620001bf62000c13565b6040518082815260200191505060405180910390f35b620001df62000c1b565b6040518080602001828103825283818151815260200191508051906020019060200280838360005b838110156200022457808201518184015260208101905062000207565b505050509050019250505060405180910390f35b62000267600480360360208110156200025057600080fd5b810190808035906020019092919050505062000cfe565b6040518082815260200191505060405180910390f35b6200028762000eef565b604051808381526020018281526020019250505060405180910390f35b620002d360048036036020811015620002bc57600080fd5b810190808035906020019092919050505062000f01565b60405180806020018573ffffffffffffffffffffffffffffffffffffffff1673ffffffffffffffffffffffffffffffffffffffff168152602001848152602001838152602001828103825286818151815260200191508051906020019080838360005b838110156200035357808201518184015260208101905062000336565b50505050905090810190601f168015620003815780820380516001836020036101000a031916815260200191505b509550505050505060405180910390f35b6200039c62000ffb565b005b620003d760048036036040811015620003b657600080fd5b81019080803590602001909291908035906020019092919050505062001137565b6040518080602001828103825283818151815260200191508051906020019060200280838360005b838110156200041c578082015181840152602081019050620003ff565b505050509050019250505060405180910390f35b6200043a620012df565b604051808273ffffffffffffffffffffffffffffffffffffffff1673ffffffffffffffffffffffffffffffffffffffff16815260200191505060405180910390f35b6200048662001308565b604051808215151515815260200191505060405180910390f35b620004cf60048036036020811015620004b857600080fd5b81019080803590602001909291905050506200135f565b604051808273ffffffffffffffffffffffffffffffffffffffff1673ffffffffffffffffffffffffffffffffffffffff16815260200191505060405180910390f35b62000556600480360360208110156200052957600080fd5b81019080803573ffffffffffffffffffffffffffffffffffffffff169060200190929190505050620013a7565b005b6200056262001432565b005b600042831115620005c1576040517f08c379a0000000000000000000000000000000000000000000000000000000008152600401808060200182810382526023815260200180620036ba6023913960400191505060405180910390fd5b60008210158015620005d7575060018054905082105b6200064a576040517f08c379a00000000000000000000000000000000000000000000000000000000081526004018080602001828103825260148152602001807f496e76616c6964206d61726b657420706169722e00000000000000000000000081525060200191505060405180910390fd5b6000600183815481106200065a57fe5b906000526020600020906004020160010160009054906101000a900473ffffffffffffffffffffffffffffffffffffffff16905060008060008373ffffffffffffffffffffffffffffffffffffffff1663feaf968c6040518163ffffffff167c010000000000000000000000000000000000000000000000000000000002815260040160a06040518083038186803b158015620006f657600080fd5b505afa1580156200070b573d6000803e3d6000fd5b505050506040513d60a08110156200072257600080fd5b810190808051906020019092919080519060200190929190805190602001909291908051906020019092919080519060200190929190505050909150508093508195508294505050505b868111156200088d578180600190039250508373ffffffffffffffffffffffffffffffffffffffff16639a6fc8f5836040518263ffffffff167c0100000000000000000000000000000000000000000000000000000000028152600401808269ffffffffffffffffffff1669ffffffffffffffffffff16815260200191505060a06040518083038186803b1580156200080457600080fd5b505afa15801562000819573d6000803e3d6000fd5b505050506040513d60a08110156200083057600080fd5b8101908080519060200190929190805190602001909291908051906020019092919080519060200190929190805190602001909291905050509091505080935081955082945050505086811162000887576200088d565b6200076c565b8294505050505092915050565b620008a462001308565b62000917576040517f08c379a00000000000000000000000000000000000000000000000000000000081526004018080602001828103825260208152602001807f4f776e61626c653a2063616c6c6572206973206e6f7420746865206f776e657281525060200191505060405180910390fd5b600083101580156200092d575060018054905083105b620009a0576040517f08c379a00000000000000000000000000000000000000000000000000000000081526004018080602001828103825260148152602001807f496e76616c6964206d61726b657420706169722e00000000000000000000000081525060200191505060405180910390fd5b600060018481548110620009b057fe5b9060005260206000209060040201600301549050600084828585604051620009d890620016d9565b80858152602001848152602001838152602001828152602001945050505050604051809103906000f08015801562000a14573d6000803e3d6000fd5b5090506000819050600260405180602001604052808373ffffffffffffffffffffffffffffffffffffffff1681525090806001815401808255809150509060018203906000526020600020016000909192909190915060008201518160000160006101000a81548173ffffffffffffffffffffffffffffffffffffffff021916908373ffffffffffffffffffffffffffffffffffffffff1602179055505050506001868154811062000ac257fe5b9060005260206000209060040201600301600081548092919060010191905055508173ffffffffffffffffffffffffffffffffffffffff1663f2fde38b336040518263ffffffff167c0100000000000000000000000000000000000000000000000000000000028152600401808273ffffffffffffffffffffffffffffffffffffffff1673ffffffffffffffffffffffffffffffffffffffff168152602001915050600060405180830381600087803b15801562000b7f57600080fd5b505af115801562000b94573d6000803e3d6000fd5b505050507f0811c85262e674546e3cc755cbc4d0d524dd5d28eb031a5d8a12ab8100ec5f20868483604051808481526020018381526020018273ffffffffffffffffffffffffffffffffffffffff1673ffffffffffffffffffffffffffffffffffffffff168152602001935050505060405180910390a1505050505050565b600042905090565b606060028054905060405190808252806020026020018201604052801562000c525781602001602082028038833980820191505090505b50905060008090505b60028054905081101562000cfa576002818154811062000c7757fe5b9060005260206000200160000160009054906101000a900473ffffffffffffffffffffffffffffffffffffffff1682828151811062000cb257fe5b602002602001019073ffffffffffffffffffffffffffffffffffffffff16908173ffffffffffffffffffffffffffffffffffffffff1681525050808060010191505062000c5b565b5090565b600080821015801562000d15575060018054905082105b62000d88576040517f08c379a00000000000000000000000000000000000000000000000000000000081526004018080602001828103825260148152602001807f496e76616c6964206d61726b657420706169722e00000000000000000000000081525060200191505060405180910390fd5b600260405180602001604052803373ffffffffffffffffffffffffffffffffffffffff1681525090806001815401808255809150509060018203906000526020600020016000909192909190915060008201518160000160006101000a81548173ffffffffffffffffffffffffffffffffffffffff021916908373ffffffffffffffffffffffffffffffffffffffff16021790555050505060006001838154811062000e3057fe5b90600052602060002090600402016003015490506001838154811062000e5257fe5b9060005260206000209060040201600301600081548092919060010191905055507f0811c85262e674546e3cc755cbc4d0d524dd5d28eb031a5d8a12ab8100ec5f20838233604051808481526020018381526020018273ffffffffffffffffffffffffffffffffffffffff1673ffffffffffffffffffffffffffffffffffffffff168152602001935050505060405180910390a180915050919050565b60008060018054905091504290509091565b6001818154811062000f0f57fe5b9060005260206000209060040201600091509050806000018054600181600116156101000203166002900480601f01602080910402602001604051908101604052809291908181526020018280546001816001161561010002031660029004801562000fbf5780601f1062000f935761010080835404028352916020019162000fbf565b820191906000526020600020905b81548152906001019060200180831162000fa157829003601f168201915b5050505050908060010160009054906101000a900473ffffffffffffffffffffffffffffffffffffffff16908060020154908060030154905084565b6200100562001308565b62001078576040517f08c379a00000000000000000000000000000000000000000000000000000000081526004018080602001828103825260208152602001807f4f776e61626c653a2063616c6c6572206973206e6f7420746865206f776e657281525060200191505060405180910390fd5b600073ffffffffffffffffffffffffffffffffffffffff166000809054906101000a900473ffffffffffffffffffffffffffffffffffffffff1673ffffffffffffffffffffffffffffffffffffffff167f8be0079c531659141344cd1fd0a4f28419497f9722a3daafe3b4186f6b6457e060405160405180910390a360008060006101000a81548173ffffffffffffffffffffffffffffffffffffffff021916908373ffffffffffffffffffffffffffffffffffffffff160217905550565b606060006002805490509050838111620011b9576040517f08c379a00000000000000000000000000000000000000000000000000000000081526004018080602001828103825260098152602001807f4e6f20726573756c74000000000000000000000000000000000000000000000081525060200191505060405180910390fd5b6000620011d085836200150990919063ffffffff16565b905083811115620011df578390505b806040519080825280602002602001820160405280156200120f5781602001602082028038833980820191505090505b50925060006200122c60018701846200150990919063ffffffff16565b905060008090505b82811015620012d55760028280600190039350815481106200125257fe5b9060005260206000200160000160009054906101000a900473ffffffffffffffffffffffffffffffffffffffff168582815181106200128d57fe5b602002602001019073ffffffffffffffffffffffffffffffffffffffff16908173ffffffffffffffffffffffffffffffffffffffff1681525050808060010191505062001234565b5050505092915050565b60008060009054906101000a900473ffffffffffffffffffffffffffffffffffffffff16905090565b60008060009054906101000a900473ffffffffffffffffffffffffffffffffffffffff1673ffffffffffffffffffffffffffffffffffffffff163373ffffffffffffffffffffffffffffffffffffffff1614905090565b600281815481106200136d57fe5b906000526020600020016000915090508060000160009054906101000a900473ffffffffffffffffffffffffffffffffffffffff16905081565b620013b162001308565b62001424576040517f08c379a00000000000000000000000000000000000000000000000000000000081526004018080602001828103825260208152602001807f4f776e61626c653a2063616c6c6572206973206e6f7420746865206f776e657281525060200191505060405180910390fd5b6200142f8162001593565b50565b6200143c62001308565b620014af576040517f08c379a00000000000000000000000000000000000000000000000000000000081526004018080602001828103825260208152602001807f4f776e61626c653a2063616c6c6572206973206e6f7420746865206f776e657281525060200191505060405180910390fd5b60026000620014bf9190620016e7565b60008090505b6001805490508110156200150657600060018281548110620014e357fe5b9060005260206000209060040201600301819055508080600101915050620014c5565b50565b60008282111562001582576040517f08c379a000000000000000000000000000000000000000000000000000000000815260040180806020018281038252601e8152602001807f536166654d6174683a207375627472616374696f6e206f766572666c6f77000081525060200191505060405180910390fd5b600082840390508091505092915050565b600073ffffffffffffffffffffffffffffffffffffffff168173ffffffffffffffffffffffffffffffffffffffff1614156200161b576040517f08c379a0000000000000000000000000000000000000000000000000000000008152600401808060200182810382526026815260200180620036946026913960400191505060405180910390fd5b8073ffffffffffffffffffffffffffffffffffffffff166000809054906101000a900473ffffffffffffffffffffffffffffffffffffffff1673ffffffffffffffffffffffffffffffffffffffff167f8be0079c531659141344cd1fd0a4f28419497f9722a3daafe3b4186f6b6457e060405160405180910390a3806000806101000a81548173ffffffffffffffffffffffffffffffffffffffff021916908373ffffffffffffffffffffffffffffffffffffffff16021790555050565b611f40806200175483390190565b50805460008255906000526020600020908101906200170791906200170a565b50565b6200175091905b808211156200174c57600080820160006101000a81549073ffffffffffffffffffffffffffffffffffffffff02191690555060010162001711565b5090565b9056fe6080604052734f96fe3b7a6cf9725f59d353f723c1bdb64ca6aa600e60006101000a81548173ffffffffffffffffffffffffffffffffffffffff021916908373ffffffffffffffffffffffffffffffffffffffff1602179055503480156200006657600080fd5b5060405160808062001f40833981018060405260808110156200008857600080fd5b8101908080519060200190929190805190602001909291908051906020019092919080519060200190929190505050336000806101000a81548173ffffffffffffffffffffffffffffffffffffffff021916908373ffffffffffffffffffffffffffffffffffffffff1602179055506000809054906101000a900473ffffffffffffffffffffffffffffffffffffffff1673ffffffffffffffffffffffffffffffffffffffff16600073ffffffffffffffffffffffffffffffffffffffff167f8be0079c531659141344cd1fd0a4f28419497f9722a3daafe3b4186f6b6457e060405160405180910390a3426200019782846200025e6401000000000262001717179091906401000000009004565b11620001a257600080fd5b826001819055508360058190555081600281905550620001da81836200025e6401000000000262001717179091906401000000009004565b60038190555062000205816003546200025e6401000000000262001717179091906401000000009004565b60048190555033600d60006101000a81548173ffffffffffffffffffffffffffffffffffffffff021916908373ffffffffffffffffffffffffffffffffffffffff1602179055506002600c8190555050505050620002e7565b600080828401905083811015620002dd576040517f08c379a000000000000000000000000000000000000000000000000000000000815260040180806020018281038252601b8152602001807f536166654d6174683a206164646974696f6e206f766572666c6f77000000000081525060200191505060405180910390fd5b8091505092915050565b611c4980620002f76000396000f3fe6080604052600436106100b9576000357c0100000000000000000000000000000000000000000000000000000000900480637b4afd65116100815780637b4afd65146102485780638da5cb5b1461025f5780638f32d59b146102b6578063a4c4c0c1146102e5578063c895b8eb146103a0578063f2fde38b146103cb576100b9565b80630cc9a606146100be5780631ec0fd501461012357806339dafecf146101885780634d96264c146101c0578063715018a614610231575b600080fd5b3480156100ca57600080fd5b5061010d600480360360208110156100e157600080fd5b81019080803573ffffffffffffffffffffffffffffffffffffffff16906020019092919050505061041c565b6040518082815260200191505060405180910390f35b34801561012f57600080fd5b506101726004803603602081101561014657600080fd5b81019080803573ffffffffffffffffffffffffffffffffffffffff1690602001909291905050506104dd565b6040518082815260200191505060405180910390f35b6101be6004803603604081101561019e57600080fd5b810190808035906020019092919080359060200190929190505050610620565b005b3480156101cc57600080fd5b506101d5610b06565b604051808c81526020018b81526020018a81526020018981526020018881526020018781526020018681526020018581526020018481526020018381526020018281526020019b50505050505050505050505060405180910390f35b34801561023d57600080fd5b50610246610b5b565b005b34801561025457600080fd5b5061025d610c94565b005b34801561026b57600080fd5b50610274610f16565b604051808273ffffffffffffffffffffffffffffffffffffffff1673ffffffffffffffffffffffffffffffffffffffff16815260200191505060405180910390f35b3480156102c257600080fd5b506102cb610f3f565b604051808215151515815260200191505060405180910390f35b3480156102f157600080fd5b506102fa610f96565b604051808481526020018060200180602001838103835285818151815260200191508051906020019060200280838360005b8381101561034757808201518184015260208101905061032c565b50505050905001838103825284818151815260200191508051906020019060200280838360005b8381101561038957808201518184015260208101905061036e565b505050509050019550505050505060405180910390f35b3480156103ac57600080fd5b506103b5611116565b6040518082815260200191505060405180910390f35b3480156103d757600080fd5b5061041a600480360360208110156103ee57600080fd5b81019080803573ffffffffffffffffffffffffffffffffffffffff169060200190929190505050611338565b005b60008060116000600c54815260200190815260200160002054141561044457600090506104d8565b6104d560116000600c548152602001908152602001600020546104c7600b54600f60008773ffffffffffffffffffffffffffffffffffffffff1673ffffffffffffffffffffffffffffffffffffffff1681526020019081526020016000206000016000600c548152602001908152602001600020546113be90919063ffffffff16565b61144490919063ffffffff16565b90505b919050565b6000600f60008373ffffffffffffffffffffffffffffffffffffffff1673ffffffffffffffffffffffffffffffffffffffff16815260200190815260200160002060010160019054906101000a900460ff161561053d576001905061061b565b6001600f60008473ffffffffffffffffffffffffffffffffffffffff1673ffffffffffffffffffffffffffffffffffffffff16815260200190815260200160002060010160016101000a81548160ff02191690831515021790555060006105a38361041c565b905060008111156105ce576105cd734f96fe3b7a6cf9725f59d353f723c1bdb64ca6aa84836114d3565b5b80600f60008573ffffffffffffffffffffffffffffffffffffffff1673ffffffffffffffffffffffffffffffffffffffff1681526020019081526020016000206002018190555060029150505b919050565b60028110610696576040517f08c379a00000000000000000000000000000000000000000000000000000000081526004018080602001828103825260118152602001807f4f7074696f6e20697320696e76616c696400000000000000000000000000000081525060200191505060405180910390fd5b60025442101561070e576040517f08c379a000000000000000000000000000000000000000000000000000000000815260040180806020018281038252601a8152602001807f4d61726b657420686173206e6f7420737461727465642079657400000000000081525060200191505060405180910390fd5b600354421115610786576040517f08c379a000000000000000000000000000000000000000000000000000000000815260040180806020018281038252601e8152602001807f4d61726b65742070726564696374696f6e2068617320657870726965642e000081525060200191505060405180910390fd5b600034146107fc576040517f08c379a000000000000000000000000000000000000000000000000000000000815260040180806020018281038252601e8152602001807f4e6f7420616c6c6f776564207472616e73616374696f6e2076616c75652e000081525060200191505060405180910390fd5b600e60009054906101000a900473ffffffffffffffffffffffffffffffffffffffff1673ffffffffffffffffffffffffffffffffffffffff166323b872dd3330856040518463ffffffff167c0100000000000000000000000000000000000000000000000000000000028152600401808473ffffffffffffffffffffffffffffffffffffffff1673ffffffffffffffffffffffffffffffffffffffff1681526020018373ffffffffffffffffffffffffffffffffffffffff1673ffffffffffffffffffffffffffffffffffffffff1681526020018281526020019350505050602060405180830381600087803b1580156108f557600080fd5b505af1158015610909573d6000803e3d6000fd5b505050506040513d602081101561091f57600080fd5b8101908080519060200190929190505050506000610941600a8461271061165e565b90506000610958828561168e90919063ffffffff16565b9050600181116109d0576040517f08c379a00000000000000000000000000000000000000000000000000000000081526004018080602001828103825260108152602001807f546f6f20736d616c6c20616d6f756e740000000000000000000000000000000081525060200191505060405180910390fd5b6109e58260095461171790919063ffffffff16565b6009819055506109f5818461179f565b60606002604051908082528060200260200182016040528015610a275781602001602082028038833980820191505090505b50905060008090505b6002811015610a72576011600082815260200190815260200160002054828281518110610a5957fe5b6020026020010181815250508080600101915050610a30565b507fb334273605c204cf6376016800f20571b4fc05126b62405f64c9170a874d746b600754600854836040518084815260200183815260200180602001828103825283818151815260200191508051906020019060200280838360005b83811015610aea578082015181840152602081019050610acf565b5050505090500194505050505060405180910390a15050505050565b60008060008060008060008060008060006001549a5060025499506003549850600454975060055496506006549550600a54945060075493506008549250600b549150600c549050909192939495969798999a565b610b63610f3f565b610bd5576040517f08c379a00000000000000000000000000000000000000000000000000000000081526004018080602001828103825260208152602001807f4f776e61626c653a2063616c6c6572206973206e6f7420746865206f776e657281525060200191505060405180910390fd5b600073ffffffffffffffffffffffffffffffffffffffff166000809054906101000a900473ffffffffffffffffffffffffffffffffffffffff1673ffffffffffffffffffffffffffffffffffffffff167f8be0079c531659141344cd1fd0a4f28419497f9722a3daafe3b4186f6b6457e060405160405180910390a360008060006101000a81548173ffffffffffffffffffffffffffffffffffffffff021916908373ffffffffffffffffffffffffffffffffffffffff160217905550565b610c9c610f3f565b610d0e576040517f08c379a00000000000000000000000000000000000000000000000000000000081526004018080602001828103825260208152602001807f4f776e61626c653a2063616c6c6572206973206e6f7420746865206f776e657281525060200191505060405180910390fd5b600060065414610d86576040517f08c379a00000000000000000000000000000000000000000000000000000000081526004018080602001828103825260168152602001807f4d61726b657420616c726561647920737461727465640000000000000000000081525060200191505060405180910390fd5b426002541115610dfe576040517f08c379a00000000000000000000000000000000000000000000000000000000081526004018080602001828103825260178152602001807f49742773206e6f74207965742073746172742074696d6500000000000000000081525060200191505060405180910390fd5b600d60009054906101000a900473ffffffffffffffffffffffffffffffffffffffff1673ffffffffffffffffffffffffffffffffffffffff16628332c96002546005546040518363ffffffff167c01000000000000000000000000000000000000000000000000000000000281526004018083815260200182815260200192505050602060405180830381600087803b158015610e9a57600080fd5b505af1158015610eae573d6000803e3d6000fd5b505050506040513d6020811015610ec457600080fd5b81019080805190602001909291905050506006819055507f1ece2930141f47e70caa2bb9a47bba6ec04db6cba706c9b5ce82a137ada0baf26006546040518082815260200191505060405180910390a1565b60008060009054906101000a900473ffffffffffffffffffffffffffffffffffffffff16905090565b60008060009054906101000a900473ffffffffffffffffffffffffffffffffffffffff1673ffffffffffffffffffffffffffffffffffffffff163373ffffffffffffffffffffffffffffffffffffffff1614905090565b60006060806002604051908082528060200260200182016040528015610fcb5781602001602082028038833980820191505090505b5091506002604051908082528060200260200182016040528015610ffe5781602001602082028038833980820191505090505b509050600754925060008090505b600281101561111057601160008281526020019081526020016000205483828151811061103557fe5b602002602001018181525050600f60003373ffffffffffffffffffffffffffffffffffffffff1673ffffffffffffffffffffffffffffffffffffffff16815260200190815260200160002060010160009054906101000a900460ff161561110357600f60003373ffffffffffffffffffffffffffffffffffffffff1673ffffffffffffffffffffffffffffffffffffffff1681526020019081526020016000206000016000828152602001908152602001600020548282815181106110f657fe5b6020026020010181815250505b808060010191505061100c565b50909192565b6000611120610f3f565b611192576040517f08c379a00000000000000000000000000000000000000000000000000000000081526004018080602001828103825260208152602001807f4f776e61626c653a2063616c6c6572206973206e6f7420746865206f776e657281525060200191505060405180910390fd5b4260045410611209576040517f08c379a00000000000000000000000000000000000000000000000000000000081526004018080602001828103825260198152602001807f4d61726b657420686173206e6f7420656e646564207965742e0000000000000081525060200191505060405180910390fd5b600d60009054906101000a900473ffffffffffffffffffffffffffffffffffffffff1673ffffffffffffffffffffffffffffffffffffffff16628332c96004546005546040518363ffffffff167c01000000000000000000000000000000000000000000000000000000000281526004018083815260200182815260200192505050602060405180830381600087803b1580156112a557600080fd5b505af11580156112b9573d6000803e3d6000fd5b505050506040513d60208110156112cf57600080fd5b8101908080519060200190929190505050600a819055506112ee6119d6565b7e0b6feae4bec70344a7d0e99f4c0237adaaeee2fbb258266be400bd8612a332600a54600c54604051808381526020018281526020019250505060405180910390a1600a54905090565b611340610f3f565b6113b2576040517f08c379a00000000000000000000000000000000000000000000000000000000081526004018080602001828103825260208152602001807f4f776e61626c653a2063616c6c6572206973206e6f7420746865206f776e657281525060200191505060405180910390fd5b6113bb81611a92565b50565b6000808314156113d1576000905061143e565b60008284029050828482816113e257fe5b0414611439576040517f08c379a0000000000000000000000000000000000000000000000000000000008152600401808060200182810382526021815260200180611bfd6021913960400191505060405180910390fd5b809150505b92915050565b60008082116114bb576040517f08c379a000000000000000000000000000000000000000000000000000000000815260040180806020018281038252601a8152602001807f536166654d6174683a206469766973696f6e206279207a65726f00000000000081525060200191505060405180910390fd5b60008284816114c657fe5b0490508091505092915050565b60008111156116595773eeeeeeeeeeeeeeeeeeeeeeeeeeeeeeeeeeeeeeee73ffffffffffffffffffffffffffffffffffffffff168373ffffffffffffffffffffffffffffffffffffffff161415611570578173ffffffffffffffffffffffffffffffffffffffff166108fc829081150290604051600060405180830381858888f1935050505015801561156a573d6000803e3d6000fd5b50611658565b8273ffffffffffffffffffffffffffffffffffffffff1663a9059cbb83836040518363ffffffff167c0100000000000000000000000000000000000000000000000000000000028152600401808373ffffffffffffffffffffffffffffffffffffffff1673ffffffffffffffffffffffffffffffffffffffff16815260200182815260200192505050602060405180830381600087803b15801561161357600080fd5b505af1158015611627573d6000803e3d6000fd5b505050506040513d602081101561163d57600080fd5b810190808051906020019092919050505061165757600080fd5b5b5b505050565b60006116858261167785876113be90919063ffffffff16565b61144490919063ffffffff16565b90509392505050565b600082821115611706576040517f08c379a000000000000000000000000000000000000000000000000000000000815260040180806020018281038252601e8152602001807f536166654d6174683a207375627472616374696f6e206f766572666c6f77000081525060200191505060405180910390fd5b600082840390508091505092915050565b600080828401905083811015611795576040517f08c379a000000000000000000000000000000000000000000000000000000000815260040180806020018281038252601b8152602001807f536166654d6174683a206164646974696f6e206f766572666c6f77000000000081525060200191505060405180910390fd5b8091505092915050565b60001515600f60003373ffffffffffffffffffffffffffffffffffffffff1673ffffffffffffffffffffffffffffffffffffffff16815260200190815260200160002060010160009054906101000a900460ff16151514156118bd576001600f60003373ffffffffffffffffffffffffffffffffffffffff1673ffffffffffffffffffffffffffffffffffffffff16815260200190815260200160002060010160006101000a81548160ff0219169083151502179055503360106000600754815260200190815260200160002060006101000a81548173ffffffffffffffffffffffffffffffffffffffff021916908373ffffffffffffffffffffffffffffffffffffffff1602179055506007600081548092919060010191905055505b61192382600f60003373ffffffffffffffffffffffffffffffffffffffff1673ffffffffffffffffffffffffffffffffffffffff16815260200190815260200160002060000160008481526020019081526020016000205461171790919063ffffffff16565b600f60003373ffffffffffffffffffffffffffffffffffffffff1673ffffffffffffffffffffffffffffffffffffffff1681526020019081526020016000206000016000838152602001908152602001600020819055506119a082601160008481526020019081526020016000205461171790919063ffffffff16565b60116000838152602001908152602001600020819055506119cc8260085461171790919063ffffffff16565b6008819055505050565b6000600654600a54106119fb57600060018111156119f057fe5b600c81905550611a0e565b600180811115611a0757fe5b600c819055505b600060116000600c548152602001908152602001600020541115611a3657600854600b819055505b600090505b600754811015611a8f57611a816010600083815260200190815260200160002060009054906101000a900473ffffffffffffffffffffffffffffffffffffffff166104dd565b508080600101915050611a3b565b50565b600073ffffffffffffffffffffffffffffffffffffffff168173ffffffffffffffffffffffffffffffffffffffff161415611b18576040517f08c379a0000000000000000000000000000000000000000000000000000000008152600401808060200182810382526026815260200180611bd76026913960400191505060405180910390fd5b8073ffffffffffffffffffffffffffffffffffffffff166000809054906101000a900473ffffffffffffffffffffffffffffffffffffffff1673ffffffffffffffffffffffffffffffffffffffff167f8be0079c531659141344cd1fd0a4f28419497f9722a3daafe3b4186f6b6457e060405160405180910390a3806000806101000a81548173ffffffffffffffffffffffffffffffffffffffff021916908373ffffffffffffffffffffffffffffffffffffffff1602179055505056fe4f776e61626c653a206e6577206f776e657220697320746865207a65726f2061646472657373536166654d6174683a206d756c7469706c69636174696f6e206f766572666c6f77a165627a7a72305820965c6b4fd6282b0e66d843c7ce808df2b10fbbc0b7f21006f22f861002afdd6300294f776e61626c653a206e6577206f776e657220697320746865207a65726f206164647265737349742773206e6f742074696d652079657420746f20676574207468652070726963652ea165627a7a72305820e84c28d311d6ef9cf6e72d475fc914192ac57e856f864da50500bba78c75bb5e0029",
  "source": "\r\npragma solidity 0.5.7;\r\n\r\nimport \"./external/openzeppelin-solidity/math/SafeMath.sol\";\r\nimport \"./external/openzeppelin-solidity/ownership/Ownable.sol\";\r\nimport \"./interfaces/IChainLinkOracle.sol\";\r\nimport \"./Market.sol\";\r\n\r\ncontract MarketRegistry is Ownable {\r\n\r\n  using SafeMath for *; \r\n\r\n  struct MarketPair {\r\n    string name;\r\n    address feedAddress;\r\n    uint256 decimal;\r\n    uint256 totalRounds;\r\n  }\r\n\r\n  struct MarketInfo {\r\n    address addr;\r\n    // uint256 pair;\r\n    // uint256 roundId;\r\n    // uint256 startTime;\r\n    // uint256 endTime;\r\n    // uint256 startPrice;\r\n    // uint256 endPrice;\r\n    // uint256 totalUsers;\r\n    // uint256 totalStaked;\r\n    // uint256 winningOption;\r\n  }\r\n\r\n  MarketPair[] public marketPairs;\r\n  MarketInfo[] public markets;\r\n  \r\n  constructor () public {\r\n    marketPairs.push(MarketPair(\"ETH/USD\", 0x9326BFA02ADD2366b30bacB125260Af641031331, 8, 0));\r\n    marketPairs.push(MarketPair(\"BTC/USD\", 0x6135b13325bfC4B00278B4abC5e20bbce2D6580e, 8, 0));\r\n  }\r\n\r\n  /**\r\n    * @dev Register the new market\r\n    * @param _pair The value pair of market.\r\n    */\r\n  function registerMarket(uint256 _pair) external returns (uint256) {\r\n    require(_pair >= 0 && _pair < marketPairs.length, \"Invalid market pair.\");\r\n\r\n    markets.push(MarketInfo(msg.sender));\r\n    uint256 _roundId = marketPairs[_pair].totalRounds;\r\n    marketPairs[_pair].totalRounds++;\r\n\r\n    emit MarketCreated(_pair, _roundId, msg.sender);\r\n    return _roundId;\r\n  }\r\n\r\n  /**\r\n    * @dev Create a new market\r\n    * @param _pair The value pair of market.\r\n    * @param _startTime The time at which market will create.\r\n    * @param _duration The time duration of market.\r\n    */\r\n  function createMarket(uint256 _pair, uint256 _startTime, uint256 _duration) external onlyOwner {\r\n    require(_pair >= 0 && _pair < marketPairs.length, \"Invalid market pair.\");\r\n    uint256 _roundId = marketPairs[_pair].totalRounds;\r\n    Market market = new Market(_pair, _roundId, _startTime, _duration);\r\n    address _marketAddress = address(market);\r\n\r\n    markets.push(MarketInfo(_marketAddress));\r\n    marketPairs[_pair].totalRounds++;\r\n    market.transferOwnership(msg.sender);\r\n\r\n    emit MarketCreated(_pair, _roundId, _marketAddress);\r\n  }\r\n\r\n  /**\r\n    * @dev Get price of the specified time and pair\r\n    * @param _time The time when to get price.\r\n    * @param _pair The pair id which to get price.\r\n    */\r\n  function getPairPrice(uint256 _time, uint256 _pair) external view returns (uint256) {\r\n    require(_time <= block.timestamp, \"It's not time yet to get the price.\");\r\n    require(_pair >= 0 && _pair < marketPairs.length, \"Invalid market pair.\");\r\n        \r\n    address priceFeedAddress = marketPairs[_pair].feedAddress;\r\n    int256 currentRoundAnswer;\r\n    uint80 currentRoundId;\r\n    uint256 currentRoundTime;\r\n    (currentRoundId, currentRoundAnswer, , currentRoundTime, ) = IChainLinkOracle(priceFeedAddress).latestRoundData();\r\n    while(currentRoundTime > _time) {\r\n      currentRoundId--;\r\n      (currentRoundId, currentRoundAnswer, , currentRoundTime, ) = IChainLinkOracle(priceFeedAddress).getRoundData(currentRoundId);\r\n      if(currentRoundTime <= _time) {\r\n        break;\r\n      }\r\n    }\r\n    return uint256(currentRoundAnswer);\r\n  }\r\n\r\n  /**\r\n    * @dev Provide markets pagination.\r\n    * @param from Page start index from back.\r\n    * @param cnt Page size.\r\n  */\r\n  function getMarkets(uint256 from, uint256 cnt) public view returns(address[] memory _markets) {\r\n    uint256 marketCnt = markets.length;\r\n    require(marketCnt > from, \"No result\");\r\n    uint256 realCnt = marketCnt.sub(from);\r\n    if (realCnt > cnt)\r\n      realCnt = cnt;\r\n\r\n    _markets = new address[](realCnt);\r\n    uint256 k = marketCnt.sub(from + 1);\r\n    uint256 i;\r\n    for (i = 0; i < realCnt; i++) {\r\n      _markets[i] = markets[k--].addr;\r\n    }\r\n  }\r\n\r\n  /**\r\n  * @dev Clear market list.\r\n  */\r\n  function clearMarket() external onlyOwner {\r\n    delete markets;\r\n    for (uint256 i = 0; i < marketPairs.length; i++) {\r\n      marketPairs[i].totalRounds = 0;\r\n    }\r\n  }\r\n\r\n  /**\r\n  * @dev Get registry data.\r\n  */\r\n  function getRegistryData() external view returns(uint256 _nPairs, uint256 _time) {\r\n    _nPairs = marketPairs.length;\r\n    _time = block.timestamp;\r\n  }\r\n\r\n  /**\r\n  * @dev Get market list.\r\n  */\r\n  function getMarketList() external view returns(address[] memory _markets) {\r\n    _markets = new address[](markets.length);\r\n    for (uint256 i = 0; i < markets.length; i++) {\r\n      _markets[i] = markets[i].addr;\r\n    }\r\n  }\r\n\r\n  /**\r\n  * @dev Get current time of contract\r\n  */\r\n  function getCurrentTime() external view returns (uint256) {\r\n    return block.timestamp;\r\n  }\r\n\r\n  /**\r\n  * @dev Emitted by registering a new market\r\n  */\r\n  event MarketCreated (\r\n    uint256 marketPair,\r\n    uint256 roundId,\r\n    address marketAddress\r\n  );\r\n\r\n}",
  "sourcePath": "E:/work/blockchain/prex/work/prex-smart-contracts/contracts/MarketRegistry.sol",
  "compiler": {
    "name": "solc",
    "version": "0.5.7+commit.6da8b019.Emscripten.clang"
  },
  "schemaVersion": "3.3.3",
  "updatedAt": "2021-04-02T02:24:44.918Z",
  "networkType": "ethereum",
  "devdoc": {
    "methods": {
      "clearMarket()": {
        "details": "Clear market list.\r"
      },
      "createMarket(uint256,uint256,uint256)": {
        "details": "Create a new market\r",
        "params": {
          "_duration": "The time duration of market.\r",
          "_pair": "The value pair of market.\r",
          "_startTime": "The time at which market will create.\r"
        }
      },
      "getCurrentTime()": {
        "details": "Get current time of contract\r"
      },
      "getMarketList()": {
        "details": "Get market list.\r"
      },
      "getMarkets(uint256,uint256)": {
        "details": "Provide markets pagination.\r",
        "params": {
          "cnt": "Page size.\r",
          "from": "Page start index from back.\r"
        }
      },
      "getPairPrice(uint256,uint256)": {
        "details": "Get price of the specified time and pair\r",
        "params": {
          "_pair": "The pair id which to get price.\r",
          "_time": "The time when to get price.\r"
        }
      },
      "getRegistryData()": {
        "details": "Get registry data.\r"
      },
      "isOwner()": {
        "details": "Returns true if the caller is the current owner.\r"
      },
      "owner()": {
        "details": "Returns the address of the current owner.\r"
      },
      "registerMarket(uint256)": {
        "details": "Register the new market\r",
        "params": {
          "_pair": "The value pair of market.\r"
        }
      },
      "renounceOwnership()": {
        "details": "Leaves the contract without owner. It will not be possible to call\r `onlyOwner` functions anymore. Can only be called by the current owner.\r      * > Note: Renouncing ownership will leave the contract without an owner,\r thereby removing any functionality that is only available to the owner.\r"
      },
      "transferOwnership(address)": {
        "details": "Transfers ownership of the contract to a new account (`newOwner`).\r Can only be called by the current owner.\r"
      }
    }
  },
  "userdoc": {
    "methods": {}
  }
}