{
  "contractName": "MarketRegistry",
  "abi": [
    {
      "constant": true,
      "inputs": [
        {
          "name": "",
          "type": "uint256"
        }
      ],
      "name": "marketPairs",
      "outputs": [
        {
          "name": "name",
          "type": "string"
        },
        {
          "name": "feedAddress",
          "type": "address"
        },
        {
          "name": "decimal",
          "type": "uint256"
        }
      ],
      "payable": false,
      "stateMutability": "view",
      "type": "function"
    },
    {
      "constant": false,
      "inputs": [],
      "name": "renounceOwnership",
      "outputs": [],
      "payable": false,
      "stateMutability": "nonpayable",
      "type": "function"
    },
    {
      "constant": true,
      "inputs": [],
      "name": "owner",
      "outputs": [
        {
          "name": "",
          "type": "address"
        }
      ],
      "payable": false,
      "stateMutability": "view",
      "type": "function"
    },
    {
      "constant": true,
      "inputs": [],
      "name": "isOwner",
      "outputs": [
        {
          "name": "",
          "type": "bool"
        }
      ],
      "payable": false,
      "stateMutability": "view",
      "type": "function"
    },
    {
      "constant": true,
      "inputs": [
        {
          "name": "",
          "type": "uint256"
        }
      ],
      "name": "markets",
      "outputs": [
        {
          "name": "addr",
          "type": "address"
        }
      ],
      "payable": false,
      "stateMutability": "view",
      "type": "function"
    },
    {
      "constant": false,
      "inputs": [
        {
          "name": "newOwner",
          "type": "address"
        }
      ],
      "name": "transferOwnership",
      "outputs": [],
      "payable": false,
      "stateMutability": "nonpayable",
      "type": "function"
    },
    {
      "inputs": [],
      "payable": false,
      "stateMutability": "nonpayable",
      "type": "constructor"
    },
    {
      "anonymous": false,
      "inputs": [
        {
          "indexed": false,
          "name": "roundId",
          "type": "uint256"
        },
        {
          "indexed": false,
          "name": "marketAddress",
          "type": "address"
        }
      ],
      "name": "MarketCreated",
      "type": "event"
    },
    {
      "anonymous": false,
      "inputs": [
        {
          "indexed": true,
          "name": "previousOwner",
          "type": "address"
        },
        {
          "indexed": true,
          "name": "newOwner",
          "type": "address"
        }
      ],
      "name": "OwnershipTransferred",
      "type": "event"
    },
    {
      "constant": false,
      "inputs": [],
      "name": "registerMarket",
      "outputs": [
        {
          "name": "",
          "type": "uint256"
        }
      ],
      "payable": false,
      "stateMutability": "nonpayable",
      "type": "function"
    },
    {
      "constant": true,
      "inputs": [
        {
          "name": "_time",
          "type": "uint256"
        },
        {
          "name": "_pair",
          "type": "uint256"
        }
      ],
      "name": "getPairPrice",
      "outputs": [
        {
          "name": "",
          "type": "uint256"
        }
      ],
      "payable": false,
      "stateMutability": "view",
      "type": "function"
    },
    {
      "constant": true,
      "inputs": [
        {
          "name": "from",
          "type": "uint256"
        },
        {
          "name": "cnt",
          "type": "uint256"
        }
      ],
      "name": "getMarkets",
      "outputs": [
        {
          "name": "_markets",
          "type": "address[]"
        }
      ],
      "payable": false,
      "stateMutability": "view",
      "type": "function"
    },
    {
      "constant": true,
      "inputs": [],
      "name": "getRegistryData",
      "outputs": [
        {
          "name": "_nPairs",
          "type": "uint256"
        },
        {
          "name": "_markets",
          "type": "address[]"
        }
      ],
      "payable": false,
      "stateMutability": "view",
      "type": "function"
    },
    {
      "constant": true,
      "inputs": [],
      "name": "getCurrentTime",
      "outputs": [
        {
          "name": "",
          "type": "uint256"
        }
      ],
      "payable": false,
      "stateMutability": "view",
      "type": "function"
    }
  ],
  "bytecode": "0x608060405234801561001057600080fd5b50336000806101000a81548173ffffffffffffffffffffffffffffffffffffffff021916908373ffffffffffffffffffffffffffffffffffffffff1602179055506000809054906101000a900473ffffffffffffffffffffffffffffffffffffffff1673ffffffffffffffffffffffffffffffffffffffff16600073ffffffffffffffffffffffffffffffffffffffff167f8be0079c531659141344cd1fd0a4f28419497f9722a3daafe3b4186f6b6457e060405160405180910390a3600160405180606001604052806040518060400160405280600881526020017f4554482f555344540000000000000000000000000000000000000000000000008152508152602001739326bfa02add2366b30bacb125260af64103133173ffffffffffffffffffffffffffffffffffffffff16815260200160098152509080600181540180825580915050906001820390600052602060002090600302016000909192909190915060008201518160000190805190602001906101919291906101eb565b5060208201518160010160006101000a81548173ffffffffffffffffffffffffffffffffffffffff021916908373ffffffffffffffffffffffffffffffffffffffff16021790555060408201518160020155505050610290565b828054600181600116156101000203166002900490600052602060002090601f016020900481019282601f1061022c57805160ff191683800117855561025a565b8280016001018555821561025a579182015b8281111561025957825182559160200191906001019061023e565b5b509050610267919061026b565b5090565b61028d91905b80821115610289576000816000905550600101610271565b5090565b90565b6110d58061029f6000396000f3fe608060405234801561001057600080fd5b50600436106100c5576000357c010000000000000000000000000000000000000000000000000000000090048063715018a61161008e578063715018a61461029957806380968d48146102a35780638da5cb5b146103305780638f32d59b1461037a578063b1283e771461039c578063f2fde38b1461040a576100c5565b80628332c9146100ca578063012088371461011657806329cb924d14610134578063644b8e85146101525780636cda4059146101b8575b600080fd5b610100600480360360408110156100e057600080fd5b81019080803590602001909291908035906020019092919050505061044e565b6040518082815260200191505060405180910390f35b61011e610774565b6040518082815260200191505060405180910390f35b61013c61088f565b6040518082815260200191505060405180910390f35b61015a610897565b6040518083815260200180602001828103825283818151815260200191508051906020019060200280838360005b838110156101a3578082015181840152602081019050610188565b50505050905001935050505060405180910390f35b6101e4600480360360208110156101ce57600080fd5b8101908080359060200190929190505050610981565b60405180806020018473ffffffffffffffffffffffffffffffffffffffff1673ffffffffffffffffffffffffffffffffffffffff168152602001838152602001828103825285818151815260200191508051906020019080838360005b8381101561025c578082015181840152602081019050610241565b50505050905090810190601f1680156102895780820380516001836020036101000a031916815260200191505b5094505050505060405180910390f35b6102a1610a70565b005b6102d9600480360360408110156102b957600080fd5b810190808035906020019092919080359060200190929190505050610ba9565b6040518080602001828103825283818151815260200191508051906020019060200280838360005b8381101561031c578082015181840152602081019050610301565b505050509050019250505060405180910390f35b610338610d46565b604051808273ffffffffffffffffffffffffffffffffffffffff1673ffffffffffffffffffffffffffffffffffffffff16815260200191505060405180910390f35b610382610d6f565b604051808215151515815260200191505060405180910390f35b6103c8600480360360208110156103b257600080fd5b8101908080359060200190929190505050610dc6565b604051808273ffffffffffffffffffffffffffffffffffffffff1673ffffffffffffffffffffffffffffffffffffffff16815260200191505060405180910390f35b61044c6004803603602081101561042057600080fd5b81019080803573ffffffffffffffffffffffffffffffffffffffff169060200190929190505050610e0d565b005b60004283116104a8576040517f08c379a00000000000000000000000000000000000000000000000000000000081526004018080602001828103825260238152602001806110876023913960400191505060405180910390fd5b600082101580156104bd575060018054905082105b61052f576040517f08c379a00000000000000000000000000000000000000000000000000000000081526004018080602001828103825260148152602001807f496e76616c6964206d61726b657420706169722e00000000000000000000000081525060200191505060405180910390fd5b60006001838154811061053e57fe5b906000526020600020906003020160010160009054906101000a900473ffffffffffffffffffffffffffffffffffffffff16905060008060008373ffffffffffffffffffffffffffffffffffffffff1663feaf968c6040518163ffffffff167c010000000000000000000000000000000000000000000000000000000002815260040160a06040518083038186803b1580156105d957600080fd5b505afa1580156105ed573d6000803e3d6000fd5b505050506040513d60a081101561060357600080fd5b810190808051906020019092919080519060200190929190805190602001909291908051906020019092919080519060200190929190505050909150508093508195508294505050505b86811115610767578180600190039250508373ffffffffffffffffffffffffffffffffffffffff16639a6fc8f5836040518263ffffffff167c0100000000000000000000000000000000000000000000000000000000028152600401808269ffffffffffffffffffff1669ffffffffffffffffffff16815260200191505060a06040518083038186803b1580156106e357600080fd5b505afa1580156106f7573d6000803e3d6000fd5b505050506040513d60a081101561070d57600080fd5b8101908080519060200190929190805190602001909291908051906020019092919080519060200190929190805190602001909291905050509091505080935081955082945050505086811161076257610767565b61064d565b8294505050505092915050565b6000600260405180602001604052803373ffffffffffffffffffffffffffffffffffffffff1681525090806001815401808255809150509060018203906000526020600020016000909192909190915060008201518160000160006101000a81548173ffffffffffffffffffffffffffffffffffffffff021916908373ffffffffffffffffffffffffffffffffffffffff1602179055505050507fd301e501188d220cc44d05fa5ee3c14454746932c7d6598933e7fddc78bea7f060016002805490500333604051808381526020018273ffffffffffffffffffffffffffffffffffffffff1673ffffffffffffffffffffffffffffffffffffffff1681526020019250505060405180910390a1600160028054905003905090565b600042905090565b60006060600060018054905092506002805490506040519080825280602002602001820160405280156108d95781602001602082028038833980820191505090505b509150600090505b60028054905081101561097c57600281815481106108fb57fe5b9060005260206000200160000160009054906101000a900473ffffffffffffffffffffffffffffffffffffffff1682828151811061093557fe5b602002602001019073ffffffffffffffffffffffffffffffffffffffff16908173ffffffffffffffffffffffffffffffffffffffff168152505080806001019150506108e1565b509091565b6001818154811061098e57fe5b9060005260206000209060030201600091509050806000018054600181600116156101000203166002900480601f016020809104026020016040519081016040528092919081815260200182805460018160011615610100020316600290048015610a3a5780601f10610a0f57610100808354040283529160200191610a3a565b820191906000526020600020905b815481529060010190602001808311610a1d57829003601f168201915b5050505050908060010160009054906101000a900473ffffffffffffffffffffffffffffffffffffffff16908060020154905083565b610a78610d6f565b610aea576040517f08c379a00000000000000000000000000000000000000000000000000000000081526004018080602001828103825260208152602001807f4f776e61626c653a2063616c6c6572206973206e6f7420746865206f776e657281525060200191505060405180910390fd5b600073ffffffffffffffffffffffffffffffffffffffff166000809054906101000a900473ffffffffffffffffffffffffffffffffffffffff1673ffffffffffffffffffffffffffffffffffffffff167f8be0079c531659141344cd1fd0a4f28419497f9722a3daafe3b4186f6b6457e060405160405180910390a360008060006101000a81548173ffffffffffffffffffffffffffffffffffffffff021916908373ffffffffffffffffffffffffffffffffffffffff160217905550565b606060006002805490509050838111610c2a576040517f08c379a00000000000000000000000000000000000000000000000000000000081526004018080602001828103825260098152602001807f4e6f20726573756c74000000000000000000000000000000000000000000000081525060200191505060405180910390fd5b6000610c3f8583610e9390919063ffffffff16565b905083811115610c4d578390505b80604051908082528060200260200182016040528015610c7c5781602001602082028038833980820191505090505b5092506000610c976001870184610e9390919063ffffffff16565b905060008090505b82811015610d3c576002828060019003935081548110610cbb57fe5b9060005260206000200160000160009054906101000a900473ffffffffffffffffffffffffffffffffffffffff16858281518110610cf557fe5b602002602001019073ffffffffffffffffffffffffffffffffffffffff16908173ffffffffffffffffffffffffffffffffffffffff16815250508080600101915050610c9f565b5050505092915050565b60008060009054906101000a900473ffffffffffffffffffffffffffffffffffffffff16905090565b60008060009054906101000a900473ffffffffffffffffffffffffffffffffffffffff1673ffffffffffffffffffffffffffffffffffffffff163373ffffffffffffffffffffffffffffffffffffffff1614905090565b60028181548110610dd357fe5b906000526020600020016000915090508060000160009054906101000a900473ffffffffffffffffffffffffffffffffffffffff16905081565b610e15610d6f565b610e87576040517f08c379a00000000000000000000000000000000000000000000000000000000081526004018080602001828103825260208152602001807f4f776e61626c653a2063616c6c6572206973206e6f7420746865206f776e657281525060200191505060405180910390fd5b610e9081610f1c565b50565b600082821115610f0b576040517f08c379a000000000000000000000000000000000000000000000000000000000815260040180806020018281038252601e8152602001807f536166654d6174683a207375627472616374696f6e206f766572666c6f77000081525060200191505060405180910390fd5b600082840390508091505092915050565b600073ffffffffffffffffffffffffffffffffffffffff168173ffffffffffffffffffffffffffffffffffffffff161415610fa2576040517f08c379a00000000000000000000000000000000000000000000000000000000081526004018080602001828103825260268152602001806110616026913960400191505060405180910390fd5b8073ffffffffffffffffffffffffffffffffffffffff166000809054906101000a900473ffffffffffffffffffffffffffffffffffffffff1673ffffffffffffffffffffffffffffffffffffffff167f8be0079c531659141344cd1fd0a4f28419497f9722a3daafe3b4186f6b6457e060405160405180910390a3806000806101000a81548173ffffffffffffffffffffffffffffffffffffffff021916908373ffffffffffffffffffffffffffffffffffffffff1602179055505056fe4f776e61626c653a206e6577206f776e657220697320746865207a65726f206164647265737349742773206e6f742074696d652079657420746f20676574207468652070726963652ea165627a7a723058201d516dc5edbd335ace1b87deb4d6759d42d12f81e2917274671800796304eb8a0029",
  "source": "\r\npragma solidity 0.5.7;\r\n\r\nimport \"./external/openzeppelin-solidity/math/SafeMath.sol\";\r\nimport \"./external/openzeppelin-solidity/ownership/Ownable.sol\";\r\nimport \"./interfaces/IChainLinkOracle.sol\";\r\n\r\ncontract MarketRegistry is Ownable {\r\n\r\n  using SafeMath for *; \r\n\r\n  struct MarketPair {\r\n    string name;\r\n    address feedAddress;\r\n    uint256 decimal;\r\n  }\r\n\r\n  struct MarketInfo {\r\n    address addr;\r\n    // uint256 pair;\r\n    // uint256 roundId;\r\n    // uint256 startTime;\r\n    // uint256 endTime;\r\n    // uint256 startPrice;\r\n    // uint256 endPrice;\r\n    // uint256 totalUsers;\r\n    // uint256 totalStaked;\r\n    // uint256 winningOption;\r\n  }\r\n\r\n  MarketPair[] public marketPairs;\r\n  MarketInfo[] public markets;\r\n  \r\n  constructor () public {\r\n    marketPairs.push(MarketPair(\"ETH/USDT\", 0x9326BFA02ADD2366b30bacB125260Af641031331, 9));\r\n  }\r\n\r\n  /**\r\n    * @dev Register the new market\r\n    */\r\n  function registerMarket() external returns (uint256) {\r\n    markets.push(MarketInfo(msg.sender));\r\n    emit MarketCreated(markets.length - 1, msg.sender);\r\n    return markets.length - 1;\r\n  }\r\n\r\n  /**\r\n    * @dev Get price of the specified time and pair\r\n    * @param _time The time when to get price.\r\n    * @param _pair The pair id which to get price.\r\n    */\r\n  function getPairPrice(uint256 _time, uint256 _pair) external view returns (uint256) {\r\n    require(_time > block.timestamp, \"It's not time yet to get the price.\");\r\n    require(_pair >= 0 && _pair < marketPairs.length, \"Invalid market pair.\");\r\n        \r\n    address priceFeedAddress = marketPairs[_pair].feedAddress;\r\n    int256 currentRoundAnswer;\r\n    uint80 currentRoundId;\r\n    uint256 currentRoundTime;\r\n    (currentRoundId, currentRoundAnswer, , currentRoundTime, ) = IChainLinkOracle(priceFeedAddress).latestRoundData();\r\n    while(currentRoundTime > _time) {\r\n      currentRoundId--;\r\n      (currentRoundId, currentRoundAnswer, , currentRoundTime, ) = IChainLinkOracle(priceFeedAddress).getRoundData(currentRoundId);\r\n      if(currentRoundTime <= _time) {\r\n        break;\r\n      }\r\n    }\r\n    return uint256(currentRoundAnswer);\r\n  }\r\n\r\n  /**\r\n    * @dev Provide markets pagination.\r\n    * @param from Page start index from back.\r\n    * @param cnt Page size.\r\n  */\r\n  function getMarkets(uint256 from, uint256 cnt) public view returns(address[] memory _markets) {\r\n    uint256 marketCnt = markets.length;\r\n    require(marketCnt > from, \"No result\");\r\n    uint256 realCnt = marketCnt.sub(from);\r\n    if (realCnt > cnt)\r\n      realCnt = cnt;\r\n\r\n    _markets = new address[](realCnt);\r\n    uint256 k = marketCnt.sub(from + 1);\r\n    uint256 i;\r\n    for (i = 0; i < realCnt; i++) {\r\n      _markets[i] = markets[k--].addr;\r\n    }\r\n  }\r\n\r\n  /**\r\n  * @dev Get market registry data.\r\n  */\r\n  function getRegistryData() external view returns(uint256 _nPairs, address[] memory _markets) {\r\n    uint256 i;\r\n    _nPairs = marketPairs.length;\r\n    _markets = new address[](markets.length);\r\n    for (i = 0; i < markets.length; i++) {\r\n      _markets[i] = markets[i].addr;\r\n    }\r\n  }\r\n\r\n  /**\r\n  * @dev Get current time of contract\r\n  */\r\n  function getCurrentTime() external view returns (uint256) {\r\n    return block.timestamp;\r\n  }\r\n\r\n  /**\r\n  * @dev Emitted by registering a new market\r\n  */\r\n  event MarketCreated (\r\n    uint256 roundId,\r\n    address marketAddress\r\n  );\r\n\r\n}",
  "sourcePath": "E:/work/blockchain/prex/work/prex-smart-contracts/contracts/MarketRegistry.sol",
  "compiler": {
    "name": "solc",
    "version": "0.5.7+commit.6da8b019.Emscripten.clang"
  },
  "schemaVersion": "3.3.3",
  "updatedAt": "2021-03-29T09:20:05.083Z",
  "devdoc": {
    "methods": {
      "getCurrentTime()": {
        "details": "Get current time of contract\r"
      },
      "getMarkets(uint256,uint256)": {
        "details": "Provide markets pagination.\r",
        "params": {
          "cnt": "Page size.\r",
          "from": "Page start index from back.\r"
        }
      },
      "getPairPrice(uint256,uint256)": {
        "details": "Get price of the specified time and pair\r",
        "params": {
          "_pair": "The pair id which to get price.\r",
          "_time": "The time when to get price.\r"
        }
      },
      "getRegistryData()": {
        "details": "Get market registry data.\r"
      },
      "isOwner()": {
        "details": "Returns true if the caller is the current owner.\r"
      },
      "owner()": {
        "details": "Returns the address of the current owner.\r"
      },
      "registerMarket()": {
        "details": "Register the new market\r"
      },
      "renounceOwnership()": {
        "details": "Leaves the contract without owner. It will not be possible to call\r `onlyOwner` functions anymore. Can only be called by the current owner.\r      * > Note: Renouncing ownership will leave the contract without an owner,\r thereby removing any functionality that is only available to the owner.\r"
      },
      "transferOwnership(address)": {
        "details": "Transfers ownership of the contract to a new account (`newOwner`).\r Can only be called by the current owner.\r"
      }
    }
  },
  "userdoc": {
    "methods": {}
  }
}